{
  "contractName": "Collectible",
  "abi": [
    {
      "inputs": [
        {
          "internalType": "string",
          "name": "_name",
          "type": "string"
        },
        {
          "internalType": "string",
          "name": "_symbol",
          "type": "string"
        },
        {
          "internalType": "uint256",
          "name": "_commission",
          "type": "uint256"
        },
        {
          "internalType": "address",
          "name": "_analysis",
          "type": "address"
        }
      ],
      "stateMutability": "nonpayable",
      "type": "constructor"
    },
    {
      "anonymous": false,
      "inputs": [
        {
          "indexed": true,
          "internalType": "address",
          "name": "owner",
          "type": "address"
        },
        {
          "indexed": true,
          "internalType": "address",
          "name": "approved",
          "type": "address"
        },
        {
          "indexed": true,
          "internalType": "uint256",
          "name": "tokenId",
          "type": "uint256"
        }
      ],
      "name": "Approval",
      "type": "event"
    },
    {
      "anonymous": false,
      "inputs": [
        {
          "indexed": true,
          "internalType": "address",
          "name": "owner",
          "type": "address"
        },
        {
          "indexed": true,
          "internalType": "address",
          "name": "operator",
          "type": "address"
        },
        {
          "indexed": false,
          "internalType": "bool",
          "name": "approved",
          "type": "bool"
        }
      ],
      "name": "ApprovalForAll",
      "type": "event"
    },
    {
      "anonymous": false,
      "inputs": [
        {
          "indexed": true,
          "internalType": "address",
          "name": "from",
          "type": "address"
        },
        {
          "indexed": true,
          "internalType": "address",
          "name": "to",
          "type": "address"
        },
        {
          "indexed": true,
          "internalType": "uint256",
          "name": "tokenId",
          "type": "uint256"
        }
      ],
      "name": "Transfer",
      "type": "event"
    },
    {
      "inputs": [],
      "name": "approvalLimit",
      "outputs": [
        {
          "internalType": "uint256",
          "name": "",
          "type": "uint256"
        }
      ],
      "stateMutability": "view",
      "type": "function",
      "constant": true
    },
    {
      "inputs": [
        {
          "internalType": "address",
          "name": "to",
          "type": "address"
        },
        {
          "internalType": "uint256",
          "name": "tokenId",
          "type": "uint256"
        }
      ],
      "name": "approve",
      "outputs": [],
      "stateMutability": "nonpayable",
      "type": "function"
    },
    {
      "inputs": [
        {
          "internalType": "address",
          "name": "",
          "type": "address"
        }
      ],
      "name": "approveCount",
      "outputs": [
        {
          "internalType": "uint256",
          "name": "",
          "type": "uint256"
        }
      ],
      "stateMutability": "view",
      "type": "function",
      "constant": true
    },
    {
      "inputs": [
        {
          "internalType": "address",
          "name": "owner",
          "type": "address"
        }
      ],
      "name": "balanceOf",
      "outputs": [
        {
          "internalType": "uint256",
          "name": "",
          "type": "uint256"
        }
      ],
      "stateMutability": "view",
      "type": "function",
      "constant": true
    },
    {
      "inputs": [],
      "name": "commission",
      "outputs": [
        {
          "internalType": "uint256",
          "name": "",
          "type": "uint256"
        }
      ],
      "stateMutability": "view",
      "type": "function",
      "constant": true
    },
    {
      "inputs": [
        {
          "internalType": "uint256",
          "name": "tokenId",
          "type": "uint256"
        }
      ],
      "name": "getApproved",
      "outputs": [
        {
          "internalType": "address",
          "name": "",
          "type": "address"
        }
      ],
      "stateMutability": "view",
      "type": "function",
      "constant": true
    },
    {
      "inputs": [
        {
          "internalType": "address",
          "name": "owner",
          "type": "address"
        },
        {
          "internalType": "address",
          "name": "operator",
          "type": "address"
        }
      ],
      "name": "isApprovedForAll",
      "outputs": [
        {
          "internalType": "bool",
          "name": "",
          "type": "bool"
        }
      ],
      "stateMutability": "view",
      "type": "function",
      "constant": true
    },
    {
      "inputs": [],
      "name": "mintCount",
      "outputs": [
        {
          "internalType": "uint256",
          "name": "",
          "type": "uint256"
        }
      ],
      "stateMutability": "view",
      "type": "function",
      "constant": true
    },
    {
      "inputs": [],
      "name": "name",
      "outputs": [
        {
          "internalType": "string",
          "name": "",
          "type": "string"
        }
      ],
      "stateMutability": "view",
      "type": "function",
      "constant": true
    },
    {
      "inputs": [
        {
          "internalType": "uint256",
          "name": "tokenId",
          "type": "uint256"
        }
      ],
      "name": "ownerOf",
      "outputs": [
        {
          "internalType": "address",
          "name": "",
          "type": "address"
        }
      ],
      "stateMutability": "view",
      "type": "function",
      "constant": true
    },
    {
      "inputs": [
        {
          "internalType": "address",
          "name": "from",
          "type": "address"
        },
        {
          "internalType": "address",
          "name": "to",
          "type": "address"
        },
        {
          "internalType": "uint256",
          "name": "tokenId",
          "type": "uint256"
        }
      ],
      "name": "safeTransferFrom",
      "outputs": [],
      "stateMutability": "nonpayable",
      "type": "function"
    },
    {
      "inputs": [
        {
          "internalType": "address",
          "name": "from",
          "type": "address"
        },
        {
          "internalType": "address",
          "name": "to",
          "type": "address"
        },
        {
          "internalType": "uint256",
          "name": "tokenId",
          "type": "uint256"
        },
        {
          "internalType": "bytes",
          "name": "_data",
          "type": "bytes"
        }
      ],
      "name": "safeTransferFrom",
      "outputs": [],
      "stateMutability": "nonpayable",
      "type": "function"
    },
    {
      "inputs": [
        {
          "internalType": "address",
          "name": "operator",
          "type": "address"
        },
        {
          "internalType": "bool",
          "name": "approved",
          "type": "bool"
        }
      ],
      "name": "setApprovalForAll",
      "outputs": [],
      "stateMutability": "nonpayable",
      "type": "function"
    },
    {
      "inputs": [],
      "name": "symbol",
      "outputs": [
        {
          "internalType": "string",
          "name": "",
          "type": "string"
        }
      ],
      "stateMutability": "view",
      "type": "function",
      "constant": true
    },
    {
      "inputs": [
        {
          "internalType": "uint256",
          "name": "index",
          "type": "uint256"
        }
      ],
      "name": "tokenByIndex",
      "outputs": [
        {
          "internalType": "uint256",
          "name": "",
          "type": "uint256"
        }
      ],
      "stateMutability": "view",
      "type": "function",
      "constant": true
    },
    {
      "inputs": [
        {
          "internalType": "uint256",
          "name": "",
          "type": "uint256"
        }
      ],
      "name": "tokenDetails",
      "outputs": [
        {
          "components": [
            {
              "internalType": "string",
              "name": "name",
              "type": "string"
            },
            {
              "internalType": "string",
              "name": "description",
              "type": "string"
            },
            {
              "internalType": "string",
              "name": "image",
              "type": "string"
            },
            {
              "internalType": "string",
              "name": "category",
              "type": "string"
            },
            {
              "internalType": "string",
              "name": "unlockable",
              "type": "string"
            },
            {
              "internalType": "string",
              "name": "_type",
              "type": "string"
            },
            {
              "internalType": "string",
              "name": "formate",
              "type": "string"
            },
            {
              "internalType": "bool",
              "name": "_offer",
              "type": "bool"
            }
          ],
          "internalType": "struct Collectible.MetaData",
          "name": "data",
          "type": "tuple"
        },
        {
          "internalType": "uint256",
          "name": "_id",
          "type": "uint256"
        },
        {
          "internalType": "address",
          "name": "_creator",
          "type": "address"
        },
        {
          "internalType": "address",
          "name": "_owner",
          "type": "address"
        },
        {
          "internalType": "uint256",
          "name": "_price",
          "type": "uint256"
        },
        {
          "internalType": "uint256",
          "name": "royalties",
          "type": "uint256"
        },
        {
          "internalType": "uint256",
          "name": "_commission",
          "type": "uint256"
        },
        {
          "internalType": "bool",
          "name": "_promoted",
          "type": "bool"
        },
        {
          "internalType": "bool",
          "name": "approved",
          "type": "bool"
        },
        {
          "internalType": "bool",
          "name": "in_auction",
          "type": "bool"
        },
        {
          "internalType": "uint256",
          "name": "_time",
          "type": "uint256"
        }
      ],
      "stateMutability": "view",
      "type": "function",
      "constant": true
    },
    {
      "inputs": [
        {
          "internalType": "address",
          "name": "owner",
          "type": "address"
        },
        {
          "internalType": "uint256",
          "name": "index",
          "type": "uint256"
        }
      ],
      "name": "tokenOfOwnerByIndex",
      "outputs": [
        {
          "internalType": "uint256",
          "name": "",
          "type": "uint256"
        }
      ],
      "stateMutability": "view",
      "type": "function",
      "constant": true
    },
    {
      "inputs": [],
      "name": "totalSupply",
      "outputs": [
        {
          "internalType": "uint256",
          "name": "",
          "type": "uint256"
        }
      ],
      "stateMutability": "view",
      "type": "function",
      "constant": true
    },
    {
      "inputs": [
        {
          "internalType": "address",
          "name": "from",
          "type": "address"
        },
        {
          "internalType": "address",
          "name": "to",
          "type": "address"
        },
        {
          "internalType": "uint256",
          "name": "tokenId",
          "type": "uint256"
        }
      ],
      "name": "transferFrom",
      "outputs": [],
      "stateMutability": "nonpayable",
      "type": "function"
    },
    {
      "inputs": [
        {
          "internalType": "uint256",
          "name": "tokenId",
          "type": "uint256"
        }
      ],
      "name": "tokenURI",
      "outputs": [
        {
          "internalType": "string",
          "name": "",
          "type": "string"
        }
      ],
      "stateMutability": "view",
      "type": "function",
      "constant": true
    },
    {
      "inputs": [
        {
          "components": [
            {
              "internalType": "string",
              "name": "name",
              "type": "string"
            },
            {
              "internalType": "string",
              "name": "description",
              "type": "string"
            },
            {
              "internalType": "string",
              "name": "image",
              "type": "string"
            },
            {
              "internalType": "string",
              "name": "category",
              "type": "string"
            },
            {
              "internalType": "string",
              "name": "unlockable",
              "type": "string"
            },
            {
              "internalType": "string",
              "name": "_type",
              "type": "string"
            },
            {
              "internalType": "string",
              "name": "formate",
              "type": "string"
            },
            {
              "internalType": "bool",
              "name": "_offer",
              "type": "bool"
            }
          ],
          "internalType": "struct Collectible.MetaData",
          "name": "_data",
          "type": "tuple"
        },
        {
          "internalType": "uint256",
          "name": "_royality",
          "type": "uint256"
        }
      ],
      "name": "MintNFT",
      "outputs": [],
      "stateMutability": "nonpayable",
      "type": "function"
    },
    {
      "inputs": [],
      "name": "getCollections",
      "outputs": [
        {
          "components": [
            {
              "components": [
                {
                  "internalType": "string",
                  "name": "name",
                  "type": "string"
                },
                {
                  "internalType": "string",
                  "name": "description",
                  "type": "string"
                },
                {
                  "internalType": "string",
                  "name": "image",
                  "type": "string"
                },
                {
                  "internalType": "string",
                  "name": "category",
                  "type": "string"
                },
                {
                  "internalType": "string",
                  "name": "unlockable",
                  "type": "string"
                },
                {
                  "internalType": "string",
                  "name": "_type",
                  "type": "string"
                },
                {
                  "internalType": "string",
                  "name": "formate",
                  "type": "string"
                },
                {
                  "internalType": "bool",
                  "name": "_offer",
                  "type": "bool"
                }
              ],
              "internalType": "struct Collectible.MetaData",
              "name": "data",
              "type": "tuple"
            },
            {
              "internalType": "uint256",
              "name": "_id",
              "type": "uint256"
            },
            {
              "internalType": "address",
              "name": "_creator",
              "type": "address"
            },
            {
              "internalType": "address",
              "name": "_owner",
              "type": "address"
            },
            {
              "internalType": "uint256",
              "name": "_price",
              "type": "uint256"
            },
            {
              "internalType": "uint256",
              "name": "royalties",
              "type": "uint256"
            },
            {
              "internalType": "uint256",
              "name": "_commission",
              "type": "uint256"
            },
            {
              "internalType": "bool",
              "name": "_promoted",
              "type": "bool"
            },
            {
              "internalType": "bool",
              "name": "approved",
              "type": "bool"
            },
            {
              "internalType": "bool",
              "name": "in_auction",
              "type": "bool"
            },
            {
              "internalType": "uint256",
              "name": "_time",
              "type": "uint256"
            }
          ],
          "internalType": "struct Collectible.Token[]",
          "name": "_tokens",
          "type": "tuple[]"
        }
      ],
      "stateMutability": "view",
      "type": "function",
      "constant": true
    },
    {
      "inputs": [
        {
          "internalType": "address",
          "name": "_old",
          "type": "address"
        },
        {
          "internalType": "address",
          "name": "_new",
          "type": "address"
        },
        {
          "internalType": "uint256",
          "name": "_id",
          "type": "uint256"
        }
      ],
      "name": "updateCollect",
      "outputs": [],
      "stateMutability": "nonpayable",
      "type": "function"
    },
    {
      "inputs": [
        {
          "internalType": "address",
          "name": "_address",
          "type": "address"
        }
      ],
      "name": "getCollect",
      "outputs": [
        {
          "internalType": "uint256[]",
          "name": "",
          "type": "uint256[]"
        },
        {
          "internalType": "uint256[]",
          "name": "",
          "type": "uint256[]"
        },
        {
          "internalType": "uint256[]",
          "name": "",
          "type": "uint256[]"
        }
      ],
      "stateMutability": "view",
      "type": "function",
      "constant": true
    },
    {
      "inputs": [
        {
          "internalType": "uint256",
          "name": "_id",
          "type": "uint256"
        },
        {
          "internalType": "address",
          "name": "_owner",
          "type": "address"
        },
        {
          "internalType": "uint256",
          "name": "_price",
          "type": "uint256"
        },
        {
          "internalType": "bool",
          "name": "_promoted",
          "type": "bool"
        },
        {
          "internalType": "bool",
          "name": "_approved",
          "type": "bool"
        },
        {
          "internalType": "bool",
          "name": "inAuction",
          "type": "bool"
        },
        {
          "internalType": "bool",
          "name": "offer",
          "type": "bool"
        }
      ],
      "name": "updateToken",
      "outputs": [],
      "stateMutability": "nonpayable",
      "type": "function"
    },
    {
      "inputs": [
        {
          "internalType": "uint256",
          "name": "_id",
          "type": "uint256"
        }
      ],
      "name": "getAuctionMetaData",
      "outputs": [
        {
          "components": [
            {
              "components": [
                {
                  "internalType": "string",
                  "name": "name",
                  "type": "string"
                },
                {
                  "internalType": "string",
                  "name": "description",
                  "type": "string"
                },
                {
                  "internalType": "string",
                  "name": "image",
                  "type": "string"
                },
                {
                  "internalType": "string",
                  "name": "category",
                  "type": "string"
                },
                {
                  "internalType": "string",
                  "name": "unlockable",
                  "type": "string"
                },
                {
                  "internalType": "string",
                  "name": "_type",
                  "type": "string"
                },
                {
                  "internalType": "string",
                  "name": "formate",
                  "type": "string"
                },
                {
                  "internalType": "bool",
                  "name": "_offer",
                  "type": "bool"
                }
              ],
              "internalType": "struct Collectible.MetaData",
              "name": "data",
              "type": "tuple"
            },
            {
              "internalType": "uint256",
              "name": "_id",
              "type": "uint256"
            },
            {
              "internalType": "address",
              "name": "_creator",
              "type": "address"
            },
            {
              "internalType": "address",
              "name": "_owner",
              "type": "address"
            },
            {
              "internalType": "uint256",
              "name": "_price",
              "type": "uint256"
            },
            {
              "internalType": "uint256",
              "name": "royalties",
              "type": "uint256"
            },
            {
              "internalType": "uint256",
              "name": "_commission",
              "type": "uint256"
            },
            {
              "internalType": "bool",
              "name": "_promoted",
              "type": "bool"
            },
            {
              "internalType": "bool",
              "name": "approved",
              "type": "bool"
            },
            {
              "internalType": "bool",
              "name": "in_auction",
              "type": "bool"
            },
            {
              "internalType": "uint256",
              "name": "_time",
              "type": "uint256"
            }
          ],
          "internalType": "struct Collectible.Token",
          "name": "_token",
          "type": "tuple"
        }
      ],
      "stateMutability": "view",
      "type": "function",
      "constant": true
    },
    {
      "inputs": [
        {
          "internalType": "uint256",
          "name": "_amount",
          "type": "uint256"
        }
      ],
      "name": "setApprovalLimit",
      "outputs": [],
      "stateMutability": "nonpayable",
      "type": "function"
    },
    {
      "inputs": [
        {
          "internalType": "bytes4",
          "name": "_interface",
          "type": "bytes4"
        }
      ],
      "name": "supportsInterface",
      "outputs": [
        {
          "internalType": "bool",
          "name": "",
          "type": "bool"
        }
      ],
      "stateMutability": "view",
      "type": "function",
      "constant": true
    },
    {
      "inputs": [
        {
          "internalType": "uint256[]",
          "name": "_ids",
          "type": "uint256[]"
        }
      ],
      "name": "unwanted",
      "outputs": [],
      "stateMutability": "nonpayable",
      "type": "function"
    },
    {
      "inputs": [
        {
          "internalType": "uint256",
          "name": "id",
          "type": "uint256"
        }
      ],
      "name": "rmToken",
      "outputs": [],
      "stateMutability": "nonpayable",
      "type": "function"
    }
  ],
  "bytecode": "0x60806040523480156200001157600080fd5b506040516200642c3803806200642c83398181016040528101906200003791906200032d565b838381600090816200004a91906200061e565b5080600190816200005c91906200061e565b50505081600b8190555080601160006101000a81548173ffffffffffffffffffffffffffffffffffffffff021916908373ffffffffffffffffffffffffffffffffffffffff16021790555033600a60006101000a81548173ffffffffffffffffffffffffffffffffffffffff021916908373ffffffffffffffffffffffffffffffffffffffff1602179055506032600d819055505050505062000705565b6000604051905090565b600080fd5b600080fd5b600080fd5b600080fd5b6000601f19601f8301169050919050565b7f4e487b7100000000000000000000000000000000000000000000000000000000600052604160045260246000fd5b620001638262000118565b810181811067ffffffffffffffff8211171562000185576200018462000129565b5b80604052505050565b60006200019a620000fa565b9050620001a8828262000158565b919050565b600067ffffffffffffffff821115620001cb57620001ca62000129565b5b620001d68262000118565b9050602081019050919050565b60005b8381101562000203578082015181840152602081019050620001e6565b60008484015250505050565b6000620002266200022084620001ad565b6200018e565b90508281526020810184848401111562000245576200024462000113565b5b62000252848285620001e3565b509392505050565b600082601f8301126200027257620002716200010e565b5b8151620002848482602086016200020f565b91505092915050565b6000819050919050565b620002a2816200028d565b8114620002ae57600080fd5b50565b600081519050620002c28162000297565b92915050565b600073ffffffffffffffffffffffffffffffffffffffff82169050919050565b6000620002f582620002c8565b9050919050565b6200030781620002e8565b81146200031357600080fd5b50565b6000815190506200032781620002fc565b92915050565b600080600080608085870312156200034a576200034962000104565b5b600085015167ffffffffffffffff8111156200036b576200036a62000109565b5b62000379878288016200025a565b945050602085015167ffffffffffffffff8111156200039d576200039c62000109565b5b620003ab878288016200025a565b9350506040620003be87828801620002b1565b9250506060620003d18782880162000316565b91505092959194509250565b600081519050919050565b7f4e487b7100000000000000000000000000000000000000000000000000000000600052602260045260246000fd5b600060028204905060018216806200043057607f821691505b602082108103620004465762000445620003e8565b5b50919050565b60008190508160005260206000209050919050565b60006020601f8301049050919050565b600082821b905092915050565b600060088302620004b07fffffffffffffffffffffffffffffffffffffffffffffffffffffffffffffffff8262000471565b620004bc868362000471565b95508019841693508086168417925050509392505050565b6000819050919050565b6000620004ff620004f9620004f3846200028d565b620004d4565b6200028d565b9050919050565b6000819050919050565b6200051b83620004de565b620005336200052a8262000506565b8484546200047e565b825550505050565b600090565b6200054a6200053b565b6200055781848462000510565b505050565b5b818110156200057f576200057360008262000540565b6001810190506200055d565b5050565b601f821115620005ce5762000598816200044c565b620005a38462000461565b81016020851015620005b3578190505b620005cb620005c28562000461565b8301826200055c565b50505b505050565b600082821c905092915050565b6000620005f360001984600802620005d3565b1980831691505092915050565b60006200060e8383620005e0565b9150826002028217905092915050565b6200062982620003dd565b67ffffffffffffffff81111562000645576200064462000129565b5b62000651825462000417565b6200065e82828562000583565b600060209050601f83116001811462000696576000841562000681578287015190505b6200068d858262000600565b865550620006fd565b601f198416620006a6866200044c565b60005b82811015620006d057848901518255600182019150602085019450602081019050620006a9565b86831015620006f05784890151620006ec601f891682620005e0565b8355505b6001600288020188555050505b505050505050565b615d1780620007156000396000f3fe608060405234801561001057600080fd5b50600436106101da5760003560e01c806370a0823111610104578063b88d4fde116100a2578063e985e9c511610071578063e985e9c514610567578063fc314e3114610597578063fe736826146105d1578063ff811de514610601576101da565b8063b88d4fde146104cb578063c2889a33146104e7578063c87b56dd14610519578063e148919114610549576101da565b806395d89b41116100de57806395d89b41146104575780639659867e146104755780639673d61e14610493578063a22cb465146104af576101da565b806370a08231146103ef57806374da612b1461041f578063883102a41461043b576101da565b80633fb1bb501161017c5780635594f2dc1161014b5780635594f2dc146103695780635db6a97d146103855780636352211e146103a357806368137c3f146103d3576101da565b80633fb1bb50146102e357806342842e0e146102ff57806346e635861461031b5780634f6ccce714610339576101da565b8063095ea7b3116101b8578063095ea7b31461025d57806318160ddd1461027957806323b872dd146102975780632f745c59146102b3576101da565b806301ffc9a7146101df57806306fdde031461020f578063081812fc1461022d575b600080fd5b6101f960048036038101906101f49190613b9d565b610631565b6040516102069190613be5565b60405180910390f35b610217610643565b6040516102249190613c90565b60405180910390f35b61024760048036038101906102429190613ce8565b6106d5565b6040516102549190613d56565b60405180910390f35b61027760048036038101906102729190613d9d565b61075a565b005b610281610871565b60405161028e9190613dec565b60405180910390f35b6102b160048036038101906102ac9190613e07565b61087e565b005b6102cd60048036038101906102c89190613d9d565b6108de565b6040516102da9190613dec565b60405180910390f35b6102fd60048036038101906102f89190614153565b610983565b005b61031960048036038101906103149190613e07565b610f8b565b005b610323610fab565b60405161033091906144b1565b60405180910390f35b610353600480360381019061034e9190613ce8565b6115d9565b6040516103609190613dec565b60405180910390f35b610383600480360381019061037e91906144d3565b61164a565b005b61038d6117b9565b60405161039a9190613dec565b60405180910390f35b6103bd60048036038101906103b89190613ce8565b6117bf565b6040516103ca9190613d56565b60405180910390f35b6103ed60048036038101906103e89190613ce8565b611870565b005b61040960048036038101906104049190614575565b6119c6565b6040516104169190613dec565b60405180910390f35b61043960048036038101906104349190613ce8565b611a7d565b005b6104556004803603810190610450919061466a565b611a87565b005b61045f611b66565b60405161046c9190613c90565b60405180910390f35b61047d611bf8565b60405161048a9190613dec565b60405180910390f35b6104ad60048036038101906104a89190613e07565b611bfe565b005b6104c960048036038101906104c491906146b3565b611c94565b005b6104e560048036038101906104e09190614794565b611caa565b005b61050160048036038101906104fc9190614575565b611d0c565b604051610510939291906148c6565b60405180910390f35b610533600480360381019061052e9190613ce8565b611dbf565b6040516105409190613c90565b60405180910390f35b610551611eac565b60405161055e9190613dec565b60405180910390f35b610581600480360381019061057c9190614912565b611eb2565b60405161058e9190613be5565b60405180910390f35b6105b160048036038101906105ac9190613ce8565b611f46565b6040516105c89b9a99989796959493929190614a2c565b60405180910390f35b6105eb60048036038101906105e69190613ce8565b61242b565b6040516105f89190614bcd565b60405180910390f35b61061b60048036038101906106169190614575565b6129b6565b6040516106289190613dec565b60405180910390f35b600061063c826129ce565b9050919050565b60606000805461065290614c1e565b80601f016020809104026020016040519081016040528092919081815260200182805461067e90614c1e565b80156106cb5780601f106106a0576101008083540402835291602001916106cb565b820191906000526020600020905b8154815290600101906020018083116106ae57829003601f168201915b5050505050905090565b60006106e082612a48565b61071f576040517f08c379a000000000000000000000000000000000000000000000000000000000815260040161071690614cc1565b60405180910390fd5b6004600083815260200190815260200160002060009054906101000a900473ffffffffffffffffffffffffffffffffffffffff169050919050565b6000610765826117bf565b90508073ffffffffffffffffffffffffffffffffffffffff168373ffffffffffffffffffffffffffffffffffffffff16036107d5576040517f08c379a00000000000000000000000000000000000000000000000000000000081526004016107cc90614d53565b60405180910390fd5b8073ffffffffffffffffffffffffffffffffffffffff166107f4612ab4565b73ffffffffffffffffffffffffffffffffffffffff16148061082357506108228161081d612ab4565b611eb2565b5b610862576040517f08c379a000000000000000000000000000000000000000000000000000000000815260040161085990614de5565b60405180910390fd5b61086c8383612abc565b505050565b6000600880549050905090565b61088f610889612ab4565b82612b75565b6108ce576040517f08c379a00000000000000000000000000000000000000000000000000000000081526004016108c590614e77565b60405180910390fd5b6108d9838383612c53565b505050565b60006108e9836119c6565b821061092a576040517f08c379a000000000000000000000000000000000000000000000000000000000815260040161092190614f09565b60405180910390fd5b600660008473ffffffffffffffffffffffffffffffffffffffff1673ffffffffffffffffffffffffffffffffffffffff168152602001908152602001600020600083815260200190815260200160002054905092915050565b60003390506000429050600d54600f60008473ffffffffffffffffffffffffffffffffffffffff1673ffffffffffffffffffffffffffffffffffffffff168152602001908152602001600020541115610a11576040517f08c379a0000000000000000000000000000000000000000000000000000000008152600401610a0890614f75565b60405180910390fd5b600c6000815480929190610a2490614fc4565b9190505550600f60008373ffffffffffffffffffffffffffffffffffffffff1673ffffffffffffffffffffffffffffffffffffffff1681526020019081526020016000206000815480929190610a7990614fc4565b91905055508360400151600e6000600c5481526020019081526020016000209081610aa491906151b8565b50610ab182600c54612eb9565b601160009054906101000a900473ffffffffffffffffffffffffffffffffffffffff1673ffffffffffffffffffffffffffffffffffffffff1663fd17c3a4600c54846000806040518563ffffffff1660e01b8152600401610b1594939291906152c5565b600060405180830381600087803b158015610b2f57600080fd5b505af1158015610b43573d6000803e3d6000fd5b50505050601160009054906101000a900473ffffffffffffffffffffffffffffffffffffffff1673ffffffffffffffffffffffffffffffffffffffff1663594a2ade83600c546040518363ffffffff1660e01b8152600401610ba692919061530a565b600060405180830381600087803b158015610bc057600080fd5b505af1158015610bd4573d6000803e3d6000fd5b50505050601160009054906101000a900473ffffffffffffffffffffffffffffffffffffffff1673ffffffffffffffffffffffffffffffffffffffff1663af81c5b983600c546040518363ffffffff1660e01b8152600401610c3792919061530a565b600060405180830381600087803b158015610c5157600080fd5b505af1158015610c65573d6000803e3d6000fd5b50505050604051806101600160405280858152602001600c5481526020018373ffffffffffffffffffffffffffffffffffffffff1681526020018373ffffffffffffffffffffffffffffffffffffffff16815260200160008152602001848152602001600b5481526020016000151581526020016000151581526020016000151581526020018281525060106000600c5481526020019081526020016000206000820151816000016000820151816000019081610d2291906151b8565b506020820151816001019081610d3891906151b8565b506040820151816002019081610d4e91906151b8565b506060820151816003019081610d6491906151b8565b506080820151816004019081610d7a91906151b8565b5060a0820151816005019081610d9091906151b8565b5060c0820151816006019081610da691906151b8565b5060e08201518160070160006101000a81548160ff02191690831515021790555050506020820151816008015560408201518160090160006101000a81548173ffffffffffffffffffffffffffffffffffffffff021916908373ffffffffffffffffffffffffffffffffffffffff160217905550606082015181600a0160006101000a81548173ffffffffffffffffffffffffffffffffffffffff021916908373ffffffffffffffffffffffffffffffffffffffff160217905550608082015181600b015560a082015181600c015560c082015181600d015560e082015181600e0160006101000a81548160ff02191690831515021790555061010082015181600e0160016101000a81548160ff02191690831515021790555061012082015181600e0160026101000a81548160ff02191690831515021790555061014082015181600f0155905050601160009054906101000a900473ffffffffffffffffffffffffffffffffffffffff1673ffffffffffffffffffffffffffffffffffffffff1663b7c2f3a783600086600b546040518563ffffffff1660e01b8152600401610f53949392919061537f565b600060405180830381600087803b158015610f6d57600080fd5b505af1158015610f81573d6000803e3d6000fd5b5050505050505050565b610fa683838360405180602001604052806000815250611caa565b505050565b60606000600c5490508067ffffffffffffffff811115610fce57610fcd613e5f565b5b60405190808252806020026020018201604052801561100757816020015b610ff46139fb565b815260200190600190039081610fec5790505b50915060005b818110156115d457600060018261102491906153d7565b90506010600082815260200190815260200160002060405180610160016040529081600082016040518061010001604052908160008201805461106690614c1e565b80601f016020809104026020016040519081016040528092919081815260200182805461109290614c1e565b80156110df5780601f106110b4576101008083540402835291602001916110df565b820191906000526020600020905b8154815290600101906020018083116110c257829003601f168201915b505050505081526020016001820180546110f890614c1e565b80601f016020809104026020016040519081016040528092919081815260200182805461112490614c1e565b80156111715780601f1061114657610100808354040283529160200191611171565b820191906000526020600020905b81548152906001019060200180831161115457829003601f168201915b5050505050815260200160028201805461118a90614c1e565b80601f01602080910402602001604051908101604052809291908181526020018280546111b690614c1e565b80156112035780601f106111d857610100808354040283529160200191611203565b820191906000526020600020905b8154815290600101906020018083116111e657829003601f168201915b5050505050815260200160038201805461121c90614c1e565b80601f016020809104026020016040519081016040528092919081815260200182805461124890614c1e565b80156112955780601f1061126a57610100808354040283529160200191611295565b820191906000526020600020905b81548152906001019060200180831161127857829003601f168201915b505050505081526020016004820180546112ae90614c1e565b80601f01602080910402602001604051908101604052809291908181526020018280546112da90614c1e565b80156113275780601f106112fc57610100808354040283529160200191611327565b820191906000526020600020905b81548152906001019060200180831161130a57829003601f168201915b5050505050815260200160058201805461134090614c1e565b80601f016020809104026020016040519081016040528092919081815260200182805461136c90614c1e565b80156113b95780601f1061138e576101008083540402835291602001916113b9565b820191906000526020600020905b81548152906001019060200180831161139c57829003601f168201915b505050505081526020016006820180546113d290614c1e565b80601f01602080910402602001604051908101604052809291908181526020018280546113fe90614c1e565b801561144b5780601f106114205761010080835404028352916020019161144b565b820191906000526020600020905b81548152906001019060200180831161142e57829003601f168201915b505050505081526020016007820160009054906101000a900460ff1615151515815250508152602001600882015481526020016009820160009054906101000a900473ffffffffffffffffffffffffffffffffffffffff1673ffffffffffffffffffffffffffffffffffffffff1673ffffffffffffffffffffffffffffffffffffffff168152602001600a820160009054906101000a900473ffffffffffffffffffffffffffffffffffffffff1673ffffffffffffffffffffffffffffffffffffffff1673ffffffffffffffffffffffffffffffffffffffff168152602001600b8201548152602001600c8201548152602001600d8201548152602001600e820160009054906101000a900460ff16151515158152602001600e820160019054906101000a900460ff16151515158152602001600e820160029054906101000a900460ff16151515158152602001600f820154815250508483815181106115b5576115b461540b565b5b60200260200101819052505080806115cc90614fc4565b91505061100d565b505090565b60006115e3610871565b8210611624576040517f08c379a000000000000000000000000000000000000000000000000000000000815260040161161b906154ac565b60405180910390fd5b600882815481106116385761163761540b565b5b90600052602060002001549050919050565b60006010600089815260200190815260200160002090508681600a0160006101000a81548173ffffffffffffffffffffffffffffffffffffffff021916908373ffffffffffffffffffffffffffffffffffffffff1602179055508581600b01819055508481600e0160006101000a81548160ff0219169083151502179055508381600e0160016101000a81548160ff0219169083151502179055508281600e0160026101000a81548160ff021916908315150217905550818160000160070160006101000a81548160ff021916908315150217905550601160009054906101000a900473ffffffffffffffffffffffffffffffffffffffff1673ffffffffffffffffffffffffffffffffffffffff166343c9d17589846040518363ffffffff1660e01b815260040161177d9291906154cc565b600060405180830381600087803b15801561179757600080fd5b505af11580156117ab573d6000803e3d6000fd5b505050505050505050505050565b600d5481565b6000806002600084815260200190815260200160002060009054906101000a900473ffffffffffffffffffffffffffffffffffffffff169050600073ffffffffffffffffffffffffffffffffffffffff168173ffffffffffffffffffffffffffffffffffffffff1603611867576040517f08c379a000000000000000000000000000000000000000000000000000000000815260040161185e90615567565b60405180910390fd5b80915050919050565b601060008281526020019081526020016000206000808201600080820160006118999190613a8d565b6001820160006118a99190613a8d565b6002820160006118b99190613a8d565b6003820160006118c99190613a8d565b6004820160006118d99190613a8d565b6005820160006118e99190613a8d565b6006820160006118f99190613a8d565b6007820160006101000a81549060ff0219169055505060088201600090556009820160006101000a81549073ffffffffffffffffffffffffffffffffffffffff0219169055600a820160006101000a81549073ffffffffffffffffffffffffffffffffffffffff0219169055600b820160009055600c820160009055600d820160009055600e820160006101000a81549060ff0219169055600e820160016101000a81549060ff0219169055600e820160026101000a81549060ff0219169055600f820160009055505050565b60008073ffffffffffffffffffffffffffffffffffffffff168273ffffffffffffffffffffffffffffffffffffffff1603611a36576040517f08c379a0000000000000000000000000000000000000000000000000000000008152600401611a2d906155f9565b60405180910390fd5b600360008373ffffffffffffffffffffffffffffffffffffffff1673ffffffffffffffffffffffffffffffffffffffff168152602001908152602001600020549050919050565b80600d8190555050565b60008151905060005b81811015611b61576000838281518110611aad57611aac61540b565b5b60200260200101519050611ac081611870565b601160009054906101000a900473ffffffffffffffffffffffffffffffffffffffff1673ffffffffffffffffffffffffffffffffffffffff16634d0951d3826040518263ffffffff1660e01b8152600401611b1b9190613dec565b600060405180830381600087803b158015611b3557600080fd5b505af1158015611b49573d6000803e3d6000fd5b50505050508080611b5990614fc4565b915050611a90565b505050565b606060018054611b7590614c1e565b80601f0160208091040260200160405190810160405280929190818152602001828054611ba190614c1e565b8015611bee5780601f10611bc357610100808354040283529160200191611bee565b820191906000526020600020905b815481529060010190602001808311611bd157829003601f168201915b5050505050905090565b600c5481565b601160009054906101000a900473ffffffffffffffffffffffffffffffffffffffff1673ffffffffffffffffffffffffffffffffffffffff16639673d61e8484846040518463ffffffff1660e01b8152600401611c5d93929190615619565b600060405180830381600087803b158015611c7757600080fd5b505af1158015611c8b573d6000803e3d6000fd5b50505050505050565b611ca6611c9f612ab4565b8383612ed7565b5050565b611cbb611cb5612ab4565b83612b75565b611cfa576040517f08c379a0000000000000000000000000000000000000000000000000000000008152600401611cf190614e77565b60405180910390fd5b611d0684848484613043565b50505050565b6060806060601160009054906101000a900473ffffffffffffffffffffffffffffffffffffffff1673ffffffffffffffffffffffffffffffffffffffff1663c2889a33856040518263ffffffff1660e01b8152600401611d6c9190613d56565b600060405180830381865afa158015611d89573d6000803e3d6000fd5b505050506040513d6000823e3d601f19601f82011682018060405250810190611db291906156fc565b9250925092509193909250565b6060611dca82612a48565b611e09576040517f08c379a0000000000000000000000000000000000000000000000000000000008152600401611e00906157ef565b60405180910390fd5b600e60008381526020019081526020016000208054611e2790614c1e565b80601f0160208091040260200160405190810160405280929190818152602001828054611e5390614c1e565b8015611ea05780601f10611e7557610100808354040283529160200191611ea0565b820191906000526020600020905b815481529060010190602001808311611e8357829003601f168201915b50505050509050919050565b600b5481565b6000600560008473ffffffffffffffffffffffffffffffffffffffff1673ffffffffffffffffffffffffffffffffffffffff16815260200190815260200160002060008373ffffffffffffffffffffffffffffffffffffffff1673ffffffffffffffffffffffffffffffffffffffff16815260200190815260200160002060009054906101000a900460ff16905092915050565b60106020528060005260406000206000915090508060000160405180610100016040529081600082018054611f7a90614c1e565b80601f0160208091040260200160405190810160405280929190818152602001828054611fa690614c1e565b8015611ff35780601f10611fc857610100808354040283529160200191611ff3565b820191906000526020600020905b815481529060010190602001808311611fd657829003601f168201915b5050505050815260200160018201805461200c90614c1e565b80601f016020809104026020016040519081016040528092919081815260200182805461203890614c1e565b80156120855780601f1061205a57610100808354040283529160200191612085565b820191906000526020600020905b81548152906001019060200180831161206857829003601f168201915b5050505050815260200160028201805461209e90614c1e565b80601f01602080910402602001604051908101604052809291908181526020018280546120ca90614c1e565b80156121175780601f106120ec57610100808354040283529160200191612117565b820191906000526020600020905b8154815290600101906020018083116120fa57829003601f168201915b5050505050815260200160038201805461213090614c1e565b80601f016020809104026020016040519081016040528092919081815260200182805461215c90614c1e565b80156121a95780601f1061217e576101008083540402835291602001916121a9565b820191906000526020600020905b81548152906001019060200180831161218c57829003601f168201915b505050505081526020016004820180546121c290614c1e565b80601f01602080910402602001604051908101604052809291908181526020018280546121ee90614c1e565b801561223b5780601f106122105761010080835404028352916020019161223b565b820191906000526020600020905b81548152906001019060200180831161221e57829003601f168201915b5050505050815260200160058201805461225490614c1e565b80601f016020809104026020016040519081016040528092919081815260200182805461228090614c1e565b80156122cd5780601f106122a2576101008083540402835291602001916122cd565b820191906000526020600020905b8154815290600101906020018083116122b057829003601f168201915b505050505081526020016006820180546122e690614c1e565b80601f016020809104026020016040519081016040528092919081815260200182805461231290614c1e565b801561235f5780601f106123345761010080835404028352916020019161235f565b820191906000526020600020905b81548152906001019060200180831161234257829003601f168201915b505050505081526020016007820160009054906101000a900460ff161515151581525050908060080154908060090160009054906101000a900473ffffffffffffffffffffffffffffffffffffffff169080600a0160009054906101000a900473ffffffffffffffffffffffffffffffffffffffff169080600b01549080600c01549080600d01549080600e0160009054906101000a900460ff169080600e0160019054906101000a900460ff169080600e0160029054906101000a900460ff169080600f015490508b565b6124336139fb565b6010600083815260200190815260200160002060405180610160016040529081600082016040518061010001604052908160008201805461247390614c1e565b80601f016020809104026020016040519081016040528092919081815260200182805461249f90614c1e565b80156124ec5780601f106124c1576101008083540402835291602001916124ec565b820191906000526020600020905b8154815290600101906020018083116124cf57829003601f168201915b5050505050815260200160018201805461250590614c1e565b80601f016020809104026020016040519081016040528092919081815260200182805461253190614c1e565b801561257e5780601f106125535761010080835404028352916020019161257e565b820191906000526020600020905b81548152906001019060200180831161256157829003601f168201915b5050505050815260200160028201805461259790614c1e565b80601f01602080910402602001604051908101604052809291908181526020018280546125c390614c1e565b80156126105780601f106125e557610100808354040283529160200191612610565b820191906000526020600020905b8154815290600101906020018083116125f357829003601f168201915b5050505050815260200160038201805461262990614c1e565b80601f016020809104026020016040519081016040528092919081815260200182805461265590614c1e565b80156126a25780601f10612677576101008083540402835291602001916126a2565b820191906000526020600020905b81548152906001019060200180831161268557829003601f168201915b505050505081526020016004820180546126bb90614c1e565b80601f01602080910402602001604051908101604052809291908181526020018280546126e790614c1e565b80156127345780601f1061270957610100808354040283529160200191612734565b820191906000526020600020905b81548152906001019060200180831161271757829003601f168201915b5050505050815260200160058201805461274d90614c1e565b80601f016020809104026020016040519081016040528092919081815260200182805461277990614c1e565b80156127c65780601f1061279b576101008083540402835291602001916127c6565b820191906000526020600020905b8154815290600101906020018083116127a957829003601f168201915b505050505081526020016006820180546127df90614c1e565b80601f016020809104026020016040519081016040528092919081815260200182805461280b90614c1e565b80156128585780601f1061282d57610100808354040283529160200191612858565b820191906000526020600020905b81548152906001019060200180831161283b57829003601f168201915b505050505081526020016007820160009054906101000a900460ff1615151515815250508152602001600882015481526020016009820160009054906101000a900473ffffffffffffffffffffffffffffffffffffffff1673ffffffffffffffffffffffffffffffffffffffff1673ffffffffffffffffffffffffffffffffffffffff168152602001600a820160009054906101000a900473ffffffffffffffffffffffffffffffffffffffff1673ffffffffffffffffffffffffffffffffffffffff1673ffffffffffffffffffffffffffffffffffffffff168152602001600b8201548152602001600c8201548152602001600d8201548152602001600e820160009054906101000a900460ff16151515158152602001600e820160019054906101000a900460ff16151515158152602001600e820160029054906101000a900460ff16151515158152602001600f820154815250509050919050565b600f6020528060005260406000206000915090505481565b60007f780e9d63000000000000000000000000000000000000000000000000000000007bffffffffffffffffffffffffffffffffffffffffffffffffffffffff1916827bffffffffffffffffffffffffffffffffffffffffffffffffffffffff19161480612a415750612a408261309f565b5b9050919050565b60008073ffffffffffffffffffffffffffffffffffffffff166002600084815260200190815260200160002060009054906101000a900473ffffffffffffffffffffffffffffffffffffffff1673ffffffffffffffffffffffffffffffffffffffff1614159050919050565b600033905090565b816004600083815260200190815260200160002060006101000a81548173ffffffffffffffffffffffffffffffffffffffff021916908373ffffffffffffffffffffffffffffffffffffffff160217905550808273ffffffffffffffffffffffffffffffffffffffff16612b2f836117bf565b73ffffffffffffffffffffffffffffffffffffffff167f8c5be1e5ebec7d5bd14f71427d1e84f3dd0314c0f7b2291e5b200ac8c7c3b92560405160405180910390a45050565b6000612b8082612a48565b612bbf576040517f08c379a0000000000000000000000000000000000000000000000000000000008152600401612bb690615881565b60405180910390fd5b6000612bca836117bf565b90508073ffffffffffffffffffffffffffffffffffffffff168473ffffffffffffffffffffffffffffffffffffffff161480612c0c5750612c0b8185611eb2565b5b80612c4a57508373ffffffffffffffffffffffffffffffffffffffff16612c32846106d5565b73ffffffffffffffffffffffffffffffffffffffff16145b91505092915050565b8273ffffffffffffffffffffffffffffffffffffffff16612c73826117bf565b73ffffffffffffffffffffffffffffffffffffffff1614612cc9576040517f08c379a0000000000000000000000000000000000000000000000000000000008152600401612cc090615913565b60405180910390fd5b600073ffffffffffffffffffffffffffffffffffffffff168273ffffffffffffffffffffffffffffffffffffffff1603612d38576040517f08c379a0000000000000000000000000000000000000000000000000000000008152600401612d2f906159a5565b60405180910390fd5b612d43838383613181565b612d4e600082612abc565b6001600360008573ffffffffffffffffffffffffffffffffffffffff1673ffffffffffffffffffffffffffffffffffffffff1681526020019081526020016000206000828254612d9e91906159c5565b925050819055506001600360008473ffffffffffffffffffffffffffffffffffffffff1673ffffffffffffffffffffffffffffffffffffffff1681526020019081526020016000206000828254612df591906153d7565b92505081905550816002600083815260200190815260200160002060006101000a81548173ffffffffffffffffffffffffffffffffffffffff021916908373ffffffffffffffffffffffffffffffffffffffff160217905550808273ffffffffffffffffffffffffffffffffffffffff168473ffffffffffffffffffffffffffffffffffffffff167fddf252ad1be2c89b69c2b068fc378daa952ba7f163c4a11628f55a4df523b3ef60405160405180910390a4612eb4838383613191565b505050565b612ed3828260405180602001604052806000815250613196565b5050565b8173ffffffffffffffffffffffffffffffffffffffff168373ffffffffffffffffffffffffffffffffffffffff1603612f45576040517f08c379a0000000000000000000000000000000000000000000000000000000008152600401612f3c90615a45565b60405180910390fd5b80600560008573ffffffffffffffffffffffffffffffffffffffff1673ffffffffffffffffffffffffffffffffffffffff16815260200190815260200160002060008473ffffffffffffffffffffffffffffffffffffffff1673ffffffffffffffffffffffffffffffffffffffff16815260200190815260200160002060006101000a81548160ff0219169083151502179055508173ffffffffffffffffffffffffffffffffffffffff168373ffffffffffffffffffffffffffffffffffffffff167f17307eab39ab6107e8899845ad3d59bd9653f200f220920489ca2b5937696c31836040516130369190613be5565b60405180910390a3505050565b61304e848484612c53565b61305a848484846131f1565b613099576040517f08c379a000000000000000000000000000000000000000000000000000000000815260040161309090615ad7565b60405180910390fd5b50505050565b60007f80ac58cd000000000000000000000000000000000000000000000000000000007bffffffffffffffffffffffffffffffffffffffffffffffffffffffff1916827bffffffffffffffffffffffffffffffffffffffffffffffffffffffff1916148061316a57507f5b5e139f000000000000000000000000000000000000000000000000000000007bffffffffffffffffffffffffffffffffffffffffffffffffffffffff1916827bffffffffffffffffffffffffffffffffffffffffffffffffffffffff1916145b8061317a575061317982613378565b5b9050919050565b61318c8383836133e2565b505050565b505050565b6131a083836134f4565b6131ad60008484846131f1565b6131ec576040517f08c379a00000000000000000000000000000000000000000000000000000000081526004016131e390615ad7565b60405180910390fd5b505050565b60006132128473ffffffffffffffffffffffffffffffffffffffff166136cd565b1561336b578373ffffffffffffffffffffffffffffffffffffffff1663150b7a0261323b612ab4565b8786866040518563ffffffff1660e01b815260040161325d9493929190615b4c565b6020604051808303816000875af192505050801561329957506040513d601f19601f820116820180604052508101906132969190615bad565b60015b61331b573d80600081146132c9576040519150601f19603f3d011682016040523d82523d6000602084013e6132ce565b606091505b506000815103613313576040517f08c379a000000000000000000000000000000000000000000000000000000000815260040161330a90615ad7565b60405180910390fd5b805181602001fd5b63150b7a0260e01b7bffffffffffffffffffffffffffffffffffffffffffffffffffffffff1916817bffffffffffffffffffffffffffffffffffffffffffffffffffffffff191614915050613370565b600190505b949350505050565b60007f01ffc9a7000000000000000000000000000000000000000000000000000000007bffffffffffffffffffffffffffffffffffffffffffffffffffffffff1916827bffffffffffffffffffffffffffffffffffffffffffffffffffffffff1916149050919050565b6133ed8383836136f0565b600073ffffffffffffffffffffffffffffffffffffffff168373ffffffffffffffffffffffffffffffffffffffff160361342f5761342a816136f5565b61346e565b8173ffffffffffffffffffffffffffffffffffffffff168373ffffffffffffffffffffffffffffffffffffffff161461346d5761346c838261373e565b5b5b600073ffffffffffffffffffffffffffffffffffffffff168273ffffffffffffffffffffffffffffffffffffffff16036134b0576134ab816138ab565b6134ef565b8273ffffffffffffffffffffffffffffffffffffffff168273ffffffffffffffffffffffffffffffffffffffff16146134ee576134ed828261397c565b5b5b505050565b600073ffffffffffffffffffffffffffffffffffffffff168273ffffffffffffffffffffffffffffffffffffffff1603613563576040517f08c379a000000000000000000000000000000000000000000000000000000000815260040161355a90615c26565b60405180910390fd5b61356c81612a48565b156135ac576040517f08c379a00000000000000000000000000000000000000000000000000000000081526004016135a390615c92565b60405180910390fd5b6135b860008383613181565b6001600360008473ffffffffffffffffffffffffffffffffffffffff1673ffffffffffffffffffffffffffffffffffffffff168152602001908152602001600020600082825461360891906153d7565b92505081905550816002600083815260200190815260200160002060006101000a81548173ffffffffffffffffffffffffffffffffffffffff021916908373ffffffffffffffffffffffffffffffffffffffff160217905550808273ffffffffffffffffffffffffffffffffffffffff16600073ffffffffffffffffffffffffffffffffffffffff167fddf252ad1be2c89b69c2b068fc378daa952ba7f163c4a11628f55a4df523b3ef60405160405180910390a46136c960008383613191565b5050565b6000808273ffffffffffffffffffffffffffffffffffffffff163b119050919050565b505050565b6008805490506009600083815260200190815260200160002081905550600881908060018154018082558091505060019003906000526020600020016000909190919091505550565b6000600161374b846119c6565b61375591906159c5565b905060006007600084815260200190815260200160002054905081811461383a576000600660008673ffffffffffffffffffffffffffffffffffffffff1673ffffffffffffffffffffffffffffffffffffffff168152602001908152602001600020600084815260200190815260200160002054905080600660008773ffffffffffffffffffffffffffffffffffffffff1673ffffffffffffffffffffffffffffffffffffffff168152602001908152602001600020600084815260200190815260200160002081905550816007600083815260200190815260200160002081905550505b6007600084815260200190815260200160002060009055600660008573ffffffffffffffffffffffffffffffffffffffff1673ffffffffffffffffffffffffffffffffffffffff16815260200190815260200160002060008381526020019081526020016000206000905550505050565b600060016008805490506138bf91906159c5565b90506000600960008481526020019081526020016000205490506000600883815481106138ef576138ee61540b565b5b9060005260206000200154905080600883815481106139115761391061540b565b5b9060005260206000200181905550816009600083815260200190815260200160002081905550600960008581526020019081526020016000206000905560088054806139605761395f615cb2565b5b6001900381819060005260206000200160009055905550505050565b6000613987836119c6565b905081600660008573ffffffffffffffffffffffffffffffffffffffff1673ffffffffffffffffffffffffffffffffffffffff168152602001908152602001600020600083815260200190815260200160002081905550806007600084815260200190815260200160002081905550505050565b604051806101600160405280613a0f613acd565b815260200160008152602001600073ffffffffffffffffffffffffffffffffffffffff168152602001600073ffffffffffffffffffffffffffffffffffffffff168152602001600081526020016000815260200160008152602001600015158152602001600015158152602001600015158152602001600081525090565b508054613a9990614c1e565b6000825580601f10613aab5750613aca565b601f016020900490600052602060002090810190613ac99190613b14565b5b50565b604051806101000160405280606081526020016060815260200160608152602001606081526020016060815260200160608152602001606081526020016000151581525090565b5b80821115613b2d576000816000905550600101613b15565b5090565b6000604051905090565b600080fd5b600080fd5b60007fffffffff0000000000000000000000000000000000000000000000000000000082169050919050565b613b7a81613b45565b8114613b8557600080fd5b50565b600081359050613b9781613b71565b92915050565b600060208284031215613bb357613bb2613b3b565b5b6000613bc184828501613b88565b91505092915050565b60008115159050919050565b613bdf81613bca565b82525050565b6000602082019050613bfa6000830184613bd6565b92915050565b600081519050919050565b600082825260208201905092915050565b60005b83811015613c3a578082015181840152602081019050613c1f565b60008484015250505050565b6000601f19601f8301169050919050565b6000613c6282613c00565b613c6c8185613c0b565b9350613c7c818560208601613c1c565b613c8581613c46565b840191505092915050565b60006020820190508181036000830152613caa8184613c57565b905092915050565b6000819050919050565b613cc581613cb2565b8114613cd057600080fd5b50565b600081359050613ce281613cbc565b92915050565b600060208284031215613cfe57613cfd613b3b565b5b6000613d0c84828501613cd3565b91505092915050565b600073ffffffffffffffffffffffffffffffffffffffff82169050919050565b6000613d4082613d15565b9050919050565b613d5081613d35565b82525050565b6000602082019050613d6b6000830184613d47565b92915050565b613d7a81613d35565b8114613d8557600080fd5b50565b600081359050613d9781613d71565b92915050565b60008060408385031215613db457613db3613b3b565b5b6000613dc285828601613d88565b9250506020613dd385828601613cd3565b9150509250929050565b613de681613cb2565b82525050565b6000602082019050613e016000830184613ddd565b92915050565b600080600060608486031215613e2057613e1f613b3b565b5b6000613e2e86828701613d88565b9350506020613e3f86828701613d88565b9250506040613e5086828701613cd3565b9150509250925092565b600080fd5b7f4e487b7100000000000000000000000000000000000000000000000000000000600052604160045260246000fd5b613e9782613c46565b810181811067ffffffffffffffff82111715613eb657613eb5613e5f565b5b80604052505050565b6000613ec9613b31565b9050613ed58282613e8e565b919050565b600080fd5b600080fd5b600080fd5b600067ffffffffffffffff821115613f0457613f03613e5f565b5b613f0d82613c46565b9050602081019050919050565b82818337600083830152505050565b6000613f3c613f3784613ee9565b613ebf565b905082815260208101848484011115613f5857613f57613ee4565b5b613f63848285613f1a565b509392505050565b600082601f830112613f8057613f7f613edf565b5b8135613f90848260208601613f29565b91505092915050565b613fa281613bca565b8114613fad57600080fd5b50565b600081359050613fbf81613f99565b92915050565b60006101008284031215613fdc57613fdb613e5a565b5b613fe7610100613ebf565b9050600082013567ffffffffffffffff81111561400757614006613eda565b5b61401384828501613f6b565b600083015250602082013567ffffffffffffffff81111561403757614036613eda565b5b61404384828501613f6b565b602083015250604082013567ffffffffffffffff81111561406757614066613eda565b5b61407384828501613f6b565b604083015250606082013567ffffffffffffffff81111561409757614096613eda565b5b6140a384828501613f6b565b606083015250608082013567ffffffffffffffff8111156140c7576140c6613eda565b5b6140d384828501613f6b565b60808301525060a082013567ffffffffffffffff8111156140f7576140f6613eda565b5b61410384828501613f6b565b60a08301525060c082013567ffffffffffffffff81111561412757614126613eda565b5b61413384828501613f6b565b60c08301525060e061414784828501613fb0565b60e08301525092915050565b6000806040838503121561416a57614169613b3b565b5b600083013567ffffffffffffffff81111561418857614187613b40565b5b61419485828601613fc5565b92505060206141a585828601613cd3565b9150509250929050565b600081519050919050565b600082825260208201905092915050565b6000819050602082019050919050565b600082825260208201905092915050565b60006141f782613c00565b61420181856141db565b9350614211818560208601613c1c565b61421a81613c46565b840191505092915050565b61422e81613bca565b82525050565b600061010083016000830151848203600086015261425282826141ec565b9150506020830151848203602086015261426c82826141ec565b9150506040830151848203604086015261428682826141ec565b915050606083015184820360608601526142a082826141ec565b915050608083015184820360808601526142ba82826141ec565b91505060a083015184820360a08601526142d482826141ec565b91505060c083015184820360c08601526142ee82826141ec565b91505060e083015161430360e0860182614225565b508091505092915050565b61431781613cb2565b82525050565b61432681613d35565b82525050565b600061016083016000830151848203600086015261434a8282614234565b915050602083015161435f602086018261430e565b506040830151614372604086018261431d565b506060830151614385606086018261431d565b506080830151614398608086018261430e565b5060a08301516143ab60a086018261430e565b5060c08301516143be60c086018261430e565b5060e08301516143d160e0860182614225565b506101008301516143e6610100860182614225565b506101208301516143fb610120860182614225565b5061014083015161441061014086018261430e565b508091505092915050565b6000614427838361432c565b905092915050565b6000602082019050919050565b6000614447826141af565b61445181856141ba565b935083602082028501614463856141cb565b8060005b8581101561449f5784840389528151614480858261441b565b945061448b8361442f565b925060208a01995050600181019050614467565b50829750879550505050505092915050565b600060208201905081810360008301526144cb818461443c565b905092915050565b600080600080600080600060e0888a0312156144f2576144f1613b3b565b5b60006145008a828b01613cd3565b97505060206145118a828b01613d88565b96505060406145228a828b01613cd3565b95505060606145338a828b01613fb0565b94505060806145448a828b01613fb0565b93505060a06145558a828b01613fb0565b92505060c06145668a828b01613fb0565b91505092959891949750929550565b60006020828403121561458b5761458a613b3b565b5b600061459984828501613d88565b91505092915050565b600067ffffffffffffffff8211156145bd576145bc613e5f565b5b602082029050602081019050919050565b600080fd5b60006145e66145e1846145a2565b613ebf565b90508083825260208201905060208402830185811115614609576146086145ce565b5b835b81811015614632578061461e8882613cd3565b84526020840193505060208101905061460b565b5050509392505050565b600082601f83011261465157614650613edf565b5b81356146618482602086016145d3565b91505092915050565b6000602082840312156146805761467f613b3b565b5b600082013567ffffffffffffffff81111561469e5761469d613b40565b5b6146aa8482850161463c565b91505092915050565b600080604083850312156146ca576146c9613b3b565b5b60006146d885828601613d88565b92505060206146e985828601613fb0565b9150509250929050565b600067ffffffffffffffff82111561470e5761470d613e5f565b5b61471782613c46565b9050602081019050919050565b6000614737614732846146f3565b613ebf565b90508281526020810184848401111561475357614752613ee4565b5b61475e848285613f1a565b509392505050565b600082601f83011261477b5761477a613edf565b5b813561478b848260208601614724565b91505092915050565b600080600080608085870312156147ae576147ad613b3b565b5b60006147bc87828801613d88565b94505060206147cd87828801613d88565b93505060406147de87828801613cd3565b925050606085013567ffffffffffffffff8111156147ff576147fe613b40565b5b61480b87828801614766565b91505092959194509250565b600081519050919050565b600082825260208201905092915050565b6000819050602082019050919050565b600061484f838361430e565b60208301905092915050565b6000602082019050919050565b600061487382614817565b61487d8185614822565b935061488883614833565b8060005b838110156148b95781516148a08882614843565b97506148ab8361485b565b92505060018101905061488c565b5085935050505092915050565b600060608201905081810360008301526148e08186614868565b905081810360208301526148f48185614868565b905081810360408301526149088184614868565b9050949350505050565b6000806040838503121561492957614928613b3b565b5b600061493785828601613d88565b925050602061494885828601613d88565b9150509250929050565b600061010083016000830151848203600086015261497082826141ec565b9150506020830151848203602086015261498a82826141ec565b915050604083015184820360408601526149a482826141ec565b915050606083015184820360608601526149be82826141ec565b915050608083015184820360808601526149d882826141ec565b91505060a083015184820360a08601526149f282826141ec565b91505060c083015184820360c0860152614a0c82826141ec565b91505060e0830151614a2160e0860182614225565b508091505092915050565b6000610160820190508181036000830152614a47818e614952565b9050614a56602083018d613ddd565b614a63604083018c613d47565b614a70606083018b613d47565b614a7d608083018a613ddd565b614a8a60a0830189613ddd565b614a9760c0830188613ddd565b614aa460e0830187613bd6565b614ab2610100830186613bd6565b614ac0610120830185613bd6565b614ace610140830184613ddd565b9c9b505050505050505050505050565b6000610160830160008301518482036000860152614afc8282614234565b9150506020830151614b11602086018261430e565b506040830151614b24604086018261431d565b506060830151614b37606086018261431d565b506080830151614b4a608086018261430e565b5060a0830151614b5d60a086018261430e565b5060c0830151614b7060c086018261430e565b5060e0830151614b8360e0860182614225565b50610100830151614b98610100860182614225565b50610120830151614bad610120860182614225565b50610140830151614bc261014086018261430e565b508091505092915050565b60006020820190508181036000830152614be78184614ade565b905092915050565b7f4e487b7100000000000000000000000000000000000000000000000000000000600052602260045260246000fd5b60006002820490506001821680614c3657607f821691505b602082108103614c4957614c48614bef565b5b50919050565b7f4552433732313a20617070726f76656420717565727920666f72206e6f6e657860008201527f697374656e7420746f6b656e0000000000000000000000000000000000000000602082015250565b6000614cab602c83613c0b565b9150614cb682614c4f565b604082019050919050565b60006020820190508181036000830152614cda81614c9e565b9050919050565b7f4552433732313a20617070726f76616c20746f2063757272656e74206f776e6560008201527f7200000000000000000000000000000000000000000000000000000000000000602082015250565b6000614d3d602183613c0b565b9150614d4882614ce1565b604082019050919050565b60006020820190508181036000830152614d6c81614d30565b9050919050565b7f4552433732313a20617070726f76652063616c6c6572206973206e6f74206f7760008201527f6e6572206e6f7220617070726f76656420666f7220616c6c0000000000000000602082015250565b6000614dcf603883613c0b565b9150614dda82614d73565b604082019050919050565b60006020820190508181036000830152614dfe81614dc2565b9050919050565b7f4552433732313a207472616e736665722063616c6c6572206973206e6f74206f60008201527f776e6572206e6f7220617070726f766564000000000000000000000000000000602082015250565b6000614e61603183613c0b565b9150614e6c82614e05565b604082019050919050565b60006020820190508181036000830152614e9081614e54565b9050919050565b7f455243373231456e756d657261626c653a206f776e657220696e646578206f7560008201527f74206f6620626f756e6473000000000000000000000000000000000000000000602082015250565b6000614ef3602b83613c0b565b9150614efe82614e97565b604082019050919050565b60006020820190508181036000830152614f2281614ee6565b9050919050565b7f4572726f72000000000000000000000000000000000000000000000000000000600082015250565b6000614f5f600583613c0b565b9150614f6a82614f29565b602082019050919050565b60006020820190508181036000830152614f8e81614f52565b9050919050565b7f4e487b7100000000000000000000000000000000000000000000000000000000600052601160045260246000fd5b6000614fcf82613cb2565b91507fffffffffffffffffffffffffffffffffffffffffffffffffffffffffffffffff820361500157615000614f95565b5b600182019050919050565b60008190508160005260206000209050919050565b60006020601f8301049050919050565b600082821b905092915050565b60006008830261506e7fffffffffffffffffffffffffffffffffffffffffffffffffffffffffffffffff82615031565b6150788683615031565b95508019841693508086168417925050509392505050565b6000819050919050565b60006150b56150b06150ab84613cb2565b615090565b613cb2565b9050919050565b6000819050919050565b6150cf8361509a565b6150e36150db826150bc565b84845461503e565b825550505050565b600090565b6150f86150eb565b6151038184846150c6565b505050565b5b818110156151275761511c6000826150f0565b600181019050615109565b5050565b601f82111561516c5761513d8161500c565b61514684615021565b81016020851015615155578190505b61516961516185615021565b830182615108565b50505b505050565b600082821c905092915050565b600061518f60001984600802615171565b1980831691505092915050565b60006151a8838361517e565b9150826002028217905092915050565b6151c182613c00565b67ffffffffffffffff8111156151da576151d9613e5f565b5b6151e48254614c1e565b6151ef82828561512b565b600060209050601f8311600181146152225760008415615210578287015190505b61521a858261519c565b865550615282565b601f1984166152308661500c565b60005b8281101561525857848901518255600182019150602085019450602081019050615233565b868310156152755784890151615271601f89168261517e565b8355505b6001600288020188555050505b505050505050565b6000819050919050565b60006152af6152aa6152a58461528a565b615090565b613cb2565b9050919050565b6152bf81615294565b82525050565b60006080820190506152da6000830187613ddd565b6152e76020830186613d47565b6152f46040830185613d47565b61530160608301846152b6565b95945050505050565b600060408201905061531f6000830185613d47565b61532c6020830184613ddd565b9392505050565b7f4d696e74204e465420546f6b656e000000000000000000000000000000000000600082015250565b6000615369600e83613c0b565b915061537482615333565b602082019050919050565b600060a0820190506153946000830187613d47565b6153a160208301866152b6565b6153ae6040830185613ddd565b6153bb6060830184613ddd565b81810360808301526153cc8161535c565b905095945050505050565b60006153e282613cb2565b91506153ed83613cb2565b925082820190508082111561540557615404614f95565b5b92915050565b7f4e487b7100000000000000000000000000000000000000000000000000000000600052603260045260246000fd5b7f455243373231456e756d657261626c653a20676c6f62616c20696e646578206f60008201527f7574206f6620626f756e64730000000000000000000000000000000000000000602082015250565b6000615496602c83613c0b565b91506154a18261543a565b604082019050919050565b600060208201905081810360008301526154c581615489565b9050919050565b60006040820190506154e16000830185613ddd565b6154ee6020830184613bd6565b9392505050565b7f4552433732313a206f776e657220717565727920666f72206e6f6e657869737460008201527f656e7420746f6b656e0000000000000000000000000000000000000000000000602082015250565b6000615551602983613c0b565b915061555c826154f5565b604082019050919050565b6000602082019050818103600083015261558081615544565b9050919050565b7f4552433732313a2062616c616e636520717565727920666f7220746865207a6560008201527f726f206164647265737300000000000000000000000000000000000000000000602082015250565b60006155e3602a83613c0b565b91506155ee82615587565b604082019050919050565b60006020820190508181036000830152615612816155d6565b9050919050565b600060608201905061562e6000830186613d47565b61563b6020830185613d47565b6156486040830184613ddd565b949350505050565b60008151905061565f81613cbc565b92915050565b6000615678615673846145a2565b613ebf565b9050808382526020820190506020840283018581111561569b5761569a6145ce565b5b835b818110156156c457806156b08882615650565b84526020840193505060208101905061569d565b5050509392505050565b600082601f8301126156e3576156e2613edf565b5b81516156f3848260208601615665565b91505092915050565b60008060006060848603121561571557615714613b3b565b5b600084015167ffffffffffffffff81111561573357615732613b40565b5b61573f868287016156ce565b935050602084015167ffffffffffffffff8111156157605761575f613b40565b5b61576c868287016156ce565b925050604084015167ffffffffffffffff81111561578d5761578c613b40565b5b615799868287016156ce565b9150509250925092565b7f546f6b656e206964206e6f7420666f756e642100000000000000000000000000600082015250565b60006157d9601383613c0b565b91506157e4826157a3565b602082019050919050565b60006020820190508181036000830152615808816157cc565b9050919050565b7f4552433732313a206f70657261746f7220717565727920666f72206e6f6e657860008201527f697374656e7420746f6b656e0000000000000000000000000000000000000000602082015250565b600061586b602c83613c0b565b91506158768261580f565b604082019050919050565b6000602082019050818103600083015261589a8161585e565b9050919050565b7f4552433732313a207472616e736665722066726f6d20696e636f72726563742060008201527f6f776e6572000000000000000000000000000000000000000000000000000000602082015250565b60006158fd602583613c0b565b9150615908826158a1565b604082019050919050565b6000602082019050818103600083015261592c816158f0565b9050919050565b7f4552433732313a207472616e7366657220746f20746865207a65726f2061646460008201527f7265737300000000000000000000000000000000000000000000000000000000602082015250565b600061598f602483613c0b565b915061599a82615933565b604082019050919050565b600060208201905081810360008301526159be81615982565b9050919050565b60006159d082613cb2565b91506159db83613cb2565b92508282039050818111156159f3576159f2614f95565b5b92915050565b7f4552433732313a20617070726f766520746f2063616c6c657200000000000000600082015250565b6000615a2f601983613c0b565b9150615a3a826159f9565b602082019050919050565b60006020820190508181036000830152615a5e81615a22565b9050919050565b7f4552433732313a207472616e7366657220746f206e6f6e20455243373231526560008201527f63656976657220696d706c656d656e7465720000000000000000000000000000602082015250565b6000615ac1603283613c0b565b9150615acc82615a65565b604082019050919050565b60006020820190508181036000830152615af081615ab4565b9050919050565b600081519050919050565b600082825260208201905092915050565b6000615b1e82615af7565b615b288185615b02565b9350615b38818560208601613c1c565b615b4181613c46565b840191505092915050565b6000608082019050615b616000830187613d47565b615b6e6020830186613d47565b615b7b6040830185613ddd565b8181036060830152615b8d8184615b13565b905095945050505050565b600081519050615ba781613b71565b92915050565b600060208284031215615bc357615bc2613b3b565b5b6000615bd184828501615b98565b91505092915050565b7f4552433732313a206d696e7420746f20746865207a65726f2061646472657373600082015250565b6000615c10602083613c0b565b9150615c1b82615bda565b602082019050919050565b60006020820190508181036000830152615c3f81615c03565b9050919050565b7f4552433732313a20746f6b656e20616c7265616479206d696e74656400000000600082015250565b6000615c7c601c83613c0b565b9150615c8782615c46565b602082019050919050565b60006020820190508181036000830152615cab81615c6f565b9050919050565b7f4e487b7100000000000000000000000000000000000000000000000000000000600052603160045260246000fdfea2646970667358221220ee0b9deabe934c6cbe9de025c743773503eaea6429eb72760cb2ce741ee6943964736f6c63430008130033",
  "immutableReferences": {},
  "source": "// SPDX-License-Identifier: MIT\npragma solidity >=0.4.17 <8.10.0;\n\nimport \"./NFTAnalytics.sol\";\nimport \"../client/node_modules/@openzeppelin/contracts/token/ERC721/ERC721.sol\";\nimport \"../client/node_modules/@openzeppelin/contracts/token/ERC721/extensions/ERC721Enumerable.sol\";\n\ncontract Collectible is ERC721, ERC721Enumerable {\n\n  struct Token{\n    MetaData data;\n    uint _id;\n    address _creator;\n    address _owner;\n    uint256 _price;\n    uint256 royalties;\n    uint256 _commission;\n    bool _promoted;\n    bool approved; \n    bool in_auction;\n    uint _time;\n  }\n\n  struct MetaData{\n    string name;\n    string description;\n    string image;\n    string category;\n    string unlockable;\n    string _type;\n    string formate;\n    bool _offer;\n  }\n\n  modifier whitelist() {\n    require(analysis.member(msg.sender) || msg.sender == owner, \"error 1\");\n    _;\n  }\n\n  address owner;\n  uint256 public commission;\n  uint256 public mintCount;\n  uint256 public approvalLimit;\n  mapping(uint => string) tokenToURI;\n  mapping(address => uint) public approveCount;\n  mapping(uint256 => Token) public tokenDetails;\n\n  NFTAnalytics analysis;\n\n  constructor(string memory _name, string memory _symbol, uint256 _commission, address _analysis) ERC721(_name, _symbol) {\n    commission = _commission;\n    analysis = NFTAnalytics(_analysis);\n    owner = msg.sender;\n    approvalLimit = 50;\n  }\n\n\n  function tokenURI(uint256 tokenId) public override view returns (string memory) {\n    require(_exists(tokenId), 'Token id not found!');\n    return tokenToURI[tokenId];\n  }\n\n  function MintNFT(MetaData memory _data, uint256 _royality) public {\n    address sender = msg.sender;\n    uint time = block.timestamp;\n    require(approveCount[sender] <= approvalLimit, 'Error');\n    mintCount++;\n    approveCount[sender]++;\n    tokenToURI[mintCount] = _data.image;\n    _safeMint(sender, mintCount);\n    analysis.setNFTTransactions(mintCount, sender, address(0), 0);\n    analysis.newToken(sender, mintCount);\n    analysis.addToken(sender, mintCount);\n    tokenDetails[mintCount] = Token(_data, mintCount, sender, sender, 0, _royality, commission, false, false, false, time);\n    analysis.setActivity(sender, 0, _royality, commission, \"Mint NFT Token\");\n  }\n\n  function getCollections() public view returns(Token[] memory _tokens){\n    uint n = mintCount;\n    _tokens = new Token[](n);\n    for (uint256 i = 0; i < n; i++) {\n      uint index = i + 1; \n      _tokens[i] = tokenDetails[index];\n    }\n  }\n\n  function updateCollect(address _old, address _new, uint256 _id)public {\n      analysis.updateCollect(_old, _new, _id);\n  }\n\n  function getCollect(address _address) public view returns(uint256[] memory, uint256[] memory, uint256[] memory){\n        return  analysis.getCollect(_address);\n  }\n  function updateToken(uint _id, address _owner, uint _price, bool _promoted, bool _approved, bool inAuction, bool offer) external {\n        Token storage token = tokenDetails[_id];\n        token._owner = _owner;\n        token._price = _price;\n        token._promoted = _promoted;\n        token.approved = _approved;\n        token.in_auction = inAuction;\n        token.data._offer =  offer;\n        analysis.updateOffer(_id, offer);\n  }\n\n  function getAuctionMetaData(uint _id) public view returns(Token memory _token){\n    _token = tokenDetails[_id];\n  }\n\n  function setApprovalLimit(uint256 _amount) public{\n    approvalLimit = _amount;\n  }\n\n  function supportsInterface(bytes4 _interface) public view override(ERC721, ERC721Enumerable) returns (bool) {\n    return super.supportsInterface(_interface);\n  }\n  function _beforeTokenTransfer(address _from, address _to, uint256 _id) internal override(ERC721, ERC721Enumerable) {\n    super._beforeTokenTransfer(_from, _to, _id);\n  }\n\n  function unwanted(uint256[] memory _ids) public{\n    uint n = _ids.length;\n      for (uint256 i = 0; i < n; i++) {\n        uint x = _ids[i];\n        rmToken(x);\n        analysis.unwanted(x);\n      }\n  }\n  \n  function rmToken(uint id) public{\n      delete tokenDetails[id];\n  }\n\n}",
  "sourcePath": "/Users/ruby/Documents/MetaMusik/MetaMusikMarket/MetaMusikMarket/contracts/Collectible.sol",
  "compiler": {
    "name": "solc",
    "version": "0.8.19+commit.7dd6d404.Emscripten.clang"
  },
  "schemaVersion": "3.4.13",
  "updatedAt": "2023-04-04T13:13:05.556Z",
  "networkType": "ethereum",
  "devdoc": {
    "events": {
      "Approval(address,address,uint256)": {
        "details": "Emitted when `owner` enables `approved` to manage the `tokenId` token."
      },
      "ApprovalForAll(address,address,bool)": {
        "details": "Emitted when `owner` enables or disables (`approved`) `operator` to manage all of its assets."
      },
      "Transfer(address,address,uint256)": {
        "details": "Emitted when `tokenId` token is transferred from `from` to `to`."
      }
    },
    "kind": "dev",
    "methods": {
      "approve(address,uint256)": {
        "details": "See {IERC721-approve}."
      },
      "balanceOf(address)": {
        "details": "See {IERC721-balanceOf}."
      },
      "getApproved(uint256)": {
        "details": "See {IERC721-getApproved}."
      },
      "isApprovedForAll(address,address)": {
        "details": "See {IERC721-isApprovedForAll}."
      },
      "name()": {
        "details": "See {IERC721Metadata-name}."
      },
      "ownerOf(uint256)": {
        "details": "See {IERC721-ownerOf}."
      },
      "safeTransferFrom(address,address,uint256)": {
        "details": "See {IERC721-safeTransferFrom}."
      },
      "safeTransferFrom(address,address,uint256,bytes)": {
        "details": "See {IERC721-safeTransferFrom}."
      },
      "setApprovalForAll(address,bool)": {
        "details": "See {IERC721-setApprovalForAll}."
      },
      "symbol()": {
        "details": "See {IERC721Metadata-symbol}."
      },
      "tokenByIndex(uint256)": {
        "details": "See {IERC721Enumerable-tokenByIndex}."
      },
      "tokenOfOwnerByIndex(address,uint256)": {
        "details": "See {IERC721Enumerable-tokenOfOwnerByIndex}."
      },
      "tokenURI(uint256)": {
        "details": "See {IERC721Metadata-tokenURI}."
      },
      "totalSupply()": {
        "details": "See {IERC721Enumerable-totalSupply}."
      },
      "transferFrom(address,address,uint256)": {
        "details": "See {IERC721-transferFrom}."
      }
    },
    "version": 1
  },
  "userdoc": {
    "kind": "user",
    "methods": {},
    "version": 1
  }
}