{
  "contractName": "NFTAnalytics",
  "abi": [
    {
      "inputs": [
        {
          "internalType": "address",
          "name": "_user",
          "type": "address"
        }
      ],
      "stateMutability": "nonpayable",
      "type": "constructor"
    },
    {
      "inputs": [
        {
          "internalType": "address",
          "name": "",
          "type": "address"
        },
        {
          "internalType": "uint256",
          "name": "",
          "type": "uint256"
        }
      ],
      "name": "collections",
      "outputs": [
        {
          "internalType": "uint256",
          "name": "",
          "type": "uint256"
        }
      ],
      "stateMutability": "view",
      "type": "function",
      "constant": true
    },
    {
      "inputs": [
        {
          "internalType": "address",
          "name": "",
          "type": "address"
        },
        {
          "internalType": "uint256",
          "name": "",
          "type": "uint256"
        }
      ],
      "name": "creations",
      "outputs": [
        {
          "internalType": "uint256",
          "name": "",
          "type": "uint256"
        }
      ],
      "stateMutability": "view",
      "type": "function",
      "constant": true
    },
    {
      "inputs": [
        {
          "internalType": "uint256",
          "name": "",
          "type": "uint256"
        },
        {
          "internalType": "uint256",
          "name": "",
          "type": "uint256"
        }
      ],
      "name": "nftTransactions",
      "outputs": [
        {
          "components": [
            {
              "internalType": "address",
              "name": "_address",
              "type": "address"
            },
            {
              "internalType": "string",
              "name": "_name",
              "type": "string"
            },
            {
              "internalType": "string",
              "name": "_avatar",
              "type": "string"
            }
          ],
          "internalType": "struct NFTAnalytics.Sender",
          "name": "from",
          "type": "tuple"
        },
        {
          "components": [
            {
              "internalType": "address",
              "name": "_address",
              "type": "address"
            },
            {
              "internalType": "string",
              "name": "_name",
              "type": "string"
            },
            {
              "internalType": "string",
              "name": "_avatar",
              "type": "string"
            }
          ],
          "internalType": "struct NFTAnalytics.Sender",
          "name": "to",
          "type": "tuple"
        },
        {
          "internalType": "uint256",
          "name": "time",
          "type": "uint256"
        },
        {
          "internalType": "uint256",
          "name": "price",
          "type": "uint256"
        }
      ],
      "stateMutability": "view",
      "type": "function",
      "constant": true
    },
    {
      "inputs": [
        {
          "internalType": "uint256",
          "name": "",
          "type": "uint256"
        }
      ],
      "name": "offers",
      "outputs": [
        {
          "internalType": "bool",
          "name": "",
          "type": "bool"
        }
      ],
      "stateMutability": "view",
      "type": "function",
      "constant": true
    },
    {
      "inputs": [
        {
          "internalType": "address",
          "name": "",
          "type": "address"
        },
        {
          "internalType": "uint256",
          "name": "",
          "type": "uint256"
        }
      ],
      "name": "removedCollections",
      "outputs": [
        {
          "internalType": "uint256",
          "name": "",
          "type": "uint256"
        }
      ],
      "stateMutability": "view",
      "type": "function",
      "constant": true
    },
    {
      "inputs": [
        {
          "internalType": "uint256",
          "name": "",
          "type": "uint256"
        }
      ],
      "name": "transactions",
      "outputs": [
        {
          "components": [
            {
              "internalType": "address",
              "name": "_address",
              "type": "address"
            },
            {
              "internalType": "string",
              "name": "_name",
              "type": "string"
            },
            {
              "internalType": "string",
              "name": "_avatar",
              "type": "string"
            }
          ],
          "internalType": "struct NFTAnalytics.Sender",
          "name": "_from",
          "type": "tuple"
        },
        {
          "components": [
            {
              "internalType": "address",
              "name": "_address",
              "type": "address"
            },
            {
              "internalType": "string",
              "name": "_name",
              "type": "string"
            },
            {
              "internalType": "string",
              "name": "_avatar",
              "type": "string"
            }
          ],
          "internalType": "struct NFTAnalytics.Sender",
          "name": "_to",
          "type": "tuple"
        },
        {
          "internalType": "uint256",
          "name": "_id",
          "type": "uint256"
        },
        {
          "internalType": "uint256",
          "name": "_price",
          "type": "uint256"
        },
        {
          "internalType": "uint256",
          "name": "_time",
          "type": "uint256"
        }
      ],
      "stateMutability": "view",
      "type": "function",
      "constant": true
    },
    {
      "inputs": [
        {
          "internalType": "uint256",
          "name": "_id",
          "type": "uint256"
        },
        {
          "internalType": "address",
          "name": "_from",
          "type": "address"
        },
        {
          "internalType": "address",
          "name": "_to",
          "type": "address"
        },
        {
          "internalType": "uint256",
          "name": "_price",
          "type": "uint256"
        }
      ],
      "name": "setNFTTransactions",
      "outputs": [],
      "stateMutability": "nonpayable",
      "type": "function"
    },
    {
      "inputs": [
        {
          "internalType": "uint256",
          "name": "_id",
          "type": "uint256"
        }
      ],
      "name": "getNFTTransactions",
      "outputs": [
        {
          "components": [
            {
              "components": [
                {
                  "internalType": "address",
                  "name": "_address",
                  "type": "address"
                },
                {
                  "internalType": "string",
                  "name": "_name",
                  "type": "string"
                },
                {
                  "internalType": "string",
                  "name": "_avatar",
                  "type": "string"
                }
              ],
              "internalType": "struct NFTAnalytics.Sender",
              "name": "from",
              "type": "tuple"
            },
            {
              "components": [
                {
                  "internalType": "address",
                  "name": "_address",
                  "type": "address"
                },
                {
                  "internalType": "string",
                  "name": "_name",
                  "type": "string"
                },
                {
                  "internalType": "string",
                  "name": "_avatar",
                  "type": "string"
                }
              ],
              "internalType": "struct NFTAnalytics.Sender",
              "name": "to",
              "type": "tuple"
            },
            {
              "internalType": "uint256",
              "name": "time",
              "type": "uint256"
            },
            {
              "internalType": "uint256",
              "name": "price",
              "type": "uint256"
            }
          ],
          "internalType": "struct NFTAnalytics.NFTTransactions[]",
          "name": "",
          "type": "tuple[]"
        }
      ],
      "stateMutability": "view",
      "type": "function",
      "constant": true
    },
    {
      "inputs": [
        {
          "internalType": "uint256",
          "name": "_id",
          "type": "uint256"
        },
        {
          "internalType": "address",
          "name": "_from",
          "type": "address"
        },
        {
          "internalType": "address",
          "name": "_to",
          "type": "address"
        },
        {
          "internalType": "uint256",
          "name": "_price",
          "type": "uint256"
        }
      ],
      "name": "setTransaction",
      "outputs": [],
      "stateMutability": "nonpayable",
      "type": "function"
    },
    {
      "inputs": [],
      "name": "get_transactions",
      "outputs": [
        {
          "components": [
            {
              "components": [
                {
                  "internalType": "address",
                  "name": "_address",
                  "type": "address"
                },
                {
                  "internalType": "string",
                  "name": "_name",
                  "type": "string"
                },
                {
                  "internalType": "string",
                  "name": "_avatar",
                  "type": "string"
                }
              ],
              "internalType": "struct NFTAnalytics.Sender",
              "name": "_from",
              "type": "tuple"
            },
            {
              "components": [
                {
                  "internalType": "address",
                  "name": "_address",
                  "type": "address"
                },
                {
                  "internalType": "string",
                  "name": "_name",
                  "type": "string"
                },
                {
                  "internalType": "string",
                  "name": "_avatar",
                  "type": "string"
                }
              ],
              "internalType": "struct NFTAnalytics.Sender",
              "name": "_to",
              "type": "tuple"
            },
            {
              "internalType": "uint256",
              "name": "_id",
              "type": "uint256"
            },
            {
              "internalType": "uint256",
              "name": "_price",
              "type": "uint256"
            },
            {
              "internalType": "uint256",
              "name": "_time",
              "type": "uint256"
            }
          ],
          "internalType": "struct NFTAnalytics.Transaction[]",
          "name": "",
          "type": "tuple[]"
        }
      ],
      "stateMutability": "view",
      "type": "function",
      "constant": true
    },
    {
      "inputs": [
        {
          "internalType": "uint256",
          "name": "_id",
          "type": "uint256"
        }
      ],
      "name": "removeTransaction",
      "outputs": [],
      "stateMutability": "nonpayable",
      "type": "function"
    },
    {
      "inputs": [
        {
          "internalType": "address",
          "name": "_address",
          "type": "address"
        },
        {
          "internalType": "uint256",
          "name": "_price",
          "type": "uint256"
        },
        {
          "internalType": "uint256",
          "name": "_royality",
          "type": "uint256"
        },
        {
          "internalType": "uint256",
          "name": "_commission",
          "type": "uint256"
        },
        {
          "internalType": "string",
          "name": "_status",
          "type": "string"
        }
      ],
      "name": "setActivity",
      "outputs": [],
      "stateMutability": "nonpayable",
      "type": "function"
    },
    {
      "inputs": [
        {
          "internalType": "address",
          "name": "_address",
          "type": "address"
        }
      ],
      "name": "member",
      "outputs": [
        {
          "internalType": "bool",
          "name": "",
          "type": "bool"
        }
      ],
      "stateMutability": "view",
      "type": "function",
      "constant": true
    },
    {
      "inputs": [
        {
          "internalType": "uint256",
          "name": "id",
          "type": "uint256"
        }
      ],
      "name": "setOffer",
      "outputs": [],
      "stateMutability": "nonpayable",
      "type": "function"
    },
    {
      "inputs": [
        {
          "internalType": "uint256",
          "name": "id",
          "type": "uint256"
        },
        {
          "internalType": "bool",
          "name": "offer",
          "type": "bool"
        }
      ],
      "name": "updateOffer",
      "outputs": [],
      "stateMutability": "nonpayable",
      "type": "function"
    },
    {
      "inputs": [
        {
          "internalType": "uint256",
          "name": "id",
          "type": "uint256"
        }
      ],
      "name": "unwanted",
      "outputs": [],
      "stateMutability": "nonpayable",
      "type": "function"
    },
    {
      "inputs": [
        {
          "internalType": "address",
          "name": "sender",
          "type": "address"
        },
        {
          "internalType": "uint256",
          "name": "id",
          "type": "uint256"
        }
      ],
      "name": "newToken",
      "outputs": [],
      "stateMutability": "nonpayable",
      "type": "function"
    },
    {
      "inputs": [
        {
          "internalType": "address",
          "name": "sender",
          "type": "address"
        },
        {
          "internalType": "uint256",
          "name": "id",
          "type": "uint256"
        }
      ],
      "name": "addToken",
      "outputs": [],
      "stateMutability": "nonpayable",
      "type": "function"
    },
    {
      "inputs": [
        {
          "internalType": "address",
          "name": "_old",
          "type": "address"
        },
        {
          "internalType": "address",
          "name": "_new",
          "type": "address"
        },
        {
          "internalType": "uint256",
          "name": "_id",
          "type": "uint256"
        }
      ],
      "name": "updateCollect",
      "outputs": [],
      "stateMutability": "nonpayable",
      "type": "function"
    },
    {
      "inputs": [
        {
          "internalType": "address",
          "name": "_address",
          "type": "address"
        }
      ],
      "name": "getCollect",
      "outputs": [
        {
          "internalType": "uint256[]",
          "name": "",
          "type": "uint256[]"
        },
        {
          "internalType": "uint256[]",
          "name": "",
          "type": "uint256[]"
        },
        {
          "internalType": "uint256[]",
          "name": "",
          "type": "uint256[]"
        }
      ],
      "stateMutability": "view",
      "type": "function",
      "constant": true
    }
  ],
  "bytecode": "0x60806040523480156200001157600080fd5b5060405162003354380380620033548339818101604052810190620000379190620000e8565b806000806101000a81548173ffffffffffffffffffffffffffffffffffffffff021916908373ffffffffffffffffffffffffffffffffffffffff160217905550506200011a565b600080fd5b600073ffffffffffffffffffffffffffffffffffffffff82169050919050565b6000620000b08262000083565b9050919050565b620000c281620000a3565b8114620000ce57600080fd5b50565b600081519050620000e281620000b7565b92915050565b6000602082840312156200010157620001006200007e565b5b60006200011184828501620000d1565b91505092915050565b61322a806200012a6000396000f3fe608060405234801561001057600080fd5b506004361061012c5760003560e01c80639673d61e116100ad578063b7c2f3a711610071578063b7c2f3a714610368578063c2889a3314610384578063e7d4539e146103b6578063fd17c3a4146103e6578063fe813408146104025761012c565b80639673d61e1461029c5780639ace38c2146102b8578063a7386430146102ec578063af81c5b91461031c578063b1b286a7146103385761012c565b806349a764cd116100f457806349a764cd146101e85780634d0951d314610218578063594a2ade1461023457806364c9fb67146102505780638a72ea6a1461026c5761012c565b80630bc62de6146101315780632cdf4b7e146101645780633040d6911461018057806343c9d175146101b057806346c3bd1f146101cc575b600080fd5b61014b60048036038101906101469190612020565b610420565b60405161015b9493929190612197565b60405180910390f35b61017e600480360381019061017991906121ea565b610775565b005b61019a60048036038101906101959190612243565b6107a4565b6040516101a79190612283565b60405180910390f35b6101ca60048036038101906101c591906122d6565b6107d5565b005b6101e660048036038101906101e191906121ea565b610804565b005b61020260048036038101906101fd9190612243565b610931565b60405161020f9190612283565b60405180910390f35b610232600480360381019061022d91906121ea565b610962565b005b61024e60048036038101906102499190612243565b61098d565b005b61026a60048036038101906102659190612316565b6109f7565b005b610286600480360381019061028191906121ea565b610b81565b604051610293919061238c565b60405180910390f35b6102b660048036038101906102b191906123a7565b610ba1565b005b6102d260048036038101906102cd91906121ea565b610c72565b6040516102e39594939291906123fa565b60405180910390f35b610306600480360381019061030191906121ea565b610fc0565b60405161031391906125ed565b60405180910390f35b61033660048036038101906103319190612243565b611362565b005b610352600480360381019061034d9190612243565b6113cc565b60405161035f9190612283565b60405180910390f35b610382600480360381019061037d9190612744565b6113fd565b005b61039e600480360381019061039991906127db565b611497565b6040516103ad939291906128b7565b60405180910390f35b6103d060048036038101906103cb91906127db565b61165c565b6040516103dd919061238c565b60405180910390f35b61040060048036038101906103fb9190612316565b611700565b005b61040a61188b565b6040516104179190612a42565b60405180910390f35b6006602052816000526040600020818154811061043c57600080fd5b906000526020600020906008020160009150915050806000016040518060600160405290816000820160009054906101000a900473ffffffffffffffffffffffffffffffffffffffff1673ffffffffffffffffffffffffffffffffffffffff1673ffffffffffffffffffffffffffffffffffffffff1681526020016001820180546104c690612a93565b80601f01602080910402602001604051908101604052809291908181526020018280546104f290612a93565b801561053f5780601f106105145761010080835404028352916020019161053f565b820191906000526020600020905b81548152906001019060200180831161052257829003601f168201915b5050505050815260200160028201805461055890612a93565b80601f016020809104026020016040519081016040528092919081815260200182805461058490612a93565b80156105d15780601f106105a6576101008083540402835291602001916105d1565b820191906000526020600020905b8154815290600101906020018083116105b457829003601f168201915b50505050508152505090806003016040518060600160405290816000820160009054906101000a900473ffffffffffffffffffffffffffffffffffffffff1673ffffffffffffffffffffffffffffffffffffffff1673ffffffffffffffffffffffffffffffffffffffff16815260200160018201805461065090612a93565b80601f016020809104026020016040519081016040528092919081815260200182805461067c90612a93565b80156106c95780601f1061069e576101008083540402835291602001916106c9565b820191906000526020600020905b8154815290600101906020018083116106ac57829003601f168201915b505050505081526020016002820180546106e290612a93565b80601f016020809104026020016040519081016040528092919081815260200182805461070e90612a93565b801561075b5780601f106107305761010080835404028352916020019161075b565b820191906000526020600020905b81548152906001019060200180831161073e57829003601f168201915b505050505081525050908060060154908060070154905084565b60016002600083815260200190815260200160002060006101000a81548160ff02191690831515021790555050565b600560205281600052604060002081815481106107c057600080fd5b90600052602060002001600091509150505481565b806002600084815260200190815260200160002060006101000a81548160ff0219169083151502179055505050565b60005b60018054905081101561092d57816001828154811061082957610828612ac4565b5b9060005260206000209060090201600601540361091a576001818154811061085457610853612ac4565b5b90600052602060002090600902016000808201600080820160006101000a81549073ffffffffffffffffffffffffffffffffffffffff021916905560018201600061089f9190611e20565b6002820160006108af9190611e20565b505060038201600080820160006101000a81549073ffffffffffffffffffffffffffffffffffffffff02191690556001820160006108ed9190611e20565b6002820160006108fd9190611e20565b505060068201600090556007820160009055600882016000905550505b808061092590612b22565b915050610807565b5050565b6004602052816000526040600020818154811061094d57600080fd5b90600052602060002001600091509150505481565b6006600082815260200190815260200160002060006109819190611e60565b61098a81610804565b50565b600360008373ffffffffffffffffffffffffffffffffffffffff1673ffffffffffffffffffffffffffffffffffffffff1681526020019081526020016000208190806001815401808255809150506001900390600052602060002001600090919091909150555050565b60006040518060a00160405280610a0d86611c9b565b8152602001610a1b85611c9b565b8152602001868152602001838152602001428152509050600181908060018154018082558091505060019003906000526020600020906009020160009091909190915060008201518160000160008201518160000160006101000a81548173ffffffffffffffffffffffffffffffffffffffff021916908373ffffffffffffffffffffffffffffffffffffffff1602179055506020820151816001019081610ac39190612d16565b506040820151816002019081610ad99190612d16565b50505060208201518160030160008201518160000160006101000a81548173ffffffffffffffffffffffffffffffffffffffff021916908373ffffffffffffffffffffffffffffffffffffffff1602179055506020820151816001019081610b419190612d16565b506040820151816002019081610b579190612d16565b50505060408201518160060155606082015181600701556080820151816008015550505050505050565b60026020528060005260406000206000915054906101000a900460ff1681565b600560008473ffffffffffffffffffffffffffffffffffffffff1673ffffffffffffffffffffffffffffffffffffffff168152602001908152602001600020819080600181540180825580915050600190039060005260206000200160009091909190915055600460008373ffffffffffffffffffffffffffffffffffffffff1673ffffffffffffffffffffffffffffffffffffffff168152602001908152602001600020819080600181540180825580915050600190039060005260206000200160009091909190915055505050565b60018181548110610c8257600080fd5b9060005260206000209060090201600091509050806000016040518060600160405290816000820160009054906101000a900473ffffffffffffffffffffffffffffffffffffffff1673ffffffffffffffffffffffffffffffffffffffff1673ffffffffffffffffffffffffffffffffffffffff168152602001600182018054610d0b90612a93565b80601f0160208091040260200160405190810160405280929190818152602001828054610d3790612a93565b8015610d845780601f10610d5957610100808354040283529160200191610d84565b820191906000526020600020905b815481529060010190602001808311610d6757829003601f168201915b50505050508152602001600282018054610d9d90612a93565b80601f0160208091040260200160405190810160405280929190818152602001828054610dc990612a93565b8015610e165780601f10610deb57610100808354040283529160200191610e16565b820191906000526020600020905b815481529060010190602001808311610df957829003601f168201915b50505050508152505090806003016040518060600160405290816000820160009054906101000a900473ffffffffffffffffffffffffffffffffffffffff1673ffffffffffffffffffffffffffffffffffffffff1673ffffffffffffffffffffffffffffffffffffffff168152602001600182018054610e9590612a93565b80601f0160208091040260200160405190810160405280929190818152602001828054610ec190612a93565b8015610f0e5780601f10610ee357610100808354040283529160200191610f0e565b820191906000526020600020905b815481529060010190602001808311610ef157829003601f168201915b50505050508152602001600282018054610f2790612a93565b80601f0160208091040260200160405190810160405280929190818152602001828054610f5390612a93565b8015610fa05780601f10610f7557610100808354040283529160200191610fa0565b820191906000526020600020905b815481529060010190602001808311610f8357829003601f168201915b505050505081525050908060060154908060070154908060080154905085565b606060066000838152602001908152602001600020805480602002602001604051908101604052809291908181526020016000905b828210156113575783829060005260206000209060080201604051806080016040529081600082016040518060600160405290816000820160009054906101000a900473ffffffffffffffffffffffffffffffffffffffff1673ffffffffffffffffffffffffffffffffffffffff1673ffffffffffffffffffffffffffffffffffffffff16815260200160018201805461108e90612a93565b80601f01602080910402602001604051908101604052809291908181526020018280546110ba90612a93565b80156111075780601f106110dc57610100808354040283529160200191611107565b820191906000526020600020905b8154815290600101906020018083116110ea57829003601f168201915b5050505050815260200160028201805461112090612a93565b80601f016020809104026020016040519081016040528092919081815260200182805461114c90612a93565b80156111995780601f1061116e57610100808354040283529160200191611199565b820191906000526020600020905b81548152906001019060200180831161117c57829003601f168201915b5050505050815250508152602001600382016040518060600160405290816000820160009054906101000a900473ffffffffffffffffffffffffffffffffffffffff1673ffffffffffffffffffffffffffffffffffffffff1673ffffffffffffffffffffffffffffffffffffffff16815260200160018201805461121c90612a93565b80601f016020809104026020016040519081016040528092919081815260200182805461124890612a93565b80156112955780601f1061126a57610100808354040283529160200191611295565b820191906000526020600020905b81548152906001019060200180831161127857829003601f168201915b505050505081526020016002820180546112ae90612a93565b80601f01602080910402602001604051908101604052809291908181526020018280546112da90612a93565b80156113275780601f106112fc57610100808354040283529160200191611327565b820191906000526020600020905b81548152906001019060200180831161130a57829003601f168201915b50505050508152505081526020016006820154815260200160078201548152505081526020019060010190610ff5565b505050509050919050565b600460008373ffffffffffffffffffffffffffffffffffffffff1673ffffffffffffffffffffffffffffffffffffffff1681526020019081526020016000208190806001815401808255809150506001900390600052602060002001600090919091909150555050565b600360205281600052604060002081815481106113e857600080fd5b90600052602060002001600091509150505481565b60008054906101000a900473ffffffffffffffffffffffffffffffffffffffff1673ffffffffffffffffffffffffffffffffffffffff1663b7c2f3a786868686866040518663ffffffff1660e01b815260040161145e959493929190612e41565b600060405180830381600087803b15801561147857600080fd5b505af115801561148c573d6000803e3d6000fd5b505050505050505050565b6060806060600360008573ffffffffffffffffffffffffffffffffffffffff1673ffffffffffffffffffffffffffffffffffffffff168152602001908152602001600020600460008673ffffffffffffffffffffffffffffffffffffffff1673ffffffffffffffffffffffffffffffffffffffff168152602001908152602001600020600560008773ffffffffffffffffffffffffffffffffffffffff1673ffffffffffffffffffffffffffffffffffffffff168152602001908152602001600020828054806020026020016040519081016040528092919081815260200182805480156115a457602002820191906000526020600020905b815481526020019060010190808311611590575b50505050509250818054806020026020016040519081016040528092919081815260200182805480156115f657602002820191906000526020600020905b8154815260200190600101908083116115e2575b505050505091508080548060200260200160405190810160405280929190818152602001828054801561164857602002820191906000526020600020905b815481526020019060010190808311611634575b505050505090509250925092509193909250565b60008060009054906101000a900473ffffffffffffffffffffffffffffffffffffffff1673ffffffffffffffffffffffffffffffffffffffff16633450e683836040518263ffffffff1660e01b81526004016116b89190612e9b565b602060405180830381865afa1580156116d5573d6000803e3d6000fd5b505050506040513d601f19601f820116820180604052508101906116f99190612ecb565b9050919050565b6000604051806080016040528061171686611c9b565b815260200161172485611c9b565b81526020014281526020018381525090506006600086815260200190815260200160002081908060018154018082558091505060019003906000526020600020906008020160009091909190915060008201518160000160008201518160000160006101000a81548173ffffffffffffffffffffffffffffffffffffffff021916908373ffffffffffffffffffffffffffffffffffffffff16021790555060208201518160010190816117d79190612d16565b5060408201518160020190816117ed9190612d16565b50505060208201518160030160008201518160000160006101000a81548173ffffffffffffffffffffffffffffffffffffffff021916908373ffffffffffffffffffffffffffffffffffffffff16021790555060208201518160010190816118559190612d16565b50604082015181600201908161186b9190612d16565b505050604082015181600601556060820151816007015550505050505050565b60606000600180549050905060008167ffffffffffffffff8111156118b3576118b2612619565b5b6040519080825280602002602001820160405280156118ec57816020015b6118d9611e84565b8152602001906001900390816118d15790505b50905060005b82811015611c92576001818154811061190e5761190d612ac4565b5b90600052602060002090600902016040518060a0016040529081600082016040518060600160405290816000820160009054906101000a900473ffffffffffffffffffffffffffffffffffffffff1673ffffffffffffffffffffffffffffffffffffffff1673ffffffffffffffffffffffffffffffffffffffff16815260200160018201805461199d90612a93565b80601f01602080910402602001604051908101604052809291908181526020018280546119c990612a93565b8015611a165780601f106119eb57610100808354040283529160200191611a16565b820191906000526020600020905b8154815290600101906020018083116119f957829003601f168201915b50505050508152602001600282018054611a2f90612a93565b80601f0160208091040260200160405190810160405280929190818152602001828054611a5b90612a93565b8015611aa85780601f10611a7d57610100808354040283529160200191611aa8565b820191906000526020600020905b815481529060010190602001808311611a8b57829003601f168201915b5050505050815250508152602001600382016040518060600160405290816000820160009054906101000a900473ffffffffffffffffffffffffffffffffffffffff1673ffffffffffffffffffffffffffffffffffffffff1673ffffffffffffffffffffffffffffffffffffffff168152602001600182018054611b2b90612a93565b80601f0160208091040260200160405190810160405280929190818152602001828054611b5790612a93565b8015611ba45780601f10611b7957610100808354040283529160200191611ba4565b820191906000526020600020905b815481529060010190602001808311611b8757829003601f168201915b50505050508152602001600282018054611bbd90612a93565b80601f0160208091040260200160405190810160405280929190818152602001828054611be990612a93565b8015611c365780601f10611c0b57610100808354040283529160200191611c36565b820191906000526020600020905b815481529060010190602001808311611c1957829003601f168201915b50505050508152505081526020016006820154815260200160078201548152602001600882015481525050828281518110611c7457611c73612ac4565b5b60200260200101819052508080611c8a90612b22565b9150506118f2565b50809250505090565b611ca3611ebf565b60405180606001604052808373ffffffffffffffffffffffffffffffffffffffff16815260200160008054906101000a900473ffffffffffffffffffffffffffffffffffffffff1673ffffffffffffffffffffffffffffffffffffffff16636f77926b856040518263ffffffff1660e01b8152600401611d239190612e9b565b600060405180830381865afa158015611d40573d6000803e3d6000fd5b505050506040513d6000823e3d601f19601f82011682018060405250810190611d6991906131ab565b60200151815260200160008054906101000a900473ffffffffffffffffffffffffffffffffffffffff1673ffffffffffffffffffffffffffffffffffffffff16636f77926b856040518263ffffffff1660e01b8152600401611dcb9190612e9b565b600060405180830381865afa158015611de8573d6000803e3d6000fd5b505050506040513d6000823e3d601f19601f82011682018060405250810190611e1191906131ab565b61014001518152509050919050565b508054611e2c90612a93565b6000825580601f10611e3e5750611e5d565b601f016020900490600052602060002090810190611e5c9190611ef6565b5b50565b5080546000825560080290600052602060002090810190611e819190611f13565b50565b6040518060a00160405280611e97611ebf565b8152602001611ea4611ebf565b81526020016000815260200160008152602001600081525090565b6040518060600160405280600073ffffffffffffffffffffffffffffffffffffffff16815260200160608152602001606081525090565b5b80821115611f0f576000816000905550600101611ef7565b5090565b5b80821115611fd2576000808201600080820160006101000a81549073ffffffffffffffffffffffffffffffffffffffff0219169055600182016000611f599190611e20565b600282016000611f699190611e20565b505060038201600080820160006101000a81549073ffffffffffffffffffffffffffffffffffffffff0219169055600182016000611fa79190611e20565b600282016000611fb79190611e20565b50506006820160009055600782016000905550600801611f14565b5090565b6000604051905090565b600080fd5b600080fd5b6000819050919050565b611ffd81611fea565b811461200857600080fd5b50565b60008135905061201a81611ff4565b92915050565b6000806040838503121561203757612036611fe0565b5b60006120458582860161200b565b92505060206120568582860161200b565b9150509250929050565b600073ffffffffffffffffffffffffffffffffffffffff82169050919050565b600061208b82612060565b9050919050565b61209b81612080565b82525050565b600081519050919050565b600082825260208201905092915050565b60005b838110156120db5780820151818401526020810190506120c0565b60008484015250505050565b6000601f19601f8301169050919050565b6000612103826120a1565b61210d81856120ac565b935061211d8185602086016120bd565b612126816120e7565b840191505092915050565b60006060830160008301516121496000860182612092565b506020830151848203602086015261216182826120f8565b9150506040830151848203604086015261217b82826120f8565b9150508091505092915050565b61219181611fea565b82525050565b600060808201905081810360008301526121b18187612131565b905081810360208301526121c58186612131565b90506121d46040830185612188565b6121e16060830184612188565b95945050505050565b600060208284031215612200576121ff611fe0565b5b600061220e8482850161200b565b91505092915050565b61222081612080565b811461222b57600080fd5b50565b60008135905061223d81612217565b92915050565b6000806040838503121561225a57612259611fe0565b5b60006122688582860161222e565b92505060206122798582860161200b565b9150509250929050565b60006020820190506122986000830184612188565b92915050565b60008115159050919050565b6122b38161229e565b81146122be57600080fd5b50565b6000813590506122d0816122aa565b92915050565b600080604083850312156122ed576122ec611fe0565b5b60006122fb8582860161200b565b925050602061230c858286016122c1565b9150509250929050565b600080600080608085870312156123305761232f611fe0565b5b600061233e8782880161200b565b945050602061234f8782880161222e565b93505060406123608782880161222e565b92505060606123718782880161200b565b91505092959194509250565b6123868161229e565b82525050565b60006020820190506123a1600083018461237d565b92915050565b6000806000606084860312156123c0576123bf611fe0565b5b60006123ce8682870161222e565b93505060206123df8682870161222e565b92505060406123f08682870161200b565b9150509250925092565b600060a08201905081810360008301526124148188612131565b905081810360208301526124288187612131565b90506124376040830186612188565b6124446060830185612188565b6124516080830184612188565b9695505050505050565b600081519050919050565b600082825260208201905092915050565b6000819050602082019050919050565b600060608301600083015161249f6000860182612092565b50602083015184820360208601526124b782826120f8565b915050604083015184820360408601526124d182826120f8565b9150508091505092915050565b6124e781611fea565b82525050565b6000608083016000830151848203600086015261250a8282612487565b915050602083015184820360208601526125248282612487565b915050604083015161253960408601826124de565b50606083015161254c60608601826124de565b508091505092915050565b600061256383836124ed565b905092915050565b6000602082019050919050565b60006125838261245b565b61258d8185612466565b93508360208202850161259f85612477565b8060005b858110156125db57848403895281516125bc8582612557565b94506125c78361256b565b925060208a019950506001810190506125a3565b50829750879550505050505092915050565b600060208201905081810360008301526126078184612578565b905092915050565b600080fd5b600080fd5b7f4e487b7100000000000000000000000000000000000000000000000000000000600052604160045260246000fd5b612651826120e7565b810181811067ffffffffffffffff821117156126705761266f612619565b5b80604052505050565b6000612683611fd6565b905061268f8282612648565b919050565b600067ffffffffffffffff8211156126af576126ae612619565b5b6126b8826120e7565b9050602081019050919050565b82818337600083830152505050565b60006126e76126e284612694565b612679565b90508281526020810184848401111561270357612702612614565b5b61270e8482856126c5565b509392505050565b600082601f83011261272b5761272a61260f565b5b813561273b8482602086016126d4565b91505092915050565b600080600080600060a086880312156127605761275f611fe0565b5b600061276e8882890161222e565b955050602061277f8882890161200b565b94505060406127908882890161200b565b93505060606127a18882890161200b565b925050608086013567ffffffffffffffff8111156127c2576127c1611fe5565b5b6127ce88828901612716565b9150509295509295909350565b6000602082840312156127f1576127f0611fe0565b5b60006127ff8482850161222e565b91505092915050565b600081519050919050565b600082825260208201905092915050565b6000819050602082019050919050565b600061284083836124de565b60208301905092915050565b6000602082019050919050565b600061286482612808565b61286e8185612813565b935061287983612824565b8060005b838110156128aa5781516128918882612834565b975061289c8361284c565b92505060018101905061287d565b5085935050505092915050565b600060608201905081810360008301526128d18186612859565b905081810360208301526128e58185612859565b905081810360408301526128f98184612859565b9050949350505050565b600081519050919050565b600082825260208201905092915050565b6000819050602082019050919050565b600060a083016000830151848203600086015261294c8282612487565b915050602083015184820360208601526129668282612487565b915050604083015161297b60408601826124de565b50606083015161298e60608601826124de565b5060808301516129a160808601826124de565b508091505092915050565b60006129b8838361292f565b905092915050565b6000602082019050919050565b60006129d882612903565b6129e2818561290e565b9350836020820285016129f48561291f565b8060005b85811015612a305784840389528151612a1185826129ac565b9450612a1c836129c0565b925060208a019950506001810190506129f8565b50829750879550505050505092915050565b60006020820190508181036000830152612a5c81846129cd565b905092915050565b7f4e487b7100000000000000000000000000000000000000000000000000000000600052602260045260246000fd5b60006002820490506001821680612aab57607f821691505b602082108103612abe57612abd612a64565b5b50919050565b7f4e487b7100000000000000000000000000000000000000000000000000000000600052603260045260246000fd5b7f4e487b7100000000000000000000000000000000000000000000000000000000600052601160045260246000fd5b6000612b2d82611fea565b91507fffffffffffffffffffffffffffffffffffffffffffffffffffffffffffffffff8203612b5f57612b5e612af3565b5b600182019050919050565b60008190508160005260206000209050919050565b60006020601f8301049050919050565b600082821b905092915050565b600060088302612bcc7fffffffffffffffffffffffffffffffffffffffffffffffffffffffffffffffff82612b8f565b612bd68683612b8f565b95508019841693508086168417925050509392505050565b6000819050919050565b6000612c13612c0e612c0984611fea565b612bee565b611fea565b9050919050565b6000819050919050565b612c2d83612bf8565b612c41612c3982612c1a565b848454612b9c565b825550505050565b600090565b612c56612c49565b612c61818484612c24565b505050565b5b81811015612c8557612c7a600082612c4e565b600181019050612c67565b5050565b601f821115612cca57612c9b81612b6a565b612ca484612b7f565b81016020851015612cb3578190505b612cc7612cbf85612b7f565b830182612c66565b50505b505050565b600082821c905092915050565b6000612ced60001984600802612ccf565b1980831691505092915050565b6000612d068383612cdc565b9150826002028217905092915050565b612d1f826120a1565b67ffffffffffffffff811115612d3857612d37612619565b5b612d428254612a93565b612d4d828285612c89565b600060209050601f831160018114612d805760008415612d6e578287015190505b612d788582612cfa565b865550612de0565b601f198416612d8e86612b6a565b60005b82811015612db657848901518255600182019150602085019450602081019050612d91565b86831015612dd35784890151612dcf601f891682612cdc565b8355505b6001600288020188555050505b505050505050565b612df181612080565b82525050565b600082825260208201905092915050565b6000612e13826120a1565b612e1d8185612df7565b9350612e2d8185602086016120bd565b612e36816120e7565b840191505092915050565b600060a082019050612e566000830188612de8565b612e636020830187612188565b612e706040830186612188565b612e7d6060830185612188565b8181036080830152612e8f8184612e08565b90509695505050505050565b6000602082019050612eb06000830184612de8565b92915050565b600081519050612ec5816122aa565b92915050565b600060208284031215612ee157612ee0611fe0565b5b6000612eef84828501612eb6565b91505092915050565b600080fd5b600080fd5b600081519050612f1181612217565b92915050565b6000612f2a612f2584612694565b612679565b905082815260208101848484011115612f4657612f45612614565b5b612f518482856120bd565b509392505050565b600082601f830112612f6e57612f6d61260f565b5b8151612f7e848260208601612f17565b91505092915050565b60006101608284031215612f9e57612f9d612ef8565b5b612fa9610160612679565b90506000612fb984828501612f02565b600083015250602082015167ffffffffffffffff811115612fdd57612fdc612efd565b5b612fe984828501612f59565b602083015250604082015167ffffffffffffffff81111561300d5761300c612efd565b5b61301984828501612f59565b604083015250606082015167ffffffffffffffff81111561303d5761303c612efd565b5b61304984828501612f59565b606083015250608082015167ffffffffffffffff81111561306d5761306c612efd565b5b61307984828501612f59565b60808301525060a082015167ffffffffffffffff81111561309d5761309c612efd565b5b6130a984828501612f59565b60a08301525060c082015167ffffffffffffffff8111156130cd576130cc612efd565b5b6130d984828501612f59565b60c08301525060e082015167ffffffffffffffff8111156130fd576130fc612efd565b5b61310984828501612f59565b60e08301525061010082015167ffffffffffffffff81111561312e5761312d612efd565b5b61313a84828501612f59565b6101008301525061012082015167ffffffffffffffff8111156131605761315f612efd565b5b61316c84828501612f59565b6101208301525061014082015167ffffffffffffffff81111561319257613191612efd565b5b61319e84828501612f59565b6101408301525092915050565b6000602082840312156131c1576131c0611fe0565b5b600082015167ffffffffffffffff8111156131df576131de611fe5565b5b6131eb84828501612f87565b9150509291505056fea264697066735822122089b2de6b8c7ba78347731d717f3f2eb77b878a5006d80d9fda257b0d8fbb8c6664736f6c63430008130033",
  "immutableReferences": {},
  "source": "// SPDX-License-Identifier: MIT\npragma solidity >=0.4.17 <8.10.0;\n\nimport \"./UserInfo.sol\";\n\ncontract NFTAnalytics{\n\n  struct Sender{\n    address _address;\n    string _name;\n    string _avatar;\n  }\n  struct NFTTransactions{\n    Sender from;\n    Sender to;\n    uint256 time;\n    uint256 price;\n  }\n  struct Transaction{\n    Sender _from;\n    Sender _to;\n    uint256 _id;\n    uint256 _price;\n    uint256 _time;\n  }\n\n  UserInfo user;\n  Transaction[] public transactions;\n  mapping(uint256 => bool) public offers;\n  mapping(address => uint256[]) public creations;\n  mapping(address => uint256[]) public collections;\n  mapping(address => uint256[]) public removedCollections;\n  mapping(uint256 => NFTTransactions[]) public nftTransactions;\n\n  constructor(address _user){\n    user = UserInfo(_user);\n  }\n  /*==========================================\n              NFT Transactions\n  ===========================================*/ \n  function setNFTTransactions(uint256 _id, address _from, address _to, uint _price) public{\n    NFTTransactions memory nft = NFTTransactions(getSender(_from), getSender(_to), block.timestamp, _price); \n     nftTransactions[_id].push(nft);\n  }\n  function getNFTTransactions(uint256 _id) public view returns(NFTTransactions[] memory){\n     return nftTransactions[_id];\n  }\n  /*==========================================\n               Transactions\n  ===========================================*/\n  function setTransaction(uint256 _id, address _from, address _to, uint _price) public{\n      Transaction memory _transaction = Transaction(getSender(_from), getSender(_to), _id, _price, block.timestamp);\n        transactions.push(_transaction);\n  }\n  function get_transactions() public view returns(Transaction[] memory){\n        uint256 length = transactions.length;\n        Transaction[] memory _transactions = new Transaction[](length);\n        for (uint256 i = 0; i < length; i++) {\n        _transactions[i] = transactions[i];\n        }\n        return _transactions;\n  }\n  function removeTransaction(uint256 _id) public{\n        for (uint256 i = 0; i < transactions.length; i++) {\n            if (transactions[i]._id == _id) {\n                delete transactions[i];\n            }\n        }\n  }\n  /*==========================================\n              Record New Action (Method)\n  ===========================================*/\n  function setActivity(address _address, uint _price, uint _royality, uint _commission, string memory _status) public{\n    user.setActivity(_address, _price, _royality, _commission, _status);\n   }\n\n/*==========================================\n        Check Whitelist Member (Method)\n  ===========================================*/\n   function member(address _address) public view returns(bool)\n   {\n    return user.whitelistMember(_address);\n   }\n\n/*==========================================\n            Add offer to token\n  ===========================================*/\n   function setOffer(uint id) public\n   {\n    offers[id] = true;\n   }\n\n   function updateOffer(uint id, bool offer) public\n   {\n    offers[id] = offer;\n   }\n   /*==========================================\n         Block unwanted nft (Method)\n  ===========================================*/\n   function unwanted(uint id) public\n   {\n    delete nftTransactions[id];\n    removeTransaction(id);\n   }\n\n   function newToken(address sender, uint id) public\n   {\n    creations[sender].push(id);\n   }\n\n   function addToken(address sender, uint id) public\n   {\n    collections[sender].push(id);\n   }\n\n   function updateCollect(address _old, address _new, uint256 _id) public \n   {\n      removedCollections[_old].push(_id);\n      collections[_new].push(_id);\n   }\n\n   function getCollect(address _address) public view returns(uint256[] memory, uint256[] memory, uint256[] memory){\n      return (creations[_address], collections[_address], removedCollections[_address]);\n   }\n  \n  /*==========================================\n         Get user details (Method)\n  ===========================================*/\n  function getSender(address _address) private view returns(Sender memory){\n        return Sender(_address, user.getUser(_address)._fullName, user.getUser(_address)._avatar);\n  }\n\n}",
  "sourcePath": "C:\\Users\\RTX PC\\Documents\\MarketplaceNFT\\NFT MArketplace\\contracts\\NFTAnalytics.sol",
  "compiler": {
    "name": "solc",
    "version": "0.8.19+commit.7dd6d404.Emscripten.clang"
  },
  "schemaVersion": "3.4.13",
  "updatedAt": "2023-03-21T16:39:43.162Z",
  "networkType": "ethereum",
  "devdoc": {
    "kind": "dev",
    "methods": {},
    "version": 1
  },
  "userdoc": {
    "kind": "user",
    "methods": {},
    "version": 1
  }
}