{
  "contractName": "NFTAuction",
  "abi": [
    {
      "inputs": [
        {
          "internalType": "address",
          "name": "_nftCollection",
          "type": "address"
        },
        {
          "internalType": "address",
          "name": "_user",
          "type": "address"
        },
        {
          "internalType": "address",
          "name": "_market",
          "type": "address"
        },
        {
          "internalType": "address",
          "name": "_analytics",
          "type": "address"
        }
      ],
      "stateMutability": "nonpayable",
      "type": "constructor"
    },
    {
      "anonymous": false,
      "inputs": [
        {
          "indexed": false,
          "internalType": "address",
          "name": "_address",
          "type": "address"
        },
        {
          "indexed": false,
          "internalType": "uint256",
          "name": "_tokenId",
          "type": "uint256"
        },
        {
          "indexed": false,
          "internalType": "uint256",
          "name": "_amount",
          "type": "uint256"
        },
        {
          "indexed": false,
          "internalType": "uint256",
          "name": "_time",
          "type": "uint256"
        }
      ],
      "name": "Bid",
      "type": "event"
    },
    {
      "anonymous": false,
      "inputs": [
        {
          "indexed": false,
          "internalType": "address",
          "name": "_address",
          "type": "address"
        },
        {
          "indexed": false,
          "internalType": "uint256",
          "name": "_tokenId",
          "type": "uint256"
        },
        {
          "indexed": false,
          "internalType": "uint256",
          "name": "_time",
          "type": "uint256"
        }
      ],
      "name": "CancelAuction",
      "type": "event"
    },
    {
      "anonymous": false,
      "inputs": [
        {
          "indexed": false,
          "internalType": "address",
          "name": "user",
          "type": "address"
        },
        {
          "indexed": false,
          "internalType": "uint256",
          "name": "amount",
          "type": "uint256"
        }
      ],
      "name": "ClaimFunds",
      "type": "event"
    },
    {
      "anonymous": false,
      "inputs": [
        {
          "indexed": false,
          "internalType": "address",
          "name": "_address",
          "type": "address"
        },
        {
          "indexed": false,
          "internalType": "uint256",
          "name": "_tokenId",
          "type": "uint256"
        },
        {
          "indexed": false,
          "internalType": "uint256",
          "name": "_endTime",
          "type": "uint256"
        }
      ],
      "name": "CreateAuction",
      "type": "event"
    },
    {
      "anonymous": false,
      "inputs": [
        {
          "indexed": false,
          "internalType": "uint256",
          "name": "_tokenId",
          "type": "uint256"
        },
        {
          "indexed": false,
          "internalType": "uint256",
          "name": "_price",
          "type": "uint256"
        },
        {
          "indexed": false,
          "internalType": "address",
          "name": "_winner",
          "type": "address"
        }
      ],
      "name": "EndAuction",
      "type": "event"
    },
    {
      "anonymous": false,
      "inputs": [
        {
          "indexed": false,
          "internalType": "address",
          "name": "_address",
          "type": "address"
        },
        {
          "indexed": false,
          "internalType": "uint256",
          "name": "_tokenId",
          "type": "uint256"
        },
        {
          "indexed": false,
          "internalType": "uint256",
          "name": "_time",
          "type": "uint256"
        }
      ],
      "name": "Withdraw",
      "type": "event"
    },
    {
      "inputs": [
        {
          "internalType": "address",
          "name": "",
          "type": "address"
        }
      ],
      "name": "userFunds",
      "outputs": [
        {
          "internalType": "uint256",
          "name": "",
          "type": "uint256"
        }
      ],
      "stateMutability": "view",
      "type": "function",
      "constant": true
    },
    {
      "inputs": [
        {
          "internalType": "uint256",
          "name": "_id",
          "type": "uint256"
        },
        {
          "internalType": "uint256",
          "name": "_endTime",
          "type": "uint256"
        }
      ],
      "name": "createAuction",
      "outputs": [],
      "stateMutability": "nonpayable",
      "type": "function"
    },
    {
      "inputs": [
        {
          "internalType": "uint256",
          "name": "_tokenId",
          "type": "uint256"
        },
        {
          "internalType": "uint256",
          "name": "_auctionId",
          "type": "uint256"
        },
        {
          "internalType": "uint256",
          "name": "_amount",
          "type": "uint256"
        }
      ],
      "name": "bid",
      "outputs": [],
      "stateMutability": "payable",
      "type": "function",
      "payable": true
    },
    {
      "inputs": [
        {
          "internalType": "uint256",
          "name": "_tokenId",
          "type": "uint256"
        },
        {
          "internalType": "uint256",
          "name": "_auctionId",
          "type": "uint256"
        }
      ],
      "name": "withdraw",
      "outputs": [],
      "stateMutability": "nonpayable",
      "type": "function"
    },
    {
      "inputs": [
        {
          "internalType": "uint256",
          "name": "_tokenId",
          "type": "uint256"
        },
        {
          "internalType": "uint256",
          "name": "_auctionId",
          "type": "uint256"
        }
      ],
      "name": "endAuction",
      "outputs": [],
      "stateMutability": "nonpayable",
      "type": "function"
    },
    {
      "inputs": [
        {
          "internalType": "uint256",
          "name": "_tokenId",
          "type": "uint256"
        },
        {
          "internalType": "uint256",
          "name": "_auctionId",
          "type": "uint256"
        }
      ],
      "name": "cancelAuction",
      "outputs": [],
      "stateMutability": "nonpayable",
      "type": "function"
    },
    {
      "inputs": [],
      "name": "getAuctions",
      "outputs": [
        {
          "components": [
            {
              "internalType": "uint256",
              "name": "_tokenId",
              "type": "uint256"
            },
            {
              "internalType": "string",
              "name": "_tokenURI",
              "type": "string"
            },
            {
              "internalType": "uint256",
              "name": "_auctionId",
              "type": "uint256"
            },
            {
              "internalType": "address",
              "name": "_address",
              "type": "address"
            },
            {
              "internalType": "uint256",
              "name": "_endTime",
              "type": "uint256"
            },
            {
              "internalType": "bool",
              "name": "_active",
              "type": "bool"
            },
            {
              "internalType": "bool",
              "name": "_cancel",
              "type": "bool"
            },
            {
              "components": [
                {
                  "internalType": "uint256",
                  "name": "_tokenId",
                  "type": "uint256"
                },
                {
                  "internalType": "address",
                  "name": "_address",
                  "type": "address"
                },
                {
                  "internalType": "uint256",
                  "name": "_amount",
                  "type": "uint256"
                },
                {
                  "internalType": "uint256",
                  "name": "_time",
                  "type": "uint256"
                },
                {
                  "internalType": "bool",
                  "name": "_withdraw",
                  "type": "bool"
                }
              ],
              "internalType": "struct NFTAuction.Bidder[]",
              "name": "_bids",
              "type": "tuple[]"
            }
          ],
          "internalType": "struct NFTAuction.Auction[]",
          "name": "_auctions",
          "type": "tuple[]"
        }
      ],
      "stateMutability": "view",
      "type": "function",
      "constant": true
    },
    {
      "inputs": [],
      "name": "claimProfits",
      "outputs": [],
      "stateMutability": "nonpayable",
      "type": "function"
    },
    {
      "inputs": [
        {
          "internalType": "address",
          "name": "_address",
          "type": "address"
        }
      ],
      "name": "userBids",
      "outputs": [
        {
          "components": [
            {
              "internalType": "uint256",
              "name": "_tokenId",
              "type": "uint256"
            },
            {
              "internalType": "address",
              "name": "_address",
              "type": "address"
            },
            {
              "internalType": "uint256",
              "name": "_amount",
              "type": "uint256"
            },
            {
              "internalType": "uint256",
              "name": "_time",
              "type": "uint256"
            },
            {
              "internalType": "bool",
              "name": "_withdraw",
              "type": "bool"
            }
          ],
          "internalType": "struct NFTAuction.Bidder[]",
          "name": "_bids",
          "type": "tuple[]"
        }
      ],
      "stateMutability": "view",
      "type": "function",
      "constant": true
    },
    {
      "inputs": [
        {
          "internalType": "uint256[]",
          "name": "_ids",
          "type": "uint256[]"
        }
      ],
      "name": "unwanted",
      "outputs": [],
      "stateMutability": "nonpayable",
      "type": "function"
    }
  ],
  "bytecode": "0x60806040523480156200001157600080fd5b50604051620049ea380380620049ea833981810160405281019062000037919062000289565b83600360006101000a81548173ffffffffffffffffffffffffffffffffffffffff021916908373ffffffffffffffffffffffffffffffffffffffff16021790555033600560006101000a81548173ffffffffffffffffffffffffffffffffffffffff021916908373ffffffffffffffffffffffffffffffffffffffff160217905550600360009054906101000a900473ffffffffffffffffffffffffffffffffffffffff1673ffffffffffffffffffffffffffffffffffffffff1663e14891916040518163ffffffff1660e01b8152600401602060405180830381865afa15801562000127573d6000803e3d6000fd5b505050506040513d601f19601f820116820180604052508101906200014d919062000336565b600681905550826000806101000a81548173ffffffffffffffffffffffffffffffffffffffff021916908373ffffffffffffffffffffffffffffffffffffffff16021790555081600260006101000a81548173ffffffffffffffffffffffffffffffffffffffff021916908373ffffffffffffffffffffffffffffffffffffffff16021790555080600460006101000a81548173ffffffffffffffffffffffffffffffffffffffff021916908373ffffffffffffffffffffffffffffffffffffffff1602179055505050505062000368565b600080fd5b600073ffffffffffffffffffffffffffffffffffffffff82169050919050565b6000620002518262000224565b9050919050565b620002638162000244565b81146200026f57600080fd5b50565b600081519050620002838162000258565b92915050565b60008060008060808587031215620002a657620002a56200021f565b5b6000620002b68782880162000272565b9450506020620002c98782880162000272565b9350506040620002dc8782880162000272565b9250506060620002ef8782880162000272565b91505092959194509250565b6000819050919050565b6200031081620002fb565b81146200031c57600080fd5b50565b600081519050620003308162000305565b92915050565b6000602082840312156200034f576200034e6200021f565b5b60006200035f848285016200031f565b91505092915050565b61467280620003786000396000f3fe6080604052600436106100915760003560e01c8063851212d911610059578063851212d91461016a578063883102a4146101a757806392ba9075146101d05780639df51b89146101f9578063d7c069191461021057610091565b80630121683f146100965780632ac9bf09146100bf578063441a3e70146100db57806347afe437146101045780638387c6e11461012d575b600080fd5b3480156100a257600080fd5b506100bd60048036038101906100b89190613125565b61023b565b005b6100d960048036038101906100d49190613165565b6108ef565b005b3480156100e757600080fd5b5061010260048036038101906100fd9190613125565b610d29565b005b34801561011057600080fd5b5061012b60048036038101906101269190613125565b611063565b005b34801561013957600080fd5b50610154600480360381019061014f9190613216565b6119a3565b6040516101619190613252565b60405180910390f35b34801561017657600080fd5b50610191600480360381019061018c9190613216565b6119bb565b60405161019e91906133bd565b60405180910390f35b3480156101b357600080fd5b506101ce60048036038101906101c99190613538565b611d35565b005b3480156101dc57600080fd5b506101f760048036038101906101f29190613125565b611efc565b005b34801561020557600080fd5b5061020e612467565b005b34801561021c57600080fd5b506102256126ff565b60405161023291906137e8565b60405180910390f35b600080600080600360009054906101000a900473ffffffffffffffffffffffffffffffffffffffff1673ffffffffffffffffffffffffffffffffffffffff1663fc314e31876040518263ffffffff1660e01b815260040161029c9190613252565b600060405180830381865afa1580156102b9573d6000803e3d6000fd5b505050506040513d6000823e3d601f19601f820116820180604052508101906102e29190613a9e565b505098509850509750509650505050428511610333576040517f08c379a000000000000000000000000000000000000000000000000000000000815260040161032a90613c0b565b60405180910390fd5b600360009054906101000a900473ffffffffffffffffffffffffffffffffffffffff1673ffffffffffffffffffffffffffffffffffffffff16636352211e876040518263ffffffff1660e01b815260040161038e9190613252565b602060405180830381865afa1580156103ab573d6000803e3d6000fd5b505050506040513d601f19601f820116820180604052508101906103cf9190613c2b565b73ffffffffffffffffffffffffffffffffffffffff163373ffffffffffffffffffffffffffffffffffffffff161461043c576040517f08c379a000000000000000000000000000000000000000000000000000000000815260040161043390613c0b565b60405180910390fd5b600360009054906101000a900473ffffffffffffffffffffffffffffffffffffffff1673ffffffffffffffffffffffffffffffffffffffff166323b872dd3330896040518463ffffffff1660e01b815260040161049b93929190613c67565b600060405180830381600087803b1580156104b557600080fd5b505af11580156104c9573d6000803e3d6000fd5b505050506000600180549050905060018081600181540180825580915050039060005260206000209050506000600460009054906101000a900473ffffffffffffffffffffffffffffffffffffffff1673ffffffffffffffffffffffffffffffffffffffff16638a72ea6a896040518263ffffffff1660e01b81526004016105519190613252565b602060405180830381865afa15801561056e573d6000803e3d6000fd5b505050506040513d601f19601f820116820180604052508101906105929190613c9e565b90506000600183815481106105aa576105a9613ccb565b5b90600052602060002090600702019050888160000181905550828160020181905550878160040181905550868160030160006101000a81548173ffffffffffffffffffffffffffffffffffffffff021916908373ffffffffffffffffffffffffffffffffffffffff16021790555060018160050160006101000a81548160ff02191690831515021790555060008160050160016101000a81548160ff021916908315150217905550600360009054906101000a900473ffffffffffffffffffffffffffffffffffffffff1673ffffffffffffffffffffffffffffffffffffffff16635594f2dc8a89600089896001896040518863ffffffff1660e01b81526004016106bb9796959493929190613d4e565b600060405180830381600087803b1580156106d557600080fd5b505af11580156106e9573d6000803e3d6000fd5b50505050600460009054906101000a900473ffffffffffffffffffffffffffffffffffffffff1673ffffffffffffffffffffffffffffffffffffffff1663fd17c3a48a893060006040518563ffffffff1660e01b815260040161074f9493929190613dbd565b600060405180830381600087803b15801561076957600080fd5b505af115801561077d573d6000803e3d6000fd5b50505050600460009054906101000a900473ffffffffffffffffffffffffffffffffffffffff1673ffffffffffffffffffffffffffffffffffffffff166364c9fb678a893060006040518563ffffffff1660e01b81526004016107e39493929190613dbd565b600060405180830381600087803b1580156107fd57600080fd5b505af1158015610811573d6000803e3d6000fd5b5050505060008054906101000a900473ffffffffffffffffffffffffffffffffffffffff1673ffffffffffffffffffffffffffffffffffffffff1663b7c2f3a7886000896006546040518563ffffffff1660e01b81526004016108779493929190613e4e565b600060405180830381600087803b15801561089157600080fd5b505af11580156108a5573d6000803e3d6000fd5b505050507f710f5a3dfb15edf4cbfee47f1d6c1bbaa49aed49fcd869eeb9c2b7208e0e16e5338a8a6040516108dc93929190613ea6565b60405180910390a1505050505050505050565b600080600360009054906101000a900473ffffffffffffffffffffffffffffffffffffffff1673ffffffffffffffffffffffffffffffffffffffff1663fc314e31866040518263ffffffff1660e01b815260040161094d9190613252565b600060405180830381865afa15801561096a573d6000803e3d6000fd5b505050506040513d6000823e3d601f19601f820116820180604052508101906109939190613a9e565b50505050509550509450505050600083116109e3576040517f08c379a00000000000000000000000000000000000000000000000000000000081526004016109da90613c0b565b60405180910390fd5b6109ed33866129f9565b15610a2d576040517f08c379a0000000000000000000000000000000000000000000000000000000008152600401610a2490613c0b565b60405180910390fd5b8173ffffffffffffffffffffffffffffffffffffffff163373ffffffffffffffffffffffffffffffffffffffff1603610a9b576040517f08c379a0000000000000000000000000000000000000000000000000000000008152600401610a9290613c0b565b60405180910390fd5b6007600086815260200190815260200160002054831115610b375782600760008781526020019081526020016000208190555033600960008781526020019081526020016000206000600115151515815260200190815260200160002060006101000a81548173ffffffffffffffffffffffffffffffffffffffff021916908373ffffffffffffffffffffffffffffffffffffffff1602179055505b600060018581548110610b4d57610b4c613ccb565b5b90600052602060002090600702019050806006016040518060a001604052808881526020013373ffffffffffffffffffffffffffffffffffffffff1681526020018681526020014281526020016000151581525090806001815401808255809150506001900390600052602060002090600502016000909190919091506000820151816000015560208201518160010160006101000a81548173ffffffffffffffffffffffffffffffffffffffff021916908373ffffffffffffffffffffffffffffffffffffffff160217905550604082015181600201556060820151816003015560808201518160040160006101000a81548160ff021916908315150217905550505060008054906101000a900473ffffffffffffffffffffffffffffffffffffffff1673ffffffffffffffffffffffffffffffffffffffff1663b7c2f3a73386856006546040518563ffffffff1660e01b8152600401610cb29493929190613f29565b600060405180830381600087803b158015610ccc57600080fd5b505af1158015610ce0573d6000803e3d6000fd5b505050507f4dcc013473324698bfbe263facec4ea4b1bc43624236542deabec62c2122b30533878642604051610d199493929190613f81565b60405180910390a1505050505050565b6000600360009054906101000a900473ffffffffffffffffffffffffffffffffffffffff1673ffffffffffffffffffffffffffffffffffffffff1663fc314e31846040518263ffffffff1660e01b8152600401610d869190613252565b600060405180830381865afa158015610da3573d6000803e3d6000fd5b505050506040513d6000823e3d601f19601f82011682018060405250810190610dcc9190613a9e565b5050505050955050505050506000610de383612bf0565b9050600060018481548110610dfb57610dfa613ccb565b5b90600052602060002090600702016006018281548110610e1e57610e1d613ccb565b5b906000526020600020906005020160020154905060018481548110610e4657610e45613ccb565b5b9060005260206000209060070201600001548514610e99576040517f08c379a0000000000000000000000000000000000000000000000000000000008152600401610e9090613c0b565b60405180910390fd5b60008111610edc576040517f08c379a0000000000000000000000000000000000000000000000000000000008152600401610ed390613c0b565b60405180910390fd5b610ee7858533612d3c565b3373ffffffffffffffffffffffffffffffffffffffff166108fc829081150290604051600060405180830381858888f19350505050158015610f2d573d6000803e3d6000fd5b506001808581548110610f4357610f42613ccb565b5b90600052602060002090600702016006018381548110610f6657610f65613ccb565b5b906000526020600020906005020160040160006101000a81548160ff02191690831515021790555060008054906101000a900473ffffffffffffffffffffffffffffffffffffffff1673ffffffffffffffffffffffffffffffffffffffff1663b7c2f3a73383866006546040518563ffffffff1660e01b8152600401610fef9493929190614012565b600060405180830381600087803b15801561100957600080fd5b505af115801561101d573d6000803e3d6000fd5b505050507ff279e6a1f5e320cca91135676d9cb6e44ca8a08c0b88342bcdb1144f6511b56833864260405161105493929190613ea6565b60405180910390a15050505050565b600080600080600360009054906101000a900473ffffffffffffffffffffffffffffffffffffffff1673ffffffffffffffffffffffffffffffffffffffff1663fc314e31876040518263ffffffff1660e01b81526004016110c49190613252565b600060405180830381865afa1580156110e1573d6000803e3d6000fd5b505050506040513d6000823e3d601f19601f8201168201806040525081019061110a9190613a9e565b5050985050509650509550955050506000600960008881526020019081526020016000206000600115151515815260200190815260200160002060009054906101000a900473ffffffffffffffffffffffffffffffffffffffff169050600073ffffffffffffffffffffffffffffffffffffffff168173ffffffffffffffffffffffffffffffffffffffff160361123957600460009054906101000a900473ffffffffffffffffffffffffffffffffffffffff1673ffffffffffffffffffffffffffffffffffffffff1663fd17c3a488308760006040518563ffffffff1660e01b81526004016111fd9493929190613dbd565b600060405180830381600087803b15801561121757600080fd5b505af115801561122b573d6000803e3d6000fd5b50505050505050505061199f565b600360009054906101000a900473ffffffffffffffffffffffffffffffffffffffff1673ffffffffffffffffffffffffffffffffffffffff166323b872dd30838a6040518463ffffffff1660e01b815260040161129893929190613c67565b600060405180830381600087803b1580156112b257600080fd5b505af11580156112c6573d6000803e3d6000fd5b5050505060006112d587612bf0565b90506000600188815481106112ed576112ec613ccb565b5b906000526020600020906007020160050160006101000a81548160ff021916908315150217905550816001888154811061132a57611329613ccb565b5b906000526020600020906007020160030160006101000a81548173ffffffffffffffffffffffffffffffffffffffff021916908373ffffffffffffffffffffffffffffffffffffffff160217905550600180888154811061138e5761138d613ccb565b5b906000526020600020906007020160060182815481106113b1576113b0613ccb565b5b906000526020600020906005020160040160006101000a81548160ff0219169083151502179055506000600760008a81526020019081526020016000205490506000600760008b8152602001908152602001600020819055506000600960008b81526020019081526020016000206000600115151515815260200190815260200160002060006101000a81548173ffffffffffffffffffffffffffffffffffffffff021916908373ffffffffffffffffffffffffffffffffffffffff160217905550600061147f8287612ea6565b9050600061148c83612ed6565b90506114b3826114a58386612f0890919063ffffffff16565b612f0890919063ffffffff16565b600860008a73ffffffffffffffffffffffffffffffffffffffff1673ffffffffffffffffffffffffffffffffffffffff16815260200190815260200160002060008282546115019190614099565b9250508190555081600860008b73ffffffffffffffffffffffffffffffffffffffff1673ffffffffffffffffffffffffffffffffffffffff16815260200190815260200160002060008282546115579190614099565b925050819055508060086000600560009054906101000a900473ffffffffffffffffffffffffffffffffffffffff1673ffffffffffffffffffffffffffffffffffffffff1673ffffffffffffffffffffffffffffffffffffffff16815260200190815260200160002060008282546115cf9190614099565b92505081905550600260009054906101000a900473ffffffffffffffffffffffffffffffffffffffff1673ffffffffffffffffffffffffffffffffffffffff16630e373f9a89856040518363ffffffff1660e01b81526004016116339291906140cd565b600060405180830381600087803b15801561164d57600080fd5b505af1158015611661573d6000803e3d6000fd5b505050506000600460009054906101000a900473ffffffffffffffffffffffffffffffffffffffff1673ffffffffffffffffffffffffffffffffffffffff16638a72ea6a8d6040518263ffffffff1660e01b81526004016116c29190613252565b602060405180830381865afa1580156116df573d6000803e3d6000fd5b505050506040513d601f19601f820116820180604052508101906117039190613c9e565b9050600360009054906101000a900473ffffffffffffffffffffffffffffffffffffffff1673ffffffffffffffffffffffffffffffffffffffff16635594f2dc8d888760008c6000886040518863ffffffff1660e01b815260040161176e97969594939291906140f6565b600060405180830381600087803b15801561178857600080fd5b505af115801561179c573d6000803e3d6000fd5b50505050600460009054906101000a900473ffffffffffffffffffffffffffffffffffffffff1673ffffffffffffffffffffffffffffffffffffffff1663fd17c3a48d3089886040518563ffffffff1660e01b81526004016118019493929190614165565b600060405180830381600087803b15801561181b57600080fd5b505af115801561182f573d6000803e3d6000fd5b5050505060008054906101000a900473ffffffffffffffffffffffffffffffffffffffff1673ffffffffffffffffffffffffffffffffffffffff1663b7c2f3a733868b6006546040518563ffffffff1660e01b815260040161189494939291906141f6565b600060405180830381600087803b1580156118ae57600080fd5b505af11580156118c2573d6000803e3d6000fd5b50505050600460009054906101000a900473ffffffffffffffffffffffffffffffffffffffff1673ffffffffffffffffffffffffffffffffffffffff166364c9fb678d3089886040518563ffffffff1660e01b81526004016119279493929190614165565b600060405180830381600087803b15801561194157600080fd5b505af1158015611955573d6000803e3d6000fd5b505050507fc2299f982fd9ff00b57d2a69804ceed57ad76a704e350938747afdedb722a8508c858860405161198c9392919061424e565b60405180910390a1505050505050505050505b5050565b60086020528060005260406000206000915090505481565b606060018054905067ffffffffffffffff8111156119dc576119db6133f5565b5b604051908082528060200260200182016040528015611a1557816020015b611a02612f4a565b8152602001906001900390816119fa5790505b50905060005b600180549050811015611d2f5760005b60018281548110611a3f57611a3e613ccb565b5b906000526020600020906007020160060180549050811015611d1b578373ffffffffffffffffffffffffffffffffffffffff1660018381548110611a8657611a85613ccb565b5b90600052602060002090600702016006018281548110611aa957611aa8613ccb565b5b906000526020600020906005020160010160009054906101000a900473ffffffffffffffffffffffffffffffffffffffff1673ffffffffffffffffffffffffffffffffffffffff16148015611b5757506000151560018381548110611b1157611b10613ccb565b5b90600052602060002090600702016006018281548110611b3457611b33613ccb565b5b906000526020600020906005020160040160009054906101000a900460ff161515145b15611c5e5760018281548110611b7057611b6f613ccb565b5b90600052602060002090600702016006018181548110611b9357611b92613ccb565b5b90600052602060002090600502016040518060a0016040529081600082015481526020016001820160009054906101000a900473ffffffffffffffffffffffffffffffffffffffff1673ffffffffffffffffffffffffffffffffffffffff1673ffffffffffffffffffffffffffffffffffffffff16815260200160028201548152602001600382015481526020016004820160009054906101000a900460ff161515151581525050838381518110611c4e57611c4d613ccb565b5b6020026020010181905250611d08565b6040518060a0016040528060018481548110611c7d57611c7c613ccb565b5b90600052602060002090600702016006018381548110611ca057611c9f613ccb565b5b9060005260206000209060050201600001548152602001600073ffffffffffffffffffffffffffffffffffffffff168152602001600081526020016000815260200160001515815250838381518110611cfc57611cfb613ccb565b5b60200260200101819052505b8080611d1390614285565b915050611a2b565b508080611d2790614285565b915050611a1b565b50919050565b600360009054906101000a900473ffffffffffffffffffffffffffffffffffffffff1673ffffffffffffffffffffffffffffffffffffffff1663883102a4826040518263ffffffff1660e01b8152600401611d90919061437c565b600060405180830381600087803b158015611daa57600080fd5b505af1158015611dbe573d6000803e3d6000fd5b5050505060005b8151811015611ef85760005b600180549050811015611ee45760018181548110611df257611df1613ccb565b5b906000526020600020906007020160000154838381518110611e1757611e16613ccb565b5b602002602001015103611ed15760018181548110611e3857611e37613ccb565b5b9060005260206000209060070201600080820160009055600182016000611e5f9190612f91565b60028201600090556003820160006101000a81549073ffffffffffffffffffffffffffffffffffffffff021916905560048201600090556005820160006101000a81549060ff02191690556005820160016101000a81549060ff0219169055600682016000611ece9190612fd1565b50505b8080611edc90614285565b915050611dd1565b508080611ef090614285565b915050611dc5565b5050565b600080600080600360009054906101000a900473ffffffffffffffffffffffffffffffffffffffff1673ffffffffffffffffffffffffffffffffffffffff1663fc314e31876040518263ffffffff1660e01b8152600401611f5d9190613252565b600060405180830381865afa158015611f7a573d6000803e3d6000fd5b505050506040513d6000823e3d601f19601f82011682018060405250810190611fa39190613a9e565b5050985098505097505096505050503373ffffffffffffffffffffffffffffffffffffffff168473ffffffffffffffffffffffffffffffffffffffff1614612020576040517f08c379a000000000000000000000000000000000000000000000000000000000815260040161201790613c0b565b60405180910390fd5b600360009054906101000a900473ffffffffffffffffffffffffffffffffffffffff1673ffffffffffffffffffffffffffffffffffffffff166323b872dd3086896040518463ffffffff1660e01b815260040161207f93929190613c67565b600060405180830381600087803b15801561209957600080fd5b505af11580156120ad573d6000803e3d6000fd5b505050506000600460009054906101000a900473ffffffffffffffffffffffffffffffffffffffff1673ffffffffffffffffffffffffffffffffffffffff16638a72ea6a886040518263ffffffff1660e01b815260040161210e9190613252565b602060405180830381865afa15801561212b573d6000803e3d6000fd5b505050506040513d601f19601f8201168201806040525081019061214f9190613c9e565b9050600360009054906101000a900473ffffffffffffffffffffffffffffffffffffffff1673ffffffffffffffffffffffffffffffffffffffff16635594f2dc8887600087876000886040518863ffffffff1660e01b81526004016121ba9796959493929190613d4e565b600060405180830381600087803b1580156121d457600080fd5b505af11580156121e8573d6000803e3d6000fd5b50505050600180878154811061220157612200613ccb565b5b906000526020600020906007020160050160016101000a81548160ff02191690831515021790555060006001878154811061223f5761223e613ccb565b5b906000526020600020906007020160050160006101000a81548160ff02191690831515021790555060008054906101000a900473ffffffffffffffffffffffffffffffffffffffff1673ffffffffffffffffffffffffffffffffffffffff1663b7c2f3a7336000876006546040518563ffffffff1660e01b81526004016122c9949392919061439e565b600060405180830381600087803b1580156122e357600080fd5b505af11580156122f7573d6000803e3d6000fd5b50505050600460009054906101000a900473ffffffffffffffffffffffffffffffffffffffff1673ffffffffffffffffffffffffffffffffffffffff1663fd17c3a488308860006040518563ffffffff1660e01b815260040161235d9493929190613dbd565b600060405180830381600087803b15801561237757600080fd5b505af115801561238b573d6000803e3d6000fd5b50505050600460009054906101000a900473ffffffffffffffffffffffffffffffffffffffff1673ffffffffffffffffffffffffffffffffffffffff166364c9fb6788308860006040518563ffffffff1660e01b81526004016123f19493929190613dbd565b600060405180830381600087803b15801561240b57600080fd5b505af115801561241f573d6000803e3d6000fd5b505050507fbc0fdc3702b8cd677a6a14b1e5613899dd424577b9177fe5603b1074c72ea8aa33884260405161245693929190613ea6565b60405180910390a150505050505050565b6000600860003373ffffffffffffffffffffffffffffffffffffffff1673ffffffffffffffffffffffffffffffffffffffff16815260200190815260200160002054116124e9576040517f08c379a00000000000000000000000000000000000000000000000000000000081526004016124e090614442565b60405180910390fd5b3373ffffffffffffffffffffffffffffffffffffffff166108fc600860003373ffffffffffffffffffffffffffffffffffffffff1673ffffffffffffffffffffffffffffffffffffffff168152602001908152602001600020549081150290604051600060405180830381858888f1935050505015801561256e573d6000803e3d6000fd5b5060008054906101000a900473ffffffffffffffffffffffffffffffffffffffff1673ffffffffffffffffffffffffffffffffffffffff1663b7c2f3a733600860003373ffffffffffffffffffffffffffffffffffffffff1673ffffffffffffffffffffffffffffffffffffffff168152602001908152602001600020546000806040518563ffffffff1660e01b815260040161260e94939291906144ae565b600060405180830381600087803b15801561262857600080fd5b505af115801561263c573d6000803e3d6000fd5b505050507f4f0554190111f93f8c2ccef2cc41473f187d7f29ff5a5c308ca41f9dfe4e989a33600860003373ffffffffffffffffffffffffffffffffffffffff1673ffffffffffffffffffffffffffffffffffffffff168152602001908152602001600020546040516126b09291906140cd565b60405180910390a16000600860003373ffffffffffffffffffffffffffffffffffffffff1673ffffffffffffffffffffffffffffffffffffffff16815260200190815260200160002081905550565b606060018054905067ffffffffffffffff8111156127205761271f6133f5565b5b60405190808252806020026020018201604052801561275957816020015b612746612ff5565b81526020019060019003908161273e5790505b50905060005b6001805490508110156129f557600181815481106127805761277f613ccb565b5b906000526020600020906007020160405180610100016040529081600082015481526020016001820180546127b490614535565b80601f01602080910402602001604051908101604052809291908181526020018280546127e090614535565b801561282d5780601f106128025761010080835404028352916020019161282d565b820191906000526020600020905b81548152906001019060200180831161281057829003601f168201915b50505050508152602001600282015481526020016003820160009054906101000a900473ffffffffffffffffffffffffffffffffffffffff1673ffffffffffffffffffffffffffffffffffffffff1673ffffffffffffffffffffffffffffffffffffffff168152602001600482015481526020016005820160009054906101000a900460ff161515151581526020016005820160019054906101000a900460ff1615151515815260200160068201805480602002602001604051908101604052809291908181526020016000905b828210156129bc57838290600052602060002090600502016040518060a0016040529081600082015481526020016001820160009054906101000a900473ffffffffffffffffffffffffffffffffffffffff1673ffffffffffffffffffffffffffffffffffffffff1673ffffffffffffffffffffffffffffffffffffffff16815260200160028201548152602001600382015481526020016004820160009054906101000a900460ff161515151581525050815260200190600101906128fb565b50505050815250508282815181106129d7576129d6613ccb565b5b602002602001018190525080806129ed90614285565b91505061275f565b5090565b600080600090505b600180549050811015612be4578260018281548110612a2357612a22613ccb565b5b906000526020600020906007020160000154148015612a7857506001151560018281548110612a5557612a54613ccb565b5b906000526020600020906007020160050160009054906101000a900460ff161515145b15612bd15760005b60018281548110612a9457612a93613ccb565b5b906000526020600020906007020160060180549050811015612bcf578473ffffffffffffffffffffffffffffffffffffffff1660018381548110612adb57612ada613ccb565b5b90600052602060002090600702016006018281548110612afe57612afd613ccb565b5b906000526020600020906005020160010160009054906101000a900473ffffffffffffffffffffffffffffffffffffffff1673ffffffffffffffffffffffffffffffffffffffff16148015612bac57506000151560018381548110612b6657612b65613ccb565b5b90600052602060002090600702016006018281548110612b8957612b88613ccb565b5b906000526020600020906005020160040160009054906101000a900460ff161515145b15612bbc57600192505050612bea565b8080612bc790614285565b915050612a80565b505b8080612bdc90614285565b915050612a01565b50600090505b92915050565b60005b60018281548110612c0757612c06613ccb565b5b906000526020600020906007020160060180549050811015612d36573373ffffffffffffffffffffffffffffffffffffffff1660018381548110612c4e57612c4d613ccb565b5b90600052602060002090600702016006018281548110612c7157612c70613ccb565b5b906000526020600020906005020160010160009054906101000a900473ffffffffffffffffffffffffffffffffffffffff1673ffffffffffffffffffffffffffffffffffffffff16148015612d1f57506000151560018381548110612cd957612cd8613ccb565b5b90600052602060002090600702016006018281548110612cfc57612cfb613ccb565b5b906000526020600020906005020160040160009054906101000a900460ff161515145b612d37578080612d2e90614285565b915050612bf3565b5b919050565b600080600090505b60018481548110612d5857612d57613ccb565b5b906000526020600020906007020160060180549050811015612e9f578160018581548110612d8957612d88613ccb565b5b90600052602060002090600702016006018281548110612dac57612dab613ccb565b5b9060005260206000209060050201600201541115612e8c5760018481548110612dd857612dd7613ccb565b5b90600052602060002090600702016006018181548110612dfb57612dfa613ccb565b5b9060005260206000209060050201600201546007600087815260200190815260200160002081905550826009600087815260200190815260200160002060008015151515815260200190815260200160002060006101000a81548173ffffffffffffffffffffffffffffffffffffffff021916908373ffffffffffffffffffffffffffffffffffffffff1602179055505b8080612e9790614285565b915050612d44565b5050505050565b6000612ece6064612ec08486612f1e90919063ffffffff16565b612f3490919063ffffffff16565b905092915050565b6000612f016103e8612ef360065485612f1e90919063ffffffff16565b612f3490919063ffffffff16565b9050919050565b60008183612f169190614566565b905092915050565b60008183612f2c919061459a565b905092915050565b60008183612f42919061460b565b905092915050565b6040518060a0016040528060008152602001600073ffffffffffffffffffffffffffffffffffffffff16815260200160008152602001600081526020016000151581525090565b508054612f9d90614535565b6000825580601f10612faf5750612fce565b601f016020900490600052602060002090810190612fcd9190613054565b5b50565b5080546000825560050290600052602060002090810190612ff29190613071565b50565b604051806101000160405280600081526020016060815260200160008152602001600073ffffffffffffffffffffffffffffffffffffffff16815260200160008152602001600015158152602001600015158152602001606081525090565b5b8082111561306d576000816000905550600101613055565b5090565b5b808211156130d7576000808201600090556001820160006101000a81549073ffffffffffffffffffffffffffffffffffffffff0219169055600282016000905560038201600090556004820160006101000a81549060ff021916905550600501613072565b5090565b6000604051905090565b600080fd5b600080fd5b6000819050919050565b613102816130ef565b811461310d57600080fd5b50565b60008135905061311f816130f9565b92915050565b6000806040838503121561313c5761313b6130e5565b5b600061314a85828601613110565b925050602061315b85828601613110565b9150509250929050565b60008060006060848603121561317e5761317d6130e5565b5b600061318c86828701613110565b935050602061319d86828701613110565b92505060406131ae86828701613110565b9150509250925092565b600073ffffffffffffffffffffffffffffffffffffffff82169050919050565b60006131e3826131b8565b9050919050565b6131f3816131d8565b81146131fe57600080fd5b50565b600081359050613210816131ea565b92915050565b60006020828403121561322c5761322b6130e5565b5b600061323a84828501613201565b91505092915050565b61324c816130ef565b82525050565b60006020820190506132676000830184613243565b92915050565b600081519050919050565b600082825260208201905092915050565b6000819050602082019050919050565b6132a2816130ef565b82525050565b6132b1816131d8565b82525050565b60008115159050919050565b6132cc816132b7565b82525050565b60a0820160008201516132e86000850182613299565b5060208201516132fb60208501826132a8565b50604082015161330e6040850182613299565b5060608201516133216060850182613299565b50608082015161333460808501826132c3565b50505050565b600061334683836132d2565b60a08301905092915050565b6000602082019050919050565b600061336a8261326d565b6133748185613278565b935061337f83613289565b8060005b838110156133b0578151613397888261333a565b97506133a283613352565b925050600181019050613383565b5085935050505092915050565b600060208201905081810360008301526133d7818461335f565b905092915050565b600080fd5b6000601f19601f8301169050919050565b7f4e487b7100000000000000000000000000000000000000000000000000000000600052604160045260246000fd5b61342d826133e4565b810181811067ffffffffffffffff8211171561344c5761344b6133f5565b5b80604052505050565b600061345f6130db565b905061346b8282613424565b919050565b600067ffffffffffffffff82111561348b5761348a6133f5565b5b602082029050602081019050919050565b600080fd5b60006134b46134af84613470565b613455565b905080838252602082019050602084028301858111156134d7576134d661349c565b5b835b8181101561350057806134ec8882613110565b8452602084019350506020810190506134d9565b5050509392505050565b600082601f83011261351f5761351e6133df565b5b813561352f8482602086016134a1565b91505092915050565b60006020828403121561354e5761354d6130e5565b5b600082013567ffffffffffffffff81111561356c5761356b6130ea565b5b6135788482850161350a565b91505092915050565b600081519050919050565b600082825260208201905092915050565b6000819050602082019050919050565b600081519050919050565b600082825260208201905092915050565b60005b838110156135e75780820151818401526020810190506135cc565b60008484015250505050565b60006135fe826135ad565b61360881856135b8565b93506136188185602086016135c9565b613621816133e4565b840191505092915050565b600082825260208201905092915050565b60006136488261326d565b613652818561362c565b935061365d83613289565b8060005b8381101561368e578151613675888261333a565b975061368083613352565b925050600181019050613661565b5085935050505092915050565b6000610100830160008301516136b46000860182613299565b50602083015184820360208601526136cc82826135f3565b91505060408301516136e16040860182613299565b5060608301516136f460608601826132a8565b5060808301516137076080860182613299565b5060a083015161371a60a08601826132c3565b5060c083015161372d60c08601826132c3565b5060e083015184820360e0860152613745828261363d565b9150508091505092915050565b600061375e838361369b565b905092915050565b6000602082019050919050565b600061377e82613581565b613788818561358c565b93508360208202850161379a8561359d565b8060005b858110156137d657848403895281516137b78582613752565b94506137c283613766565b925060208a0199505060018101905061379e565b50829750879550505050505092915050565b600060208201905081810360008301526138028184613773565b905092915050565b600080fd5b600080fd5b600080fd5b600067ffffffffffffffff821115613834576138336133f5565b5b61383d826133e4565b9050602081019050919050565b600061385d61385884613819565b613455565b90508281526020810184848401111561387957613878613814565b5b6138848482856135c9565b509392505050565b600082601f8301126138a1576138a06133df565b5b81516138b184826020860161384a565b91505092915050565b6138c3816132b7565b81146138ce57600080fd5b50565b6000815190506138e0816138ba565b92915050565b600061010082840312156138fd576138fc61380a565b5b613908610100613455565b9050600082015167ffffffffffffffff8111156139285761392761380f565b5b6139348482850161388c565b600083015250602082015167ffffffffffffffff8111156139585761395761380f565b5b6139648482850161388c565b602083015250604082015167ffffffffffffffff8111156139885761398761380f565b5b6139948482850161388c565b604083015250606082015167ffffffffffffffff8111156139b8576139b761380f565b5b6139c48482850161388c565b606083015250608082015167ffffffffffffffff8111156139e8576139e761380f565b5b6139f48482850161388c565b60808301525060a082015167ffffffffffffffff811115613a1857613a1761380f565b5b613a248482850161388c565b60a08301525060c082015167ffffffffffffffff811115613a4857613a4761380f565b5b613a548482850161388c565b60c08301525060e0613a68848285016138d1565b60e08301525092915050565b600081519050613a83816130f9565b92915050565b600081519050613a98816131ea565b92915050565b60008060008060008060008060008060006101608c8e031215613ac457613ac36130e5565b5b60008c015167ffffffffffffffff811115613ae257613ae16130ea565b5b613aee8e828f016138e6565b9b50506020613aff8e828f01613a74565b9a50506040613b108e828f01613a89565b9950506060613b218e828f01613a89565b9850506080613b328e828f01613a74565b97505060a0613b438e828f01613a74565b96505060c0613b548e828f01613a74565b95505060e0613b658e828f016138d1565b945050610100613b778e828f016138d1565b935050610120613b898e828f016138d1565b925050610140613b9b8e828f01613a74565b9150509295989b509295989b9093969950565b600082825260208201905092915050565b7f6572726f72000000000000000000000000000000000000000000000000000000600082015250565b6000613bf5600583613bae565b9150613c0082613bbf565b602082019050919050565b60006020820190508181036000830152613c2481613be8565b9050919050565b600060208284031215613c4157613c406130e5565b5b6000613c4f84828501613a89565b91505092915050565b613c61816131d8565b82525050565b6000606082019050613c7c6000830186613c58565b613c896020830185613c58565b613c966040830184613243565b949350505050565b600060208284031215613cb457613cb36130e5565b5b6000613cc2848285016138d1565b91505092915050565b7f4e487b7100000000000000000000000000000000000000000000000000000000600052603260045260246000fd5b6000819050919050565b6000819050919050565b6000613d29613d24613d1f84613cfa565b613d04565b6130ef565b9050919050565b613d3981613d0e565b82525050565b613d48816132b7565b82525050565b600060e082019050613d63600083018a613243565b613d706020830189613c58565b613d7d6040830188613d30565b613d8a6060830187613d3f565b613d976080830186613d3f565b613da460a0830185613d3f565b613db160c0830184613d3f565b98975050505050505050565b6000608082019050613dd26000830187613243565b613ddf6020830186613c58565b613dec6040830185613c58565b613df96060830184613d30565b95945050505050565b7f4372656174652061756374696f6e000000000000000000000000000000000000600082015250565b6000613e38600e83613bae565b9150613e4382613e02565b602082019050919050565b600060a082019050613e636000830187613c58565b613e706020830186613d30565b613e7d6040830185613243565b613e8a6060830184613243565b8181036080830152613e9b81613e2b565b905095945050505050565b6000606082019050613ebb6000830186613c58565b613ec86020830185613243565b613ed56040830184613243565b949350505050565b7f4164642042696400000000000000000000000000000000000000000000000000600082015250565b6000613f13600783613bae565b9150613f1e82613edd565b602082019050919050565b600060a082019050613f3e6000830187613c58565b613f4b6020830186613243565b613f586040830185613243565b613f656060830184613243565b8181036080830152613f7681613f06565b905095945050505050565b6000608082019050613f966000830187613c58565b613fa36020830186613243565b613fb06040830185613243565b613fbd6060830184613243565b95945050505050565b7f57697468647261772066726f6d2061756374696f6e0000000000000000000000600082015250565b6000613ffc601583613bae565b915061400782613fc6565b602082019050919050565b600060a0820190506140276000830187613c58565b6140346020830186613243565b6140416040830185613243565b61404e6060830184613243565b818103608083015261405f81613fef565b905095945050505050565b7f4e487b7100000000000000000000000000000000000000000000000000000000600052601160045260246000fd5b60006140a4826130ef565b91506140af836130ef565b92508282019050808211156140c7576140c661406a565b5b92915050565b60006040820190506140e26000830185613c58565b6140ef6020830184613243565b9392505050565b600060e08201905061410b600083018a613243565b6141186020830189613c58565b6141256040830188613243565b6141326060830187613d3f565b61413f6080830186613d3f565b61414c60a0830185613d3f565b61415960c0830184613d3f565b98975050505050505050565b600060808201905061417a6000830187613243565b6141876020830186613c58565b6141946040830185613c58565b6141a16060830184613243565b95945050505050565b7f456e642061756374696f6e000000000000000000000000000000000000000000600082015250565b60006141e0600b83613bae565b91506141eb826141aa565b602082019050919050565b600060a08201905061420b6000830187613c58565b6142186020830186613243565b6142256040830185613243565b6142326060830184613243565b8181036080830152614243816141d3565b905095945050505050565b60006060820190506142636000830186613243565b6142706020830185613243565b61427d6040830184613c58565b949350505050565b6000614290826130ef565b91507fffffffffffffffffffffffffffffffffffffffffffffffffffffffffffffffff82036142c2576142c161406a565b5b600182019050919050565b600081519050919050565b600082825260208201905092915050565b6000819050602082019050919050565b60006143058383613299565b60208301905092915050565b6000602082019050919050565b6000614329826142cd565b61433381856142d8565b935061433e836142e9565b8060005b8381101561436f57815161435688826142f9565b975061436183614311565b925050600181019050614342565b5085935050505092915050565b60006020820190508181036000830152614396818461431e565b905092915050565b600060a0820190506143b36000830187613c58565b6143c06020830186613d30565b6143cd6040830185613243565b6143da6060830184613243565b81810360808301526143eb816141d3565b905095945050505050565b7f6e6f2066756e6473000000000000000000000000000000000000000000000000600082015250565b600061442c600883613bae565b9150614437826143f6565b602082019050919050565b6000602082019050818103600083015261445b8161441f565b9050919050565b7f436c61696d2046756e6473000000000000000000000000000000000000000000600082015250565b6000614498600b83613bae565b91506144a382614462565b602082019050919050565b600060a0820190506144c36000830187613c58565b6144d06020830186613243565b6144dd6040830185613d30565b6144ea6060830184613d30565b81810360808301526144fb8161448b565b905095945050505050565b7f4e487b7100000000000000000000000000000000000000000000000000000000600052602260045260246000fd5b6000600282049050600182168061454d57607f821691505b6020821081036145605761455f614506565b5b50919050565b6000614571826130ef565b915061457c836130ef565b92508282039050818111156145945761459361406a565b5b92915050565b60006145a5826130ef565b91506145b0836130ef565b92508282026145be816130ef565b915082820484148315176145d5576145d461406a565b5b5092915050565b7f4e487b7100000000000000000000000000000000000000000000000000000000600052601260045260246000fd5b6000614616826130ef565b9150614621836130ef565b925082614631576146306145dc565b5b82820490509291505056fea2646970667358221220fb86be2052f2206b3c8c4074cd15d87d27db905036e004dbdc5a004d8cbfbcf764736f6c63430008130033",
  "immutableReferences": {},
  "source": "// SPDX-License-Identifier: MIT\npragma solidity >=0.4.17 <8.10.0;\n\nimport \"./UserInfo.sol\";\nimport \"./NFTAnalytics.sol\";\nimport \"./Collectible.sol\";\nimport \"./Marketplace.sol\";\nimport \"../client/node_modules/@openzeppelin/contracts/utils/math/SafeMath.sol\";\n\ncontract NFTAuction {\n    using SafeMath for uint256;\n\n    UserInfo user;\n    Auction[] auctions;\n    Marketplace market;\n    Collectible collectible;\n    NFTAnalytics analytics;\n\n    address owner;\n    uint256 commission;\n    mapping(uint256 => uint256) topBalance;\n    mapping (address => uint) public userFunds;\n    mapping(uint256 => mapping(bool => address)) winners;\n\n    struct Bidder {\n        uint256 _tokenId;\n        address _address;\n        uint256 _amount;\n        uint256 _time;\n        bool _withdraw;\n    }\n    struct Auction{\n        uint256 _tokenId;\n        string _tokenURI;\n        uint256 _auctionId;\n        address _address;\n        uint256 _endTime;\n        bool _active;\n        bool _cancel;\n        Bidder[] _bids;\n    }\n\n    modifier onlyOwner(){\n        require(msg.sender == owner, \"Permission denied for this address\");\n        _;\n    }\n\n    event ClaimFunds(address user, uint amount);\n    event CreateAuction(address _address, uint256 _tokenId, uint256 _endTime);\n    event CancelAuction(address _address, uint256 _tokenId, uint256 _time);\n    event Bid(address _address, uint256 _tokenId, uint256 _amount, uint256 _time);\n    event Withdraw(address _address, uint256 _tokenId, uint256 _time);\n    event EndAuction(uint256 _tokenId, uint256 _price, address _winner);\n\n    constructor(address _nftCollection, address _user, address _market, address _analytics) {\n        collectible = Collectible(_nftCollection);\n        owner = payable(msg.sender);\n        commission = collectible.commission();\n        user = UserInfo(_user);\n        market = Marketplace(_market);\n        analytics = NFTAnalytics(_analytics);\n    }\n\n\n    function createAuction(uint256 _id, uint256 _endTime ) public {\n        (,,, address _owner,, uint256 _royality,, bool _promoted, bool _approved,,) = collectible.tokenDetails(_id);\n\n        require(_endTime > block.timestamp, 'error');\n        require(msg.sender == collectible.ownerOf(_id), \"error\");\n        collectible.transferFrom(msg.sender, address(this), _id);\n        uint256 _auctionId = auctions.length;\n        auctions.push();\n        bool offer = analytics.offers(_id);\n        Auction storage _auction = auctions[_auctionId];\n        _auction._tokenId = _id;\n        _auction._auctionId = _auctionId;\n        _auction._endTime = _endTime;\n        _auction._address = _owner;\n        _auction._active = true;\n        _auction._cancel = false;\n        collectible.updateToken(_id, _owner, 0, _promoted, _approved, true, offer);\n        analytics.setNFTTransactions(_id, _owner, address(this), 0);\n        analytics.setTransaction(_id, _owner, address(this), 0);\n        user.setActivity(_owner, 0, _royality, commission, \"Create auction\");\n        emit CreateAuction(msg.sender, _id, _endTime);\n    }\n\n    function bid(uint256 _tokenId, uint256 _auctionId, uint256 _amount) public payable{\n        (,,, address _owner,, uint256 _royality,,,,,) = collectible.tokenDetails(_tokenId);\n        require(_amount > 0, \"error\");\n        require(!checkUser(msg.sender, _tokenId), \"error\");\n        require(msg.sender != _owner, \"error\");\n        if (_amount > topBalance[_tokenId]) {\n            topBalance[_tokenId] = _amount;\n            winners[_tokenId][true] = msg.sender;\n        }\n        Auction storage _auction = auctions[_auctionId];\n        _auction._bids.push(Bidder(_tokenId, msg.sender, _amount, block.timestamp, false));\n        user.setActivity(msg.sender, _amount, _royality, commission, \"Add Bid\");\n        emit Bid(msg.sender, _tokenId, _amount, block.timestamp);\n    }\n\n    function withdraw(uint256 _tokenId, uint256 _auctionId) public{\n        (,,,,, uint256 _royality,,,,,) = collectible.tokenDetails(_tokenId);\n        uint256 index = amount(_auctionId);\n        uint256 _amount = auctions[_auctionId]._bids[index]._amount;\n        require(_tokenId == auctions[_auctionId]._tokenId, \"error\");\n        require( _amount > 0, \"error\");\n        top_balance(_tokenId, _auctionId, msg.sender);\n        payable(msg.sender).transfer(_amount);\n        auctions[_auctionId]._bids[index]._withdraw = true;\n        user.setActivity(msg.sender, _amount, _royality, commission, \"Withdraw from auction\");\n        emit Withdraw(msg.sender, _tokenId, block.timestamp);\n    }\n\n    function endAuction(uint256 _tokenId, uint256 _auctionId) public{\n        (,, address _creator, address _owner,, uint256 _royality,,, bool _approved,,) = collectible.tokenDetails(_tokenId);\n        address _winner = winners[_tokenId][true];\n        if (_winner == address(0)) {\n            analytics.setNFTTransactions(_tokenId, address(this), _owner, 0);\n            return;\n        }\n        collectible.transferFrom(address(this), _winner, _tokenId);\n        uint256 index = amount(_auctionId);\n        auctions[_auctionId]._active = false;\n        auctions[_auctionId]._address = _winner;\n        auctions[_auctionId]._bids[index]._withdraw = true;\n        uint256 _price = topBalance[_tokenId];\n        topBalance[_tokenId] = 0;\n        winners[_tokenId][true] = address(0);\n        uint256 royality = royality_(_price, _royality);\n        uint256 _commission = commission_(_price);\n        userFunds[_owner] +=  _price.sub(_commission).sub(royality);\n        userFunds[_creator] += royality;\n        userFunds[owner] += _commission;\n        market.setSellerFunds(_owner, _price);\n        bool offer = analytics.offers(_tokenId);\n        collectible.updateToken(_tokenId, _winner, _price, false, _approved, false, offer);\n        analytics.setNFTTransactions(_tokenId, address(this), _winner, _price);\n        user.setActivity(msg.sender, _price, _royality, commission, \"End auction\");\n        analytics.setTransaction(_tokenId, address(this), _winner, _price);\n        emit EndAuction(_tokenId, _price, _winner);\n    }\n\n    function cancelAuction(uint256 _tokenId, uint256 _auctionId) public{\n    (,,, address _owner,, uint256 _royality,, bool _promoted, bool _approved,,) = collectible.tokenDetails(_tokenId);\n\n    require(_owner == msg.sender, \"error\");\n    collectible.transferFrom(address(this), _owner, _tokenId);\n    bool offer = analytics.offers(_tokenId);\n    collectible.updateToken(_tokenId, _owner, 0, _promoted, _approved, false, offer);\n    auctions[_auctionId]._cancel = true;\n    auctions[_auctionId]._active = false;\n    user.setActivity(msg.sender, 0, _royality, commission, \"End auction\");\n    analytics.setNFTTransactions(_tokenId, address(this), _owner, 0);\n    analytics.setTransaction(_tokenId, address(this), _owner, 0);\n    emit CancelAuction(msg.sender, _tokenId, block.timestamp);\n    }\n\n    function getAuctions() public view returns(Auction[] memory _auctions) {\n        _auctions = new Auction[](auctions.length);\n        for (uint256 i = 0; i < auctions.length; i++) {\n            _auctions[i] = auctions[i];\n        }\n    }\n\n    function claimProfits() public {\n        require(userFunds[msg.sender] > 0, 'no funds');\n        payable(msg.sender).transfer(userFunds[msg.sender]);\n        user.setActivity(msg.sender, userFunds[msg.sender], 0, 0, \"Claim Funds\");\n        emit ClaimFunds(msg.sender, userFunds[msg.sender]);\n        userFunds[msg.sender] = 0;    \n    }\n\n    function userBids(address _address) public view returns(Bidder[] memory _bids) {\n        _bids = new Bidder[](auctions.length);\n        for (uint256 i = 0; i < auctions.length; i++) {\n            for (uint256 x = 0; x < auctions[i]._bids.length; x++) {\n                if (auctions[i]._bids[x]._address == _address && auctions[i]._bids[x]._withdraw == false) {\n                    _bids[i] = auctions[i]._bids[x];\n                }else{\n                    _bids[i] = Bidder(auctions[i]._bids[x]._tokenId, address(0), 0, 0, false);\n                }\n            }\n        }\n    }\n\n    function unwanted(uint256[] memory _ids) public {\n        collectible.unwanted(_ids);\n        for (uint256 i = 0; i < _ids.length; i++) {\n            for (uint256 x = 0; x < auctions.length; x++) {\n                if (_ids[i] == auctions[x]._tokenId) {\n                    delete auctions[x];\n                }\n            }\n        }\n    }\n\n    function amount(uint256 _auctionId) private view returns(uint256 index){\n        for (index = 0; index < auctions[_auctionId]._bids.length; index++) {\n            if (auctions[_auctionId]._bids[index]._address == msg.sender && auctions[_auctionId]._bids[index]._withdraw == false) {\n                return index;\n            }\n        }\n    }\n\n    function checkUser(address _address, uint256 _tokenId) private view returns(bool) {\n        for (uint256 i = 0; i < auctions.length; i++) {\n            if (auctions[i]._tokenId == _tokenId && auctions[i]._active == true) {\n                for (uint256 index = 0; index < auctions[i]._bids.length; index++) {\n                    if (auctions[i]._bids[index]._address == _address && auctions[i]._bids[index]._withdraw == false) return true;\n                }\n            } \n        }\n        return false;\n    }\n\n    function commission_(uint256 price) private view returns(uint256){\n            return (price.mul(commission)).div(1000);\n    }\n\n    function royality_(uint256 _price, uint256 _royality) private pure returns(uint256){\n            return (_price.mul(_royality)).div(100);\n    }\n\n    function top_balance(uint256 _tokenId, uint256 _auctionId, address _address) private{\n        uint256 _top;\n        for (uint256 i = 0; i < auctions[_auctionId]._bids.length; i++) {\n            if (auctions[_auctionId]._bids[i]._amount > _top) {\n                topBalance[_tokenId] = auctions[_auctionId]._bids[i]._amount;\n                winners[_tokenId][false] = _address;\n            }\n        }\n    }\n}",
  "sourcePath": "/Users/ruby/Documents/MetaMusik/MetaMusikMarket/MetaMusikMarket/contracts/NFTAuction.sol",
  "compiler": {
    "name": "solc",
    "version": "0.8.19+commit.7dd6d404.Emscripten.clang"
  },
  "schemaVersion": "3.4.13",
  "updatedAt": "2023-04-04T13:13:05.598Z",
  "networkType": "ethereum",
  "devdoc": {
    "kind": "dev",
    "methods": {},
    "version": 1
  },
  "userdoc": {
    "kind": "user",
    "methods": {},
    "version": 1
  }
}