{
  "contractName": "UserInfo",
  "abi": [
    {
      "anonymous": false,
      "inputs": [
        {
          "indexed": false,
          "internalType": "address",
          "name": "_address",
          "type": "address"
        },
        {
          "indexed": false,
          "internalType": "string",
          "name": "_fullName",
          "type": "string"
        },
        {
          "indexed": false,
          "internalType": "string",
          "name": "_email",
          "type": "string"
        },
        {
          "indexed": false,
          "internalType": "string",
          "name": "_role",
          "type": "string"
        },
        {
          "indexed": false,
          "internalType": "string",
          "name": "_about",
          "type": "string"
        }
      ],
      "name": "CreateUser",
      "type": "event"
    },
    {
      "inputs": [
        {
          "internalType": "uint256",
          "name": "",
          "type": "uint256"
        }
      ],
      "name": "activities",
      "outputs": [
        {
          "internalType": "address",
          "name": "_address",
          "type": "address"
        },
        {
          "internalType": "uint256",
          "name": "_price",
          "type": "uint256"
        },
        {
          "internalType": "uint256",
          "name": "_royality",
          "type": "uint256"
        },
        {
          "internalType": "uint256",
          "name": "_commission",
          "type": "uint256"
        },
        {
          "internalType": "uint256",
          "name": "_time",
          "type": "uint256"
        },
        {
          "internalType": "string",
          "name": "_status",
          "type": "string"
        }
      ],
      "stateMutability": "view",
      "type": "function",
      "constant": true
    },
    {
      "inputs": [],
      "name": "count",
      "outputs": [
        {
          "internalType": "uint256",
          "name": "",
          "type": "uint256"
        }
      ],
      "stateMutability": "view",
      "type": "function",
      "constant": true
    },
    {
      "inputs": [
        {
          "internalType": "uint256",
          "name": "",
          "type": "uint256"
        }
      ],
      "name": "users",
      "outputs": [
        {
          "internalType": "address",
          "name": "_address",
          "type": "address"
        },
        {
          "internalType": "string",
          "name": "_fullName",
          "type": "string"
        },
        {
          "internalType": "string",
          "name": "_email",
          "type": "string"
        },
        {
          "internalType": "string",
          "name": "_role",
          "type": "string"
        },
        {
          "internalType": "string",
          "name": "_about",
          "type": "string"
        },
        {
          "internalType": "string",
          "name": "_facebok",
          "type": "string"
        },
        {
          "internalType": "string",
          "name": "_twitter",
          "type": "string"
        },
        {
          "internalType": "string",
          "name": "_instagram",
          "type": "string"
        },
        {
          "internalType": "string",
          "name": "_dribbble",
          "type": "string"
        },
        {
          "internalType": "string",
          "name": "_header",
          "type": "string"
        },
        {
          "internalType": "string",
          "name": "_avatar",
          "type": "string"
        }
      ],
      "stateMutability": "view",
      "type": "function",
      "constant": true
    },
    {
      "inputs": [
        {
          "components": [
            {
              "internalType": "address",
              "name": "_address",
              "type": "address"
            },
            {
              "internalType": "string",
              "name": "_fullName",
              "type": "string"
            },
            {
              "internalType": "string",
              "name": "_email",
              "type": "string"
            },
            {
              "internalType": "string",
              "name": "_role",
              "type": "string"
            },
            {
              "internalType": "string",
              "name": "_about",
              "type": "string"
            },
            {
              "internalType": "string",
              "name": "_facebok",
              "type": "string"
            },
            {
              "internalType": "string",
              "name": "_twitter",
              "type": "string"
            },
            {
              "internalType": "string",
              "name": "_instagram",
              "type": "string"
            },
            {
              "internalType": "string",
              "name": "_dribbble",
              "type": "string"
            },
            {
              "internalType": "string",
              "name": "_header",
              "type": "string"
            },
            {
              "internalType": "string",
              "name": "_avatar",
              "type": "string"
            }
          ],
          "internalType": "struct UserInfo.User",
          "name": "_user",
          "type": "tuple"
        }
      ],
      "name": "addUser",
      "outputs": [
        {
          "internalType": "bool",
          "name": "",
          "type": "bool"
        }
      ],
      "stateMutability": "nonpayable",
      "type": "function"
    },
    {
      "inputs": [
        {
          "internalType": "address",
          "name": "_address",
          "type": "address"
        }
      ],
      "name": "getUser",
      "outputs": [
        {
          "components": [
            {
              "internalType": "address",
              "name": "_address",
              "type": "address"
            },
            {
              "internalType": "string",
              "name": "_fullName",
              "type": "string"
            },
            {
              "internalType": "string",
              "name": "_email",
              "type": "string"
            },
            {
              "internalType": "string",
              "name": "_role",
              "type": "string"
            },
            {
              "internalType": "string",
              "name": "_about",
              "type": "string"
            },
            {
              "internalType": "string",
              "name": "_facebok",
              "type": "string"
            },
            {
              "internalType": "string",
              "name": "_twitter",
              "type": "string"
            },
            {
              "internalType": "string",
              "name": "_instagram",
              "type": "string"
            },
            {
              "internalType": "string",
              "name": "_dribbble",
              "type": "string"
            },
            {
              "internalType": "string",
              "name": "_header",
              "type": "string"
            },
            {
              "internalType": "string",
              "name": "_avatar",
              "type": "string"
            }
          ],
          "internalType": "struct UserInfo.User",
          "name": "",
          "type": "tuple"
        }
      ],
      "stateMutability": "view",
      "type": "function",
      "constant": true
    },
    {
      "inputs": [],
      "name": "getUsersList",
      "outputs": [
        {
          "components": [
            {
              "internalType": "address",
              "name": "_address",
              "type": "address"
            },
            {
              "internalType": "string",
              "name": "_fullName",
              "type": "string"
            },
            {
              "internalType": "string",
              "name": "_email",
              "type": "string"
            },
            {
              "internalType": "string",
              "name": "_role",
              "type": "string"
            },
            {
              "internalType": "string",
              "name": "_about",
              "type": "string"
            },
            {
              "internalType": "string",
              "name": "_facebok",
              "type": "string"
            },
            {
              "internalType": "string",
              "name": "_twitter",
              "type": "string"
            },
            {
              "internalType": "string",
              "name": "_instagram",
              "type": "string"
            },
            {
              "internalType": "string",
              "name": "_dribbble",
              "type": "string"
            },
            {
              "internalType": "string",
              "name": "_header",
              "type": "string"
            },
            {
              "internalType": "string",
              "name": "_avatar",
              "type": "string"
            }
          ],
          "internalType": "struct UserInfo.User[]",
          "name": "",
          "type": "tuple[]"
        }
      ],
      "stateMutability": "view",
      "type": "function",
      "constant": true
    },
    {
      "inputs": [
        {
          "internalType": "address",
          "name": "_address",
          "type": "address"
        },
        {
          "internalType": "uint256",
          "name": "_price",
          "type": "uint256"
        },
        {
          "internalType": "uint256",
          "name": "_royality",
          "type": "uint256"
        },
        {
          "internalType": "uint256",
          "name": "_commission",
          "type": "uint256"
        },
        {
          "internalType": "string",
          "name": "_status",
          "type": "string"
        }
      ],
      "name": "setActivity",
      "outputs": [],
      "stateMutability": "nonpayable",
      "type": "function"
    },
    {
      "inputs": [],
      "name": "get_activities",
      "outputs": [
        {
          "components": [
            {
              "internalType": "address",
              "name": "_address",
              "type": "address"
            },
            {
              "internalType": "uint256",
              "name": "_price",
              "type": "uint256"
            },
            {
              "internalType": "uint256",
              "name": "_royality",
              "type": "uint256"
            },
            {
              "internalType": "uint256",
              "name": "_commission",
              "type": "uint256"
            },
            {
              "internalType": "uint256",
              "name": "_time",
              "type": "uint256"
            },
            {
              "internalType": "string",
              "name": "_status",
              "type": "string"
            }
          ],
          "internalType": "struct UserInfo.Activity[]",
          "name": "",
          "type": "tuple[]"
        }
      ],
      "stateMutability": "view",
      "type": "function",
      "constant": true
    },
    {
      "inputs": [
        {
          "internalType": "address",
          "name": "_address",
          "type": "address"
        }
      ],
      "name": "addToWhitelist",
      "outputs": [
        {
          "internalType": "bool",
          "name": "",
          "type": "bool"
        }
      ],
      "stateMutability": "nonpayable",
      "type": "function"
    },
    {
      "inputs": [],
      "name": "getWhitelisted",
      "outputs": [
        {
          "internalType": "address[]",
          "name": "",
          "type": "address[]"
        }
      ],
      "stateMutability": "view",
      "type": "function",
      "constant": true
    },
    {
      "inputs": [
        {
          "internalType": "address",
          "name": "_address",
          "type": "address"
        }
      ],
      "name": "removeFromWhitelist",
      "outputs": [
        {
          "internalType": "bool",
          "name": "",
          "type": "bool"
        }
      ],
      "stateMutability": "nonpayable",
      "type": "function"
    },
    {
      "inputs": [
        {
          "internalType": "address",
          "name": "_address",
          "type": "address"
        }
      ],
      "name": "whitelistMember",
      "outputs": [
        {
          "internalType": "bool",
          "name": "",
          "type": "bool"
        }
      ],
      "stateMutability": "view",
      "type": "function",
      "constant": true
    }
  ],
  "bytecode": "0x608060405234801561001057600080fd5b506134a7806100206000396000f3fe608060405234801561001057600080fd5b50600436106100b45760003560e01c80639b372b2b116100715780639b372b2b146101d6578063b7c2f3a7146101f4578063c74e13f314610210578063d50296201461022e578063e43252d71461025e578063ea1a34151461028e576100b4565b806306661abd146100b95780630d1657e8146100d75780633450e6831461010c578063365b98b21461013c5780636f77926b146101765780638ab1d681146101a6575b600080fd5b6100c16102ac565b6040516100ce91906122f2565b60405180910390f35b6100f160048036038101906100ec919061234d565b6102b2565b6040516101039695949392919061244b565b60405180910390f35b610126600480360381019061012191906124df565b6103a6565b6040516101339190612527565b60405180910390f35b6101566004803603810190610151919061234d565b610454565b60405161016d9b9a99989796959493929190612542565b60405180910390f35b610190600480360381019061018b91906124df565b610a2e565b60405161019d91906127ba565b60405180910390f35b6101c060048036038101906101bb91906124df565b61111e565b6040516101cd9190612527565b60405180910390f35b6101de611251565b6040516101eb919061288b565b60405180910390f35b61020e600480360381019061020991906129e2565b61135b565b005b61021861145d565b6040516102259190612c69565b60405180910390f35b61024860048036038101906102439190612eb9565b611b3e565b6040516102559190612527565b60405180910390f35b610278600480360381019061027391906124df565b611f86565b6040516102859190612527565b60405180910390f35b610296612037565b6040516102a3919061305c565b60405180910390f35b60025481565b600381815481106102c257600080fd5b90600052602060002090600602016000915090508060000160009054906101000a900473ffffffffffffffffffffffffffffffffffffffff1690806001015490806002015490806003015490806004015490806005018054610323906130ad565b80601f016020809104026020016040519081016040528092919081815260200182805461034f906130ad565b801561039c5780601f106103715761010080835404028352916020019161039c565b820191906000526020600020905b81548152906001019060200180831161037f57829003601f168201915b5050505050905086565b600080600090505b600080549050811015610449578273ffffffffffffffffffffffffffffffffffffffff16600082815481106103e6576103e56130de565b5b9060005260206000200160009054906101000a900473ffffffffffffffffffffffffffffffffffffffff1673ffffffffffffffffffffffffffffffffffffffff160361043657600191505061044f565b80806104419061313c565b9150506103ae565b50600090505b919050565b6001818154811061046457600080fd5b90600052602060002090600b02016000915090508060000160009054906101000a900473ffffffffffffffffffffffffffffffffffffffff16908060010180546104ad906130ad565b80601f01602080910402602001604051908101604052809291908181526020018280546104d9906130ad565b80156105265780601f106104fb57610100808354040283529160200191610526565b820191906000526020600020905b81548152906001019060200180831161050957829003601f168201915b50505050509080600201805461053b906130ad565b80601f0160208091040260200160405190810160405280929190818152602001828054610567906130ad565b80156105b45780601f10610589576101008083540402835291602001916105b4565b820191906000526020600020905b81548152906001019060200180831161059757829003601f168201915b5050505050908060030180546105c9906130ad565b80601f01602080910402602001604051908101604052809291908181526020018280546105f5906130ad565b80156106425780601f1061061757610100808354040283529160200191610642565b820191906000526020600020905b81548152906001019060200180831161062557829003601f168201915b505050505090806004018054610657906130ad565b80601f0160208091040260200160405190810160405280929190818152602001828054610683906130ad565b80156106d05780601f106106a5576101008083540402835291602001916106d0565b820191906000526020600020905b8154815290600101906020018083116106b357829003601f168201915b5050505050908060050180546106e5906130ad565b80601f0160208091040260200160405190810160405280929190818152602001828054610711906130ad565b801561075e5780601f106107335761010080835404028352916020019161075e565b820191906000526020600020905b81548152906001019060200180831161074157829003601f168201915b505050505090806006018054610773906130ad565b80601f016020809104026020016040519081016040528092919081815260200182805461079f906130ad565b80156107ec5780601f106107c1576101008083540402835291602001916107ec565b820191906000526020600020905b8154815290600101906020018083116107cf57829003601f168201915b505050505090806007018054610801906130ad565b80601f016020809104026020016040519081016040528092919081815260200182805461082d906130ad565b801561087a5780601f1061084f5761010080835404028352916020019161087a565b820191906000526020600020905b81548152906001019060200180831161085d57829003601f168201915b50505050509080600801805461088f906130ad565b80601f01602080910402602001604051908101604052809291908181526020018280546108bb906130ad565b80156109085780601f106108dd57610100808354040283529160200191610908565b820191906000526020600020905b8154815290600101906020018083116108eb57829003601f168201915b50505050509080600901805461091d906130ad565b80601f0160208091040260200160405190810160405280929190818152602001828054610949906130ad565b80156109965780601f1061096b57610100808354040283529160200191610996565b820191906000526020600020905b81548152906001019060200180831161097957829003601f168201915b50505050509080600a0180546109ab906130ad565b80601f01602080910402602001604051908101604052809291908181526020018280546109d7906130ad565b8015610a245780601f106109f957610100808354040283529160200191610a24565b820191906000526020600020905b815481529060010190602001808311610a0757829003601f168201915b505050505090508b565b610a3661221d565b610a3e61221d565b60005b600180549050811015611114578373ffffffffffffffffffffffffffffffffffffffff1660018281548110610a7957610a786130de565b5b90600052602060002090600b020160000160009054906101000a900473ffffffffffffffffffffffffffffffffffffffff1673ffffffffffffffffffffffffffffffffffffffff16036111015760018181548110610ada57610ad96130de565b5b90600052602060002090600b0201604051806101600160405290816000820160009054906101000a900473ffffffffffffffffffffffffffffffffffffffff1673ffffffffffffffffffffffffffffffffffffffff1673ffffffffffffffffffffffffffffffffffffffff168152602001600182018054610b5a906130ad565b80601f0160208091040260200160405190810160405280929190818152602001828054610b86906130ad565b8015610bd35780601f10610ba857610100808354040283529160200191610bd3565b820191906000526020600020905b815481529060010190602001808311610bb657829003601f168201915b50505050508152602001600282018054610bec906130ad565b80601f0160208091040260200160405190810160405280929190818152602001828054610c18906130ad565b8015610c655780601f10610c3a57610100808354040283529160200191610c65565b820191906000526020600020905b815481529060010190602001808311610c4857829003601f168201915b50505050508152602001600382018054610c7e906130ad565b80601f0160208091040260200160405190810160405280929190818152602001828054610caa906130ad565b8015610cf75780601f10610ccc57610100808354040283529160200191610cf7565b820191906000526020600020905b815481529060010190602001808311610cda57829003601f168201915b50505050508152602001600482018054610d10906130ad565b80601f0160208091040260200160405190810160405280929190818152602001828054610d3c906130ad565b8015610d895780601f10610d5e57610100808354040283529160200191610d89565b820191906000526020600020905b815481529060010190602001808311610d6c57829003601f168201915b50505050508152602001600582018054610da2906130ad565b80601f0160208091040260200160405190810160405280929190818152602001828054610dce906130ad565b8015610e1b5780601f10610df057610100808354040283529160200191610e1b565b820191906000526020600020905b815481529060010190602001808311610dfe57829003601f168201915b50505050508152602001600682018054610e34906130ad565b80601f0160208091040260200160405190810160405280929190818152602001828054610e60906130ad565b8015610ead5780601f10610e8257610100808354040283529160200191610ead565b820191906000526020600020905b815481529060010190602001808311610e9057829003601f168201915b50505050508152602001600782018054610ec6906130ad565b80601f0160208091040260200160405190810160405280929190818152602001828054610ef2906130ad565b8015610f3f5780601f10610f1457610100808354040283529160200191610f3f565b820191906000526020600020905b815481529060010190602001808311610f2257829003601f168201915b50505050508152602001600882018054610f58906130ad565b80601f0160208091040260200160405190810160405280929190818152602001828054610f84906130ad565b8015610fd15780601f10610fa657610100808354040283529160200191610fd1565b820191906000526020600020905b815481529060010190602001808311610fb457829003601f168201915b50505050508152602001600982018054610fea906130ad565b80601f0160208091040260200160405190810160405280929190818152602001828054611016906130ad565b80156110635780601f1061103857610100808354040283529160200191611063565b820191906000526020600020905b81548152906001019060200180831161104657829003601f168201915b50505050508152602001600a8201805461107c906130ad565b80601f01602080910402602001604051908101604052809291908181526020018280546110a8906130ad565b80156110f55780601f106110ca576101008083540402835291602001916110f5565b820191906000526020600020905b8154815290600101906020018083116110d857829003601f168201915b50505050508152505091505b808061110c9061313c565b915050610a41565b5080915050919050565b600080600090505b600080549050811015611246578273ffffffffffffffffffffffffffffffffffffffff166000828154811061115e5761115d6130de565b5b9060005260206000200160009054906101000a900473ffffffffffffffffffffffffffffffffffffffff1673ffffffffffffffffffffffffffffffffffffffff160361123357600081815481106111b8576111b76130de565b5b9060005260206000200160006101000a81549073ffffffffffffffffffffffffffffffffffffffff02191690556112293360008060006040518060400160405280601681526020017f52656d6f7665642066726f6d2057686974656c6973740000000000000000000081525061135b565b600191505061124c565b808061123e9061313c565b915050611126565b50600090505b919050565b60606000808054905067ffffffffffffffff811115611273576112726128b7565b5b6040519080825280602002602001820160405280156112a15781602001602082028036833780820191505090505b50905060005b60008054905081101561135357600081815481106112c8576112c76130de565b5b9060005260206000200160009054906101000a900473ffffffffffffffffffffffffffffffffffffffff16828281518110611306576113056130de565b5b602002602001019073ffffffffffffffffffffffffffffffffffffffff16908173ffffffffffffffffffffffffffffffffffffffff1681525050808061134b9061313c565b9150506112a7565b508091505090565b60006040518060c001604052808773ffffffffffffffffffffffffffffffffffffffff168152602001868152602001858152602001848152602001428152602001838152509050600381908060018154018082558091505060019003906000526020600020906006020160009091909190915060008201518160000160006101000a81548173ffffffffffffffffffffffffffffffffffffffff021916908373ffffffffffffffffffffffffffffffffffffffff1602179055506020820151816001015560408201518160020155606082015181600301556080820151816004015560a08201518160050190816114529190613330565b505050505050505050565b60606000600180549050905060008167ffffffffffffffff811115611485576114846128b7565b5b6040519080825280602002602001820160405280156114be57816020015b6114ab61221d565b8152602001906001900390816114a35790505b50905060005b82811015611b3557600181815481106114e0576114df6130de565b5b90600052602060002090600b0201604051806101600160405290816000820160009054906101000a900473ffffffffffffffffffffffffffffffffffffffff1673ffffffffffffffffffffffffffffffffffffffff1673ffffffffffffffffffffffffffffffffffffffff168152602001600182018054611560906130ad565b80601f016020809104026020016040519081016040528092919081815260200182805461158c906130ad565b80156115d95780601f106115ae576101008083540402835291602001916115d9565b820191906000526020600020905b8154815290600101906020018083116115bc57829003601f168201915b505050505081526020016002820180546115f2906130ad565b80601f016020809104026020016040519081016040528092919081815260200182805461161e906130ad565b801561166b5780601f106116405761010080835404028352916020019161166b565b820191906000526020600020905b81548152906001019060200180831161164e57829003601f168201915b50505050508152602001600382018054611684906130ad565b80601f01602080910402602001604051908101604052809291908181526020018280546116b0906130ad565b80156116fd5780601f106116d2576101008083540402835291602001916116fd565b820191906000526020600020905b8154815290600101906020018083116116e057829003601f168201915b50505050508152602001600482018054611716906130ad565b80601f0160208091040260200160405190810160405280929190818152602001828054611742906130ad565b801561178f5780601f106117645761010080835404028352916020019161178f565b820191906000526020600020905b81548152906001019060200180831161177257829003601f168201915b505050505081526020016005820180546117a8906130ad565b80601f01602080910402602001604051908101604052809291908181526020018280546117d4906130ad565b80156118215780601f106117f657610100808354040283529160200191611821565b820191906000526020600020905b81548152906001019060200180831161180457829003601f168201915b5050505050815260200160068201805461183a906130ad565b80601f0160208091040260200160405190810160405280929190818152602001828054611866906130ad565b80156118b35780601f10611888576101008083540402835291602001916118b3565b820191906000526020600020905b81548152906001019060200180831161189657829003601f168201915b505050505081526020016007820180546118cc906130ad565b80601f01602080910402602001604051908101604052809291908181526020018280546118f8906130ad565b80156119455780601f1061191a57610100808354040283529160200191611945565b820191906000526020600020905b81548152906001019060200180831161192857829003601f168201915b5050505050815260200160088201805461195e906130ad565b80601f016020809104026020016040519081016040528092919081815260200182805461198a906130ad565b80156119d75780601f106119ac576101008083540402835291602001916119d7565b820191906000526020600020905b8154815290600101906020018083116119ba57829003601f168201915b505050505081526020016009820180546119f0906130ad565b80601f0160208091040260200160405190810160405280929190818152602001828054611a1c906130ad565b8015611a695780601f10611a3e57610100808354040283529160200191611a69565b820191906000526020600020905b815481529060010190602001808311611a4c57829003601f168201915b50505050508152602001600a82018054611a82906130ad565b80601f0160208091040260200160405190810160405280929190818152602001828054611aae906130ad565b8015611afb5780601f10611ad057610100808354040283529160200191611afb565b820191906000526020600020905b815481529060010190602001808311611ade57829003601f168201915b505050505081525050828281518110611b1757611b166130de565b5b60200260200101819052508080611b2d9061313c565b9150506114c4565b50809250505090565b600080600090505b600180549050811015611d785760018181548110611b6757611b666130de565b5b90600052602060002090600b020160000160009054906101000a900473ffffffffffffffffffffffffffffffffffffffff1673ffffffffffffffffffffffffffffffffffffffff163373ffffffffffffffffffffffffffffffffffffffff1603611d6557611c0f3360008060006040518060400160405280600b81526020017f557064617465205573657200000000000000000000000000000000000000000081525061135b565b8260018281548110611c2457611c236130de565b5b90600052602060002090600b020160008201518160000160006101000a81548173ffffffffffffffffffffffffffffffffffffffff021916908373ffffffffffffffffffffffffffffffffffffffff1602179055506020820151816001019081611c8e9190613330565b506040820151816002019081611ca49190613330565b506060820151816003019081611cba9190613330565b506080820151816004019081611cd09190613330565b5060a0820151816005019081611ce69190613330565b5060c0820151816006019081611cfc9190613330565b5060e0820151816007019081611d129190613330565b50610100820151816008019081611d299190613330565b50610120820151816009019081611d409190613330565b5061014082015181600a019081611d579190613330565b509050506001915050611f81565b8080611d709061313c565b915050611b46565b5060018290806001815401808255809150506001900390600052602060002090600b020160009091909190915060008201518160000160006101000a81548173ffffffffffffffffffffffffffffffffffffffff021916908373ffffffffffffffffffffffffffffffffffffffff1602179055506020820151816001019081611e019190613330565b506040820151816002019081611e179190613330565b506060820151816003019081611e2d9190613330565b506080820151816004019081611e439190613330565b5060a0820151816005019081611e599190613330565b5060c0820151816006019081611e6f9190613330565b5060e0820151816007019081611e859190613330565b50610100820151816008019081611e9c9190613330565b50610120820151816009019081611eb39190613330565b5061014082015181600a019081611eca9190613330565b50505060026000815480929190611ee09061313c565b9190505550611f293360008060006040518060400160405280600881526020017f416464205573657200000000000000000000000000000000000000000000000081525061135b565b7f86e07ffc257db1f79f60f3c39f1f4823f9ce376da0c80a14b8e24a7aefb857e982600001518360200151846040015185606001518660800151604051611f74959493929190613402565b60405180910390a1600190505b919050565b600080829080600181540180825580915050600190039060005260206000200160009091909190916101000a81548173ffffffffffffffffffffffffffffffffffffffff021916908373ffffffffffffffffffffffffffffffffffffffff16021790555061202e3360008060006040518060400160405280601281526020017f416464656420746f2057686974656c697374000000000000000000000000000081525061135b565b60019050919050565b60606000600380549050905060008167ffffffffffffffff81111561205f5761205e6128b7565b5b60405190808252806020026020018201604052801561209857816020015b61208561228d565b81526020019060019003908161207d5790505b50905060005b8281101561221457600381815481106120ba576120b96130de565b5b90600052602060002090600602016040518060c00160405290816000820160009054906101000a900473ffffffffffffffffffffffffffffffffffffffff1673ffffffffffffffffffffffffffffffffffffffff1673ffffffffffffffffffffffffffffffffffffffff16815260200160018201548152602001600282015481526020016003820154815260200160048201548152602001600582018054612161906130ad565b80601f016020809104026020016040519081016040528092919081815260200182805461218d906130ad565b80156121da5780601f106121af576101008083540402835291602001916121da565b820191906000526020600020905b8154815290600101906020018083116121bd57829003601f168201915b5050505050815250508282815181106121f6576121f56130de565b5b6020026020010181905250808061220c9061313c565b91505061209e565b50809250505090565b604051806101600160405280600073ffffffffffffffffffffffffffffffffffffffff168152602001606081526020016060815260200160608152602001606081526020016060815260200160608152602001606081526020016060815260200160608152602001606081525090565b6040518060c00160405280600073ffffffffffffffffffffffffffffffffffffffff16815260200160008152602001600081526020016000815260200160008152602001606081525090565b6000819050919050565b6122ec816122d9565b82525050565b600060208201905061230760008301846122e3565b92915050565b6000604051905090565b600080fd5b600080fd5b61232a816122d9565b811461233557600080fd5b50565b60008135905061234781612321565b92915050565b60006020828403121561236357612362612317565b5b600061237184828501612338565b91505092915050565b600073ffffffffffffffffffffffffffffffffffffffff82169050919050565b60006123a58261237a565b9050919050565b6123b58161239a565b82525050565b600081519050919050565b600082825260208201905092915050565b60005b838110156123f55780820151818401526020810190506123da565b60008484015250505050565b6000601f19601f8301169050919050565b600061241d826123bb565b61242781856123c6565b93506124378185602086016123d7565b61244081612401565b840191505092915050565b600060c08201905061246060008301896123ac565b61246d60208301886122e3565b61247a60408301876122e3565b61248760608301866122e3565b61249460808301856122e3565b81810360a08301526124a68184612412565b9050979650505050505050565b6124bc8161239a565b81146124c757600080fd5b50565b6000813590506124d9816124b3565b92915050565b6000602082840312156124f5576124f4612317565b5b6000612503848285016124ca565b91505092915050565b60008115159050919050565b6125218161250c565b82525050565b600060208201905061253c6000830184612518565b92915050565b600061016082019050612558600083018e6123ac565b818103602083015261256a818d612412565b9050818103604083015261257e818c612412565b90508181036060830152612592818b612412565b905081810360808301526125a6818a612412565b905081810360a08301526125ba8189612412565b905081810360c08301526125ce8188612412565b905081810360e08301526125e28187612412565b90508181036101008301526125f78186612412565b905081810361012083015261260c8185612412565b90508181036101408301526126218184612412565b90509c9b505050505050505050505050565b61263c8161239a565b82525050565b600082825260208201905092915050565b600061265e826123bb565b6126688185612642565b93506126788185602086016123d7565b61268181612401565b840191505092915050565b6000610160830160008301516126a56000860182612633565b50602083015184820360208601526126bd8282612653565b915050604083015184820360408601526126d78282612653565b915050606083015184820360608601526126f18282612653565b9150506080830151848203608086015261270b8282612653565b91505060a083015184820360a08601526127258282612653565b91505060c083015184820360c086015261273f8282612653565b91505060e083015184820360e08601526127598282612653565b9150506101008301518482036101008601526127758282612653565b9150506101208301518482036101208601526127918282612653565b9150506101408301518482036101408601526127ad8282612653565b9150508091505092915050565b600060208201905081810360008301526127d4818461268c565b905092915050565b600081519050919050565b600082825260208201905092915050565b6000819050602082019050919050565b60006128148383612633565b60208301905092915050565b6000602082019050919050565b6000612838826127dc565b61284281856127e7565b935061284d836127f8565b8060005b8381101561287e5781516128658882612808565b975061287083612820565b925050600181019050612851565b5085935050505092915050565b600060208201905081810360008301526128a5818461282d565b905092915050565b600080fd5b600080fd5b7f4e487b7100000000000000000000000000000000000000000000000000000000600052604160045260246000fd5b6128ef82612401565b810181811067ffffffffffffffff8211171561290e5761290d6128b7565b5b80604052505050565b600061292161230d565b905061292d82826128e6565b919050565b600067ffffffffffffffff82111561294d5761294c6128b7565b5b61295682612401565b9050602081019050919050565b82818337600083830152505050565b600061298561298084612932565b612917565b9050828152602081018484840111156129a1576129a06128b2565b5b6129ac848285612963565b509392505050565b600082601f8301126129c9576129c86128ad565b5b81356129d9848260208601612972565b91505092915050565b600080600080600060a086880312156129fe576129fd612317565b5b6000612a0c888289016124ca565b9550506020612a1d88828901612338565b9450506040612a2e88828901612338565b9350506060612a3f88828901612338565b925050608086013567ffffffffffffffff811115612a6057612a5f61231c565b5b612a6c888289016129b4565b9150509295509295909350565b600081519050919050565b600082825260208201905092915050565b6000819050602082019050919050565b600061016083016000830151612abe6000860182612633565b5060208301518482036020860152612ad68282612653565b91505060408301518482036040860152612af08282612653565b91505060608301518482036060860152612b0a8282612653565b91505060808301518482036080860152612b248282612653565b91505060a083015184820360a0860152612b3e8282612653565b91505060c083015184820360c0860152612b588282612653565b91505060e083015184820360e0860152612b728282612653565b915050610100830151848203610100860152612b8e8282612653565b915050610120830151848203610120860152612baa8282612653565b915050610140830151848203610140860152612bc68282612653565b9150508091505092915050565b6000612bdf8383612aa5565b905092915050565b6000602082019050919050565b6000612bff82612a79565b612c098185612a84565b935083602082028501612c1b85612a95565b8060005b85811015612c575784840389528151612c388582612bd3565b9450612c4383612be7565b925060208a01995050600181019050612c1f565b50829750879550505050505092915050565b60006020820190508181036000830152612c838184612bf4565b905092915050565b600080fd5b600080fd5b60006101608284031215612cac57612cab612c8b565b5b612cb7610160612917565b90506000612cc7848285016124ca565b600083015250602082013567ffffffffffffffff811115612ceb57612cea612c90565b5b612cf7848285016129b4565b602083015250604082013567ffffffffffffffff811115612d1b57612d1a612c90565b5b612d27848285016129b4565b604083015250606082013567ffffffffffffffff811115612d4b57612d4a612c90565b5b612d57848285016129b4565b606083015250608082013567ffffffffffffffff811115612d7b57612d7a612c90565b5b612d87848285016129b4565b60808301525060a082013567ffffffffffffffff811115612dab57612daa612c90565b5b612db7848285016129b4565b60a08301525060c082013567ffffffffffffffff811115612ddb57612dda612c90565b5b612de7848285016129b4565b60c08301525060e082013567ffffffffffffffff811115612e0b57612e0a612c90565b5b612e17848285016129b4565b60e08301525061010082013567ffffffffffffffff811115612e3c57612e3b612c90565b5b612e48848285016129b4565b6101008301525061012082013567ffffffffffffffff811115612e6e57612e6d612c90565b5b612e7a848285016129b4565b6101208301525061014082013567ffffffffffffffff811115612ea057612e9f612c90565b5b612eac848285016129b4565b6101408301525092915050565b600060208284031215612ecf57612ece612317565b5b600082013567ffffffffffffffff811115612eed57612eec61231c565b5b612ef984828501612c95565b91505092915050565b600081519050919050565b600082825260208201905092915050565b6000819050602082019050919050565b612f37816122d9565b82525050565b600060c083016000830151612f556000860182612633565b506020830151612f686020860182612f2e565b506040830151612f7b6040860182612f2e565b506060830151612f8e6060860182612f2e565b506080830151612fa16080860182612f2e565b5060a083015184820360a0860152612fb98282612653565b9150508091505092915050565b6000612fd28383612f3d565b905092915050565b6000602082019050919050565b6000612ff282612f02565b612ffc8185612f0d565b93508360208202850161300e85612f1e565b8060005b8581101561304a578484038952815161302b8582612fc6565b945061303683612fda565b925060208a01995050600181019050613012565b50829750879550505050505092915050565b600060208201905081810360008301526130768184612fe7565b905092915050565b7f4e487b7100000000000000000000000000000000000000000000000000000000600052602260045260246000fd5b600060028204905060018216806130c557607f821691505b6020821081036130d8576130d761307e565b5b50919050565b7f4e487b7100000000000000000000000000000000000000000000000000000000600052603260045260246000fd5b7f4e487b7100000000000000000000000000000000000000000000000000000000600052601160045260246000fd5b6000613147826122d9565b91507fffffffffffffffffffffffffffffffffffffffffffffffffffffffffffffffff82036131795761317861310d565b5b600182019050919050565b60008190508160005260206000209050919050565b60006020601f8301049050919050565b600082821b905092915050565b6000600883026131e67fffffffffffffffffffffffffffffffffffffffffffffffffffffffffffffffff826131a9565b6131f086836131a9565b95508019841693508086168417925050509392505050565b6000819050919050565b600061322d613228613223846122d9565b613208565b6122d9565b9050919050565b6000819050919050565b61324783613212565b61325b61325382613234565b8484546131b6565b825550505050565b600090565b613270613263565b61327b81848461323e565b505050565b5b8181101561329f57613294600082613268565b600181019050613281565b5050565b601f8211156132e4576132b581613184565b6132be84613199565b810160208510156132cd578190505b6132e16132d985613199565b830182613280565b50505b505050565b600082821c905092915050565b6000613307600019846008026132e9565b1980831691505092915050565b600061332083836132f6565b9150826002028217905092915050565b613339826123bb565b67ffffffffffffffff811115613352576133516128b7565b5b61335c82546130ad565b6133678282856132a3565b600060209050601f83116001811461339a5760008415613388578287015190505b6133928582613314565b8655506133fa565b601f1984166133a886613184565b60005b828110156133d0578489015182556001820191506020850194506020810190506133ab565b868310156133ed57848901516133e9601f8916826132f6565b8355505b6001600288020188555050505b505050505050565b600060a08201905061341760008301886123ac565b81810360208301526134298187612412565b9050818103604083015261343d8186612412565b905081810360608301526134518185612412565b905081810360808301526134658184612412565b9050969550505050505056fea26469706673582212200fad2fb3bf7b35b506acad0459a25b36d09d62d8a3942f0b4dc291ae5ad2129264736f6c63430008130033",
  "immutableReferences": {},
  "source": "// SPDX-License-Identifier: MIT\npragma solidity >=0.4.17 <8.10.0;\n\ncontract UserInfo{\n\n    struct User{\n        address _address;\n        string _fullName;\n        string _email;\n        string _role;\n        string _about;\n        string _facebok;\n        string _twitter;\n        string _instagram;\n        string _dribbble;\n        string _header;\n        string _avatar;\n    }\n    struct Activity{\n      address _address;\n      uint256 _price;\n      uint256 _royality;\n      uint256 _commission;\n      uint256 _time;\n      string _status;\n    }\n    address[] whitelist;\n    User[] public users;\n    uint256 public count;\n    Activity[] public activities;\n    event CreateUser(address _address, string _fullName, string _email, string _role, string _about);\n\n    /*====================================================================================\n                                User Methods\n    ====================================================================================*/ \n    function addUser(User memory _user) public returns(bool){\n        for (uint256 index = 0; index < users.length; index++) {\n            if (msg.sender == users[index]._address) {\n                setActivity(msg.sender, 0, 0, 0, \"Update User\");\n                users[index] = _user;\n                return true;\n            }  \n        }\n        users.push(_user);\n        count++;\n        setActivity(msg.sender, 0, 0, 0, \"Add User\");\n        emit CreateUser(_user._address, _user._fullName, _user._email, _user._role, _user._about);\n        return true;\n    }\n\n    function getUser(address _address) public view returns(User memory){\n        User memory _user;\n        for (uint256 i = 0; i < users.length; i++) {\n            if (users[i]._address == _address) { _user = users[i];}  \n        }\n        return _user;\n    }\n\n    function getUsersList() public view returns(User[] memory){\n        uint256 _length = users.length;\n        User[] memory _users = new User[](_length); \n        for(uint256 i = 0; i < _length; i++){\n            _users[i] = users[i];\n        }\n        return _users;\n    }\n\n    function setActivity(address _address, uint _price, uint _royality, uint _commission, string memory _status) public{\n     Activity memory _activity = Activity(_address, _price, _royality, _commission, block.timestamp, _status);\n     activities.push(_activity);\n   }\n   function get_activities() public view returns(Activity[] memory){\n        uint256 length = activities.length;\n        Activity[] memory _activities = new Activity[](length);\n        for (uint256 i = 0; i < length; i++) {\n        _activities[i] = activities[i];\n        }\n        return _activities;\n    }\n    /*====================================================================================\n                                Whitelist Methods\n    ====================================================================================*/ \n    function addToWhitelist(address _address) public returns(bool){\n        whitelist.push(_address);\n        setActivity(msg.sender, 0, 0, 0, \"Added to Whitelist\");\n        return true;\n    }\n    \n    function getWhitelisted() public view returns(address[] memory){\n        address[] memory _whitelist = new address[] (whitelist.length);\n        for(uint256 i = 0; i < whitelist.length; i++){\n            _whitelist[i] = whitelist[i];\n        }\n        return _whitelist;\n    }\n\n    function removeFromWhitelist(address _address) public returns(bool){\n        for (uint256 index = 0; index < whitelist.length; index++) {\n            if (whitelist[index] == _address) {\n                delete whitelist[index];\n                setActivity(msg.sender, 0, 0, 0, \"Removed from Whitelist\");\n                return true;\n            }\n        }\n        return false;\n    }\n\n    function whitelistMember(address _address) public view returns(bool)\n    {\n        for (uint256 index = 0; index < whitelist.length; index++) {\n            if (whitelist[index] == _address) {\n                return true;\n            }\n        }\n        return false;\n    }\n}",
  "sourcePath": "/Users/ruby/Documents/MetaMusik/MetaMusikMarket/MetaMusikMarket/contracts/UserInfo.sol",
  "compiler": {
    "name": "solc",
    "version": "0.8.19+commit.7dd6d404.Emscripten.clang"
  },
  "schemaVersion": "3.4.13",
  "updatedAt": "2023-04-04T13:13:05.620Z",
  "networkType": "ethereum",
  "devdoc": {
    "kind": "dev",
    "methods": {},
    "version": 1
  },
  "userdoc": {
    "kind": "user",
    "methods": {},
    "version": 1
  }
}